:020000040800F2
:10000000900700208940000845400008474000084C
:10001000494000084B4000084D4000080000000027
:100020000000000000000000000000004F40000839
:1000300051400008000000005340000855400008EF
:10004000B9400008BD400008C1400008C540000894
:10005000C9400008CD40000859400008D1400008C0
:10006000D5400008D9400008DD400008E140000804
:10007000E5400008E9400008ED400008F1400008B4
:10008000F5400008F9400008FD40000800000000AD
:100090000000000000000000000000000141000816
:1000A00005410008094100080D4100081141000800
:1000B00015410008194100081D41000821410008B0
:1000C00025410008294100082D4100083141000860
:1000D00035410008394100083D410008000000009A
:1000E0004141000845410008494100080000000066
:1000F0000000000000000000000000004D4100086A
:100100000000000051410008554100085941000815
:1001100000000000000000000000000000000000DF
:100120005D4100086141000865410008694100081F
:100130006D41000800000000000000000000000009
:1001400000000000000000000000000071410008F5
:1001500075410008794100087D410008814100088F
:1001600085410008894100080000000000000000EF
:10017000000000000000000000000000000000007F
:10018000000000008D410008000000000000000099
:10019000914100089541000840F0200070472DE98A
:1001A000F14FB2B09A4601A8914600230691C0E9EA
:1001B00000333C9A0F930DF14A0114914A7009E003
:1001C000329823464A4604A900F09EFF002800F119
:1001D0002081A14499F80000252808D1002100229F
:1001E00009910A920B910C920D910E920FE001AAC7
:1001F0004FF0FF31484601F031F8040002D10F986A
:1002000000F0E4BDDCD50124E3E741F0010119F879
:10021000010F2028F9D023280CD02B2804D02D281A
:1002200005D0302809D00BE041F00201EFE741F0A2
:100230000401ECE741F00801E9E741F01001E6E7CD
:100240002A280FD1DAF8002052F8040BCAF800204F
:100250000028119003D54042119041F0040109F1AA
:10026000010914E01192DFF8E83A0AE01198984287
:1002700005DA00EB800402EB4402303A119209F1F6
:10028000010999F80020A2F130000A28EED399F86C
:1002900000002E2803D04FF0FF32109229E019F809
:1002A000010F2A2809D1DAF8000050F8042BCAF807
:1002B0000000109209F101091BE02D280CBF09F183
:1002C0000109002000221092DFF8842A0BE040B9D7
:1002D000109B934205DA03EB830504EB4504303CA5
:1002E000109409F1010999F80040A4F130030A2B98
:1002F000EDD3ADF848100FF65C2099F8001000F02F
:10030000B7FF08B119F8010B8DF84A009DF84A00B3
:10031000682805D199F8000068280CD1622106E010
:100320006C2804BF99F800006C2804D171218DF865
:100330004A1009F1010922A8089019F801BBBBF184
:1003400025012DD01C3900F02681091F022940F219
:1003500022810E392AD0491F00F03484093900F077
:100360001A81891E00F0C784491E00F07684491E58
:10037000022940F21081091F00F06F84491F00F02C
:100380007F80491E00F01E84491E65D0C91E21D001
:10039000891E00F01784C91E00F0148400F0C8BC48
:1003A0000122099225218DF888102AE06C208DF811
:1003B0004A00DAF8000050F8042BCAF80000002ABE
:1003C00043D11499487800283DD04FF0FF340FF600
:1003D0008C1012E09DF84A006C28EAD0DAF8000090
:1003E00050F8044BCAF800000794D4B9149948781F
:1003F00098B14FF0FF340FF6801000F053FF201A31
:1004000007D1329822AA04A900F0E3FC00287FF566
:10041000E1AE4FF0FF3000F0D9BC0FF67810079036
:10042000EFE7109D002D04D5204600F05BFF044649
:1004300007E02A46204600F071FF002814BF041B85
:100440002C460A94DDE70FF65012329804A900F00A
:1004500046FD0028D5D5DCE7DAF8001051F8040B8A
:10046000CAF8001020F00004002121F0FF35CDE98A
:10047000044522AB0793782104A800F090FDC0E763
:100480001499487820B14FF0FF340FF61010B4E7FC
:100490009DF84A00622862D0682819D06A2840D0A6
:1004A0006C2806D071284DD074282DD07A281ED003
:1004B00064E0DAF8001051F8040BCAF8001020B913
:1004C0004FF0FF340FF6EC0097E70F99016098E7C3
:1004D000DAF8001051F8040BCAF8001020B94FF0F8
:1004E000FF340FF6D00088E70F99018089E7DAF82A
:1004F000001051F8040BCAF800100028E5D14FF0A5
:10050000FF340FF6B00078E7DAF8001051F8040B6A
:10051000CAF800100028D8D14FF0FF340FF694002D
:100520006BE7DAF8001051F8040BCAF8001020B994
:100530004FF0FF340FF67C005FE70F9AD317C0E946
:1005400000235EE7DAF8001051F8040BCAF8001037
:100550000028F2D14FF0FF340FF658004DE7DAF8DB
:10056000001051F8040BCAF8001020B94FF0FF3406
:100570000FF6400041E70F99017042E7DAF80010EA
:1005800051F8040BCAF8001000289ED14FF0FF3438
:100590000FF6200031E7DAF80000C31D9DF84A008D
:1005A00023F007034C28CAF80030D3E9000107BF45
:1005B0000833CAF8003003F10804CAF80040CDE956
:1005C0000401C80F02D009982D210AE0BDF84800A7
:1005D000810702D509982B2103E0C00705D50998AA
:1005E000202122AB1954401C099022A80999DDE969
:1005F000044543184BF020006128079315AE0BD03B
:100600001098002802D50620109005E001BF4BF09D
:100610002000672801211091DDE904014F007F15BA
:1006200017F1010F11D108030FD0ABF161020320C4
:100630001A2A0A9002D20FF6003101E00FF6FC21CF
:100640000322184600F096FEDBE617F1010F0AD1EF
:10065000090308D1ABF1610203201A2A0A9018D3CA
:100660000FF6E021ECE7DDE904016A4600F0D6FE72
:10067000CDE904014BF02000612811D10798302109
:100680000170821C0792BBF1610F0CBF78215821C9
:1006900002E00FF6AC21D3E741700998801C099065
:1006A000DDE9040120F0000231F0004308BF002A18
:1006B00002D10025002446E14BF02008B8F1610F7B
:1006C00040F095801098002847BF21210391401CDD
:1006D0000390039F7F1C2046294600220023DDE96A
:1006E000044500F0D3FE38BF85F0004500998DF831
:1006F0005420091F002F00910DF1550034DD0646EE
:10070000204629460022002300F0DAFE2BD21C22CC
:1007100000F0F0FE04460D4600F08AFFFF1F002F98
:10072000804609DD00F0A0FF02460B462046294620
:1007300001F062F804460D46F01D0721B8F1000FE4
:100740000CDD491E5EBF08F00F0200F8012D4FEAD4
:100750002818F3D502E0002200F8012D491EFAD531
:10076000C61D002FCCDC30460DF15501401A03990F
:100770000DF1550605468842C8BF0D46002D2FD401
:10078000854206DA0DF15500415D0829A8BF0F200A
:1007900000DA0020294615AA0A4400E06D1E12F86E
:1007A0000139491E8342F9D00F2804D10DF15500BB
:1007B000425C521C4254002904D50098001D15AE1D
:1007C0006D1C0090681E0BD431180A783032D3B2F9
:1007D0003A2BA4BF5A443A3A401E01F80129F4D5F5
:1007E0001098002840F1AE80691E1091AAE000998F
:1007F000DFF8042947F29750414391FBF2F200924F
:1008000025F00045C2F10702002A04DD20462946F2
:1008100000F04FFC0BE052420020DFF8E01800F03F
:1008200048FC02460B462046294601F057F804468C
:100830000D46B8F1660F06BF009F0A3706271098CD
:100840003F18142FC8BF142730208DF85400002003
:10085000DFF8AC18CDE920010DF15506002F33DD8E
:100860002046294601F05EF901460A4606F10803D2
:1008700004200A26B2FBF6F606EB860EA2EB4E0229
:10088000303203F8012C0A22B6FBF2F202EB820EA0
:10089000A6EB4E063036401E03F8026DE9D1083F44
:1008A000002F03F10806D9DD084601F04DF9024694
:1008B0000B462046294600F09FFFDDE9202301F08A
:1008C00051F904460D46CBE70DF15500301A0DF1F4
:1008D000550604E00099491E401E0091761C3178AF
:1008E0003029F7D0B8F1660F02D10099491C04E015
:1008F000B8F1650F0CBF01210021109D4D19A842D0
:10090000B8BF451E002D1DD4854204DA705D342821
:10091000C8BF392000DC30202946721E531800E081
:100920006D1E13F80149491E8442F9D0392802D1BD
:10093000705C401C7054002904D50098401C164679
:100940006D1C0090009C00F08DFC406A0778DDF87B
:10095000408028B2002802DC01250FF2EC764BF033
:100960002000662808BF641C16D0672846D120B234
:1009700010F1040F48DB404546DA9DF84800641C3E
:10098000010703D428B24045D8BF804620B2B8EB57
:10099000000848BF4FF000080FFA84FB07980A9937
:1009A000BBF1000F00F3B3804A1C0A92302343547A
:1009B000B8F1000F03DC9DF84800010704D50A9840
:1009C000411C0A9107990F5418EB0B0FB8BFC8F1DF
:1009D000000424B26042A0442AB20D909045B8BFF2
:1009E0004546079B0A982DB20B952A463146184476
:1009F00000F0C0FCA8EB05000E90CCE0BBF1610F4D
:100A000017D14FF0700B19E028B2404504DA9DF879
:100A100048100A0758BF8046B8F1010848BF4FF098
:100A20000008BBF1670F14BF4FF0450B4FF0650B8B
:100A300004E0BBF1410F08BF4FF0500B0A98411C76
:100A40000A91B8F1000F079916F8012B0A5403DC3C
:100A50009DF8480001071AD50A98411C0A91B8F17F
:100A6000000F07990F5412DD6D1E28B28045B8BFE4
:100A7000454607980A9B2AB23146184400F07AFC92
:100A80000A992DB269180A91A8EB05000D900798F4
:100A90000A99084421B2002980F800B003D42B221F
:100AA0004270821C04E02D2242700C46821C64427B
:100AB00000211FAB20460AE004460A2094FBF0F018
:100AC00000EB8005A4EB450403F8014B491C00B280
:100AD0000028F1DC012906DC4BF02000652804BF6A
:100AE000302002F8010B00291FAB08D1302002F89A
:100AF000010B06E0491E585C303002F8010B00295A
:100B0000F8DC07990A980844121A0B9243E008444B
:100B100029B222B2914219DA2AB2314600F02AFCF7
:100B20000A992DB269180A91ABEB0500B8F1000FD4
:100B30000D9003DC9DF84800020704D50798475440
:100B40000B99491C0B91CDF8388024E0314600F018
:100B500011FC0A982D1B5844B8F1000F0A9003DCD1
:100B60009DF848100A0703D5411C0A9107990F54B4
:100B700028B28045B8BF454607980A9B2AB206EBC3
:100B80000B01184400F0F6FB0A982DB228180A90C1
:100B9000A8EB05000D909DF8480000F01400102807
:100BA0007FF42FAC099A0A990D988A180B9982182C
:100BB0000E988A18821811988242BFF622AC821AC7
:100BC0000C921EE49DF84A00622808D068280ED0D6
:100BD0006A2814D06C281FD0712810D01CE0DAF8D5
:100BE000001051F8040BCAF80010C0B21AE0DAF88D
:100BF000001051F8040BCAF8001080B212E0DAF8C5
:100C00000000C21D22F00702CAF80020D2E900014C
:100C10000832CAF8002006E0DAF8001051F8040B98
:100C2000CAF800100021CDE904019DF84800010731
:100C30005AD5DDE90423002B08BF002A54D04BF01D
:100C40002000782850D1099822A930220A54401C4B
:100C5000431C099301F800B046E09DF84A00622861
:100C600008D068280ED06A2814D06C281FD07128AC
:100C700010D01CE0DAF8001051F8040BCAF800108C
:100C800040B21AE0DAF8001051F8040BCAF800106C
:100C900000B212E0DAF80000C21D22F00702CAF822
:100CA0000020D2E900010832CAF8002006E0DAF894
:100CB000001051F8040BCAF80010C117CDE9040167
:100CC000002902D509982D210AE0BDF848008107C6
:100CD00002D509982B2103E0C00705D509982021EA
:100CE00022AA1154401C099022A809990144079195
:100CF0005946FFF7C1BB9DF84A006C2809D0012175
:100D00000991DAF8000050F8041BCAF80000FFF758
:100D10004ABBDAF8000050F8041BCAF8000015912D
:100D20004FF0FF3210920021169115AAFFF78DBBEC
:100D300001212522BBF1000F09918DF888203FF495
:100D400060AB022209928DF889B0FFF75ABB000010
:100D5000CBCCCC0C686A6C747A4C00007072696EF3
:100D600074665F733A2062616420256C732061723F
:100D700067756D656E7400007072696E74665F737E
:100D80003A2062616420257320617267756D656E1B
:100D90007400000000000000000000007072696E26
:100DA00074665F733A20256E20646973616C6C6FA2
:100DB000776564007072696E74663A2062616420BF
:100DC000256E20617267756D656E740033B0BDE885
:100DD000F08F2DE9FC410F46064690467A6B786904
:100DE000396ABC6A121AB869521A796A121AF86911
:100DF000521A121A97F83800141B41070FD42020FA
:100E0000002C8DF800000ADD254601236A4639468C
:100E1000304600F079F900285DD16D1EF5D17B696F
:100E200042463946304600F06FF9002853D1302051
:100E30008DF800003D6A002D09DD01236A46394620
:100E4000304600F061F9002845D16D1EF5D1BB692F
:100E5000FA683946304600F057F900283BD1302077
:100E60008DF800007D6A002D08DD01236A463946B1
:100E7000304600F049F970BB6D1EF6D1F868B969CB
:100E8000FB6942183946304600F03EF918BB302065
:100E90008DF80000BD6A002D08DD01236A46394641
:100EA000304600F031F9B0B96D1EF6D197F8380030
:100EB00041070DD52020002C8DF8000008DD01230E
:100EC0006A463946304600F01FF920B9641EF6D153
:100ED0000020BDE8F6814FF0FF30BDE8F6812DE936
:100EE000F8470D46A3B02F6B82469046002F48BFAF
:100EF0006FF0004700F00BFF696B401801AA00215A
:100F0000C2E90011812828BF4FF0FF3044D2894642
:100F10001EE0A74230DB6869201881280BD300212E
:100F2000696303AA29465046FFF753FF5FEA0009A9
:100F300022D40020686103AB6E6922466946981985
:100F400000F018FAA6196E6158F8040BA0B13F1B07
:100F5000002F11DDD8F8001001AA684600F080F9D2
:100F60000446002C05D4D8F800000028D1D1641E16
:100F7000CFD54FF0FF390EE0B9F1000F504604D144
:100F800003AA2946FFF725FF8146B9F1000F02D1D8
:100F9000002068616863484624B0BDE8F0872DE909
:100FA000FC4707468A463C6950466F2808BF08251B
:100FB00005D0FFF7F1F8782814BF0A251025D7E9E6
:100FC00000013C2680468946BAF1640F18BFBAF189
:100FD000690F05D1002903D5D8F1000869EB49094B
:100FE000B9F1000F08BFB8F1000F0CD1386B50B940
:100FF000082D3AD197F83800010736D530223B2624
:1010000084F83B2031E08DF800A0404649462A464E
:10101000EB1700F081FE3032D0B2761E3A280196EE
:101020000EDAA255404649462A46EB1700F074FEF8
:1010300080465FEA010908BFB8F1000F05D108E05A
:101040009DF800001218513AEBE7F868A1198842A0
:10105000DBD3082D09D197F83800010705D5A05D2D
:10106000302802D0761E3020A055C6F13C02BA616D
:10107000A119F960386B824208DA821A3A624FF697
:10108000EF70398F01403987BDE8F38700280ED50E
:1010900097F8380000F01400102808D17B6B7969AC
:1010A000386A5B1A1B1A9A1A002AC8BF3A62BDE84E
:1010B000F3872DE9D04306460F4614464FF000084B
:1010C000DFF8409012E0E00707D542464B46304635
:1010D000394600F047FD06460F464046494642461F
:1010E0004B4600F03FFD641080468946002CEAD153
:1010F00030463946BDE8D083A08601000000F03FAD
:1011000084D7974100002440F8B505460E4617469F
:101110001C4600205CB117F8011BB068A847B060FE
:1011200030B1F06A401CF0620020641EF3D1F2BDC1
:101130004FF0FF30F2BD00006E616E004E414E0078
:10114000696E6600494E46003000F0B402461068F1
:1011500095681318506803EB5004C00748BF4D440E
:10116000A3422DD013F8016B16F0030004BF13F84F
:10117000010BC01C31090F2907D113F8011B0F31D6
:1011800003E013F8017B05F8017B401EF9D100292B
:10119000E6D013F8010BC6F38106032E08BF13F83F
:1011A000016B00EB0620404228440026B71E8F4208
:1011B0001EBF10F8017B05F8017B761CF6D1CFE746
:1011C000F0BC02F10C007047FFE741381A2880415B
:1011D000C00F7047A0F10901052901D3202801D1D2
:1011E0000120704700207047A0F141011A2938BF43
:1011F000203070471C48704770B45368D41801E021
:101200005B1C491E042B08DA00291FBF057804F86F
:10121000015B10F8016B002EF2D1536070BC704777
:1012200038B514461D4661B1FFF7E6FF61686A6B89
:10123000204690476FF00102811A02D0491E01D06A
:1012400001E003E005E00021616032BD6FF00100C4
:1012500032BD4FF0FF3032BDDA6B1047024BDFE793
:10126000014BF9E7014870474800002010000020BA
:10127000C9B202788A421AB11CBF10F8012FF9E7EF
:1012800018BF00207047B1F5807F02D34FF0FF30C8
:1012900070470170012070470078401E8041C043B4
:1012A000C00F704780B500B906A005490B681BB197
:1012B00022220021984701E000F0B1FD222002BD6A
:1012C00088030020636F6E73747261696E742068A6
:1012D000616E646C65723A20626164206D6573733F
:1012E0006167650000F10103810704D010F8011B5C
:1012F000820781B1FAD10268A2F10131914311F064
:10130000803104BF50F8042FF6E709BAB1FA81F131
:1013100000EBD100401CC01A70473B00C9B28307E4
:1013200006D0521E22D310F8013B9942F7D11FE09C
:10133000083A13D302F1040241EA012141EA0141D2
:1013400050F8043B121F21BF4B40A3F1013C2CEA93
:10135000030C1CF0803FF3D0C9B2001F083210F814
:10136000013B521E28BF91EA030FF8D818BF012095
:10137000401E704762B38B0708D0521E11F8013B24
:1013800000F8013B00F024808B07F6D1830740F082
:10139000208000BF103A07D330B4B1E83810103ABB
:1013A000A0E83810F9D230BC530724BFB1E80810C8
:1013B000A0E8081044BF51F8043B40F8043BD207B2
:1013C00024BF31F8022B20F8022B44BF0B780370A6
:1013D0007047121F17D35B0009D151F8043B20F866
:1013E000023B1B0C121F20F8023BF6D20BE051F817
:1013F000043B00F8013B1B0A20F8023B1B0C121FA8
:1014000000F8013BF3D238BF121D521E24BF11F861
:10141000013B00F8013BF8D870472E0010B5144688
:1014200000F002F8226010BDC1F30A5343B14A0034
:1014300012F5001F28D2A3F2FE32A1EB0251704731
:1014400050EA410C20D001F0004C31EA0C01B1FA15
:1014500081F204BFB0FA80F3D2180B3AB2F1200344
:101460002CBF00FA03F1914041EA0C013EBFC2F1EA
:10147000200C20FA0CF319439040524240F2FD3305
:10148000D21A01EB035170470022704741EA030C66
:1014900050EA4C0C52EA0C0C4FF4001C09D307D054
:1014A0001CEB410F9CBF1CEB430F8B4208BF8242D9
:1014B00070471CEB430FFBD8994208BF904270471E
:1014C00041EA030C50EA4C0C52EA0C0C4FF4001C9D
:1014D00009D307D01CEB410F9CBF1CEB430F994273
:1014E00008BF904270471CEB410FFBD88B4208BFEE
:1014F00082427047124254D440F2FF7C1CEA1153DE
:101500000FD0634531D09B1863453CBF01EB0251BE
:10151000704701F0004141EA0C510020AFF3008018
:10152000704750EA410320D001F0004C91EA0C01D1
:101530001CD0B1FA81F30B3B9A420DD9D21A9940D3
:1015400051EA0C01C3F1200C20FA0CFC61449840D4
:10155000531C40F2FF7CD7E7914041EA0C01C2F1F5
:10156000200C20FA0CF3194390407047B0FA80F336
:101570001533202BE0D3202AEED3203A203B9A4289
:1015800009D9D21A00FA03F141EA0C010020531CD8
:1015900040F2FF7CB8E700FA02F141EA0C010020BA
:1015A0007047524240F2FF7C1CEA11530DD0634554
:1015B000DBD0B2EB030C3CBFA1EB025170470CF146
:1015C000010221EA035141F4801150EA410CCCD0D0
:1015D00001F0004C352A27DC30B481EA0C01B2F16D
:1015E000200309DAC2F12003044601FA03F5D040D2
:1015F0002843D1409C400CE0C3F12002450020FA72
:1016000003F418BF44F0010421FA03F091400C43A5
:10161000002174F1004550F1000051EB0C0124420F
:1016200030BC7FF47BAF70476146002076E7430013
:10163000C1F30A5340F21E42D31A0CDDCA0283F3EF
:10164000070342EA505242F00042DA4002EBE172F4
:1016500082EAE17070476FEAE17203F2E13008B1AB
:1016600082F000407047000010F0004160B148BFB8
:101670004042B0FA80F29040D21CC2F5846241EA46
:10168000025202EBD021400570470000841A71EB32
:10169000030604D26E40001BB141121973414FF48E
:1016A000001C1CEB410F34BF7CEB430683E00C0DA8
:1016B000A4EB1356362E00F37C80012E45EAC3239B
:1016C00041DC43EA525312BFD20292025B08240566
:1016D00045EAC12141EA5051D2EBC020994125D4BD
:1016E00007D1B0FA80F610FA06F162D00020203659
:1016F00008E0B1FA81F6B140C6F1200220FA02F208
:101700001143B0404FEAF474B4EB465434F0010690
:101710004FEA74040AD8D6F50016760D04F000449A
:10172000F04061FA06F25040F1404840C00A40EAF9
:10173000415021F0004128BF5FEA500550F1000000
:1017400044EBD12135E0DB0A45EAC121C90AB6F1F3
:1017500020050EDD42EA0242120CC5F1200603FA12
:1017600006F6EB4042EA06056D42984161F1000140
:101770000DE062FA06F5F240554063FA06FC82EA93
:101780000C02F3405A406D42904161EB030111F4A9
:10179000801F05D1641E620502D06D0040414941A1
:1017A00021F48011430875F1004350F1000041EB32
:1017B000045170BC70471CEB410F15D223F000435D
:1017C00052EA43060BD04FEA4C0CBCEB410F04D855
:1017D0000C0D661E342EB7DDEBE7801A994150EAF6
:1017E000410608BF0021E4E708BF1CEB430F28BFF8
:1017F0006FF00001DDE7000070B491EA030F4FF0D5
:1018000000457FF543AF6B40841A71EB030603D2AA
:10181000001BB141121973414FF4001C1CEB410F26
:1018200034BF7CEB430442E00C0DA4EB1356352E81
:101830004FDC45EAC323DB0A45EAC121C912B6F1F0
:1018400020050DDD63FA05F6EB4086EA030512423A
:1018500018BF45F00105C01851F100010CD213E08A
:1018600062FA06F5F2405540F3415A40B340F34066
:101870005A408018594107D349085FEA30005FEAAF
:10188000350528BF45F0010501F58011420875F1C5
:10189000004250F1000041EB04514E0016F5001FCC
:1018A00070BC38BF70470020090D090570471CEB5C
:1018B000410F10D252EA43060BD0BCEB410F05D8C2
:1018C0000C0DAB43661E342EB6DD02E0AB43801830
:1018D000594170BC704770BC70470000F0B540F2D1
:1018E000FF7581EA030C0CF0004C15EA11541DBF82
:1018F00015EA1357AC42AF42E5E0BC41C1F3130116
:10190000C3F31303801A994143F4801304D2641E75
:101910000018494180185941C90241EA5051B1FBB0
:10192000F3F603FB1611A2FB0675D7EBC020A94105
:1019300002D2761E80185941C90241EA5051B1FBCA
:10194000F3FE03FB1E11A2FB0E75D7EBC020A941CD
:1019500003D2AEF1010E80185941890241EA90513B
:10196000760546EA8E2EB1FBF3F603FB1611A2FBB9
:101970000675D7EB8020A94102D2761E8018594106
:10198000C90241EA50514EEA060EB1FBF3F603FBE1
:101990001611A2FB0675D7EBC020A94102D2761E14
:1019A00080185941C90241EA5051B1FBF3F703FBDA
:1019B0001711A2FB0735D3EBC020A94167F100073F
:1019C0000CBF004247F0010766F3D5274FEA1E31EE
:1019D000B80814F5806412DDBD0775F1004250EBC4
:1019E0000E5051EB045111F5801F5CBF41EA0C0110
:1019F000F0BD4CF07F6141F0E0410020F0BDBD073B
:101A00006D0840EA0E5041F48011D4F10104B4F1A4
:101A100020060ADAC4F120060200E04001FA06F3CB
:101A2000E1401843B24015430EE0342C13DCC6F1FC
:101A3000200445EA40056D0820FA06F2154321FA14
:101A400006F0A1400D43002175F1004250F1000065
:101A500051EB0C01F0BD00205FEA0C01F0BDCFB9E5
:101A600092185B41B3FA83F704BFB2FA82F6BF194A
:101A70000B3FB7F120062FBF02FA06F3BB40C7F1B8
:101A8000200622FA06F638BF3343BA401CB1E419E7
:101A9000641E33E77F4231F00041B1FA81F404BFA4
:101AA000B0FA80F6A4190B3CB4F120062FBF00FA5F
:101AB00006F1A140C4F1200620FA06F638BF3143F2
:101AC000A0403C1B1AE7AC421ABF05EA1357AF42CD
:101AD00012E050EA41061CBF52EA4306BFE750EA53
:101AE0004107304661461CBF41EA0551F0BD52EA4C
:101AF000430C08BFC143F0BD00204FF4001616EBA5
:101B0000410F98BF16EB430F08BF16EB410F24BFE0
:101B1000C14305E016EB430F0CBF61464CEA05518B
:101B2000F0BD0000400D40F21E4C40EAC120BCEB6D
:101B3000115C40F0004003D48CF30701C8407047AB
:101B40006FEAE1707047000050B1B0FA80F1884050
:101B5000C91CC1F58461090501EBD021400570471E
:101B60000146704730B540F2FF7C1CEA11541DBF9E
:101B70001CEA1355644565453FE0641981EA030C8E
:101B80006FF35F530CF0004C43F48013C90241F033
:101B9000004141EA505EC5021100A5FB0202002887
:101BA0004FF00000EEFB01204FF00001E3FB0521A8
:101BB00018BF42F00102401800214941E3FB0E0129
:101BC000A4F580640D0302D292184041494154F1BA
:101BD000010470DD450872F1004250F1000051EB44
:101BE0000451A1F5801102D441EA0C0130BD40F24C
:101BF000FF7E4CEA0E51002030BD0CEA13556445BF
:101C000018BF654581EA030C0CF0004C41D050EA46
:101C1000410E1CBF52EA430E02E06146002030BD77
:101C200024422C441BD15FEA050EF6D0090302BF03
:101C300001460020AEF1140EB1FA81F5AEEB0504B9
:101C400001FA05FE0C35C5F1200100FA05F5C84082
:101C50004EEA000E6FF35F5343F480139CE733F0BA
:101C60000043B3FA83F504BFB2FA82FE75440B3D1C
:101C7000641BB5F1200E2FBF02FA0EF3AB40C5F185
:101C8000200E22FA0EFE38BF43EA0E03AA40641C5F
:101C90007CE750EA410E14BF52EA430E6FF0000198
:101CA0004FF4001515EB430F8EBF194615EB410F8E
:101CB0009DE7B4D830BDD4F10104B4F120050FDAAA
:101CC000C4F12005520828BF42F0010210FA05FEB7
:101CD00001FA05F57244E2BFE0402843E1400FE01D
:101CE000352C9ADCC5F1200452EA400220FA05F2B4
:101CF00018BF42F0010231FA05F0A1400A43002169
:101D000072F1004250F1000051EB0C0130BD80B582
:101D1000FFF770FA006C02BDD3BBD9B1B2F5803FBA
:101D20005BD2022A1ED98C46B1FBF2F102FB11C331
:101D30001B0443EA1043B3FBF2FC02FB1C3380B2EA
:101D400040EA0343B3FBF2F002FB103240EA0C40DE
:101D500000237047022A05D98446B0FBF2F002FB4B
:101D600010C270474AB105D100F0010249085FEA8C
:101D70003000704700220023704700F053B80B007A
:101D80000200002100207047F7D300220023704793
:101D9000904271EB030CF2D370B5B1FA81F4B3FA4F
:101DA00083F52C1BA340C4F1200532FA05F633431A
:101DB000A2405FF00046E64002E05B085FEA3202C4
:101DC000841A71EB030524BF204629467641F4D3DB
:101DD00002000B003000002170BD70B5B1FA81F433
:101DE000B2FA82F5C4F120046419B4F12006DAD302
:101DF000B2405FF00044F440002502E052085FEA80
:101E00003303C61A71EB020E24BF3046714664419B
:101E10006D41F3D302000B002000290070BD0120AA
:101E200000F002B87047000080B500F007F8024AE1
:101E300011001820ABBEFBE72600020010B500F031
:101E40003BF8020000230024E4431068A04203D0C2
:101E500011000220ABBE13605068A04203D0111DD8
:101E60000220ABBE536010BDF0B583B0040000F09B
:101E700023F8A10047183D680026F643B54216D165
:101E8000AFF300803D68B5420FD100BF09A00090BC
:101E9000002C01D1002000E00420019003200290DA
:101EA00069460120ABBE05003D60AFF3008028000D
:101EB00003B0F0BD3A74740000487047D8000020A9
:101EC0002DE9F8418BB000F0D7F900F05EF914224B
:101ED0000021684600F0EAF9002005904FF2100555
:101EE000D548DFF858830168D54CD64ED64F41F01F
:101EF00010010160026802F01002059200220599AB
:101F00000592036843F004030360016801F00401D3
:101F100000F032F943F080030360016801F08001B2
:101F200000F02AF943F001030360016801F00101A8
:101F300000F022F943F002030360016801F002019E
:101F40000591059905920821036843F00803036091
:101F5000006800F0080005900598404600F087FAF8
:101F600000220121204600F082FA00222946304654
:101F700000F07DFA0420002100900191029140467A
:101F8000694600F09DF9082100910122002102918B
:101F9000039101926946404600F092F932200021F7
:101FA0000090029101976946404600F089F90121AD
:101FB000009101912046002102910391694600F0B1
:101FC0007FF900F0DEF8082000F0CFF8204600F09E
:101FD00077F9012100910197002102919B4F6946F9
:101FE000384600F06DF900F0CCF8102000F0B6F89B
:101FF000384600F065F900F0C4F84FF4A05000F046
:10200000B4F8934800F05CF90120019000F0B9F8B1
:1020100000956946304600F053F900F0B2F84FF4ED
:10202000A45000F09BF8204600F04AF9202000213F
:102030000090019102913046694600F041F900227A
:102040000021062000F054FA062000F06EFA814CC0
:1020500081488249A065E1650020206600214FF497
:102060008040A0666166E16621676167A16704F14F
:10207000580000F085FA04F1AC0579482864002185
:102080007F20A86469640020FF2128656865A86531
:10209000E96404F1EC0000F01FFB724820604FF48B
:1020A000827161600A2000224FF40071E062A26038
:1020B000E26022616261A161E26122626262A26207
:1020C000204600F099FB1022002107A800F0EEF84E
:1020D0001422002102A800F0E9F808220021684635
:1020E00000F0E4F86048286600216966A966E966A0
:1020F00029676967A96704F58674204600F0BEFB6E
:102100004FF48050079007A9204600F0D6FB00212D
:1021100002910391204602A900F021FC00210091C8
:1021200001912046694600F005FD504828604FF4B3
:10213000E13169600C20002268614FF44071AA60AF
:10214000EA602A61A961EA61284600F02FFD00F0EB
:10215000DDFD00F071FF00F0F3FDFAE702210090D1
:102160000191062204926946704702210090019174
:102170000522049269467047059105990592036806
:102180007047002202920392704780B598B03022C7
:10219000002106A800F08AF81422002101A800F00E
:1021A00085F81822002112A800F080F80020009085
:1021B0002F48016841F0805101600021006800F063
:1021C0008050009000982B4800910921026842F449
:1021D000404202604FF4A022006800F440400090AA
:1021E00000980691079201210B9102224FF4800181
:1021F0000D910C92C0210F91042208210E92109291
:10220000119106A800F03EFF022102910F204FF429
:10221000A05101900022049103920592032101A88C
:1022200001F0BAF802214FF400721291169212A82E
:1022300001F058F919B000BD3038024000100240DA
:1022400000080240000C0240000011100000024093
:1022500000040240E000002000540040A08601007D
:102260000028004000300140000001400010014003
:10227000403802400070004080B50B48016841F4CE
:1022800000710160026842F480620260016841F4FA
:1022900080710160032000F01EF9002001F0C6F9F2
:1022A00001F0E4F9002002BD003C024010B50446F4
:1022B00010460A460146204601F0AAFA204610BD03
:1022C0002DE9F84F0D4600267349744A0F23044642
:1022D00001202F68B04000EA0708804540F0BB802D
:1022E0004FEA460C032707FA0CF76FEA070E6F68F0
:1022F000012F18BF022F03D0112F18BF122F12D198
:10230000A768D5F80C900EEA070709FA0CF949EA14
:102310000707A760676827EA00006F68C7F3001720
:10232000B74038436060E068AF680EEA000007FA23
:102330000CF73843E060B0006F68022F18BF122F0F
:1023400012D1F70804EB870700F01C09D7F820A08A
:1023500003FA09FB2AEA0B0AD5F810B00BFA09F9BF
:1023600049EA0A09C7F8209027680EEA070E2F7974
:1023700007F0030707FA0CF747EA0E0CC4F800C091
:102380006F68FF0067D5002700974FEA960CD2F8D8
:1023900000E04EF4804EC2F800E000F00C00176838
:1023A00007F480470097DDF800E03D4F57F82C70A8
:1023B00003FA00FE27EA0E0E3A4FBC4208BF002780
:1023C00013D0394FBC4208BF01270ED0374FBC4253
:1023D00008BF022709D0364FBC4208BF032704D0EC
:1023E000344FBC420CBF0427072707FA00F040EA2D
:1023F0000E00DFF8ACE04EF82C006FEA0800D1F8D0
:1024000000C06F6800EA0C0CFF0348BF48EA0C0CE0
:10241000C1F800C0D1F804C06F6800EA0C0CBF031B
:1024200048BF48EA0C0CC1F804C0D1F808C06F6876
:1024300000EA0C0CFF0248BF48EA0C0CC1F808C0C7
:10244000D1F80CC000EA0C0C6868800248BF48EA6A
:102450000C0CC1F80CC0761C0F2E7FF639AFBDE80E
:10246000F18F0069084018BF0120C0B2704702B95F
:1024700009048161704742690A408A4208BF090421
:10248000816170470C4A136801460B421CBF116002
:1024900001F0F1B970470000003C014044380240AF
:1024A00008380140000002400004024000080240D9
:1024B000000C024000100240143C014009010200DF
:1024C00002D4284881547047274B02F00F021A4467
:1024D00002F8041C7047254B19684FF6FF020002F2
:1024E000114000F4E0600843214908431860704738
:1024F00070B51E4B1C68C4F302230124C3F1070509
:10250000052D2EBF0F2504FA05F56D1E1E1D072E85
:1025100034BF0023DB1E2940994004FA03F3BDE8D1
:1025200070405B1E1A401143C8E7010007D4012226
:1025300000F01F010F4B8A40400943F820207047EC
:10254000401EB0F1807F01D3012070470A490B4A39
:1025500048600023F02010708B6007200860002086
:102560007047000000E400E018ED00E00CED00E032
:102570000000FA0500E100E010E000E023ED00E0DB
:10258000F8B5040022D004F13C05697821B9002097
:102590002870204601F086F82421697000F096F832
:1025A0002068016841F4004101602068026822F45B
:1025B0000042026000F076FF01466068DFF8F42018
:1025C000904205D2DFF8F030994205D20120F2BDE9
:1025D000DFF8E8008142F9D32068DFF8E43046688C
:1025E000B1FBF3F3B60943EA861646602668376AFC
:1025F0006068904206D34FF4967043434FF47A706C
:10260000B3FBF0F35B1CBF0943EA87133362491E37
:102610002368DE696768974206D27F0000F044F8BD
:10262000042913D2042111E0A06820B907EB470761
:1026300000F03AF805E01920474300F035F841F47E
:10264000804108050CBF012141F40041DFF874000E
:1026500006400E43DE6122681368E169206A23F0B8
:10266000C0030B43034313602268DFF85C009368E8
:1026700021690340E0680B43034393602268D368F9
:10268000A16960691B0A41EA03230343D360206800
:10269000016841F00101016000206860202169703B
:1026A00020630021A970F2BDB1FBF7F1491CC1F311
:1026B0000B017047A186010080841E0000093D00C7
:1026C00040420F000030FFFF007CFFFF20680268DF
:1026D000520852000260704738B5040031D0607F64
:1026E00020B900212177204601F009F800F03BF8DD
:1026F00053202168486200F047F8FF25E8B92168B7
:10270000DFF888008A6802408A60226893686068FF
:102710002169034360690B43034393602068E168C8
:10272000016120680169A26841EA0241016100F08B
:1027300020F808D400F026F828B12068456204216A
:102740006177012032BD2068016C21F48021016491
:1027500021680A6CA06902430A64012021684D6265
:102760006077002032BD02206077CA212268516262
:1027700070472068C16821F08001C16020688168CD
:1027800088067047204603E020461AE0BFFF8FFF0F
:1027900038B504462068C16821F0A001C16001F08D
:1027A0006BF805462068C168880608D401F064F813
:1027B000401B40F2E9318842F4D3032032BD0020AF
:1027C00032BD38B504462068C1684A0612D44FF0BD
:1027D000FF31C16001F050F805462068C168480625
:1027E00008D401F049F8401B40F2E9318842F4D3A3
:1027F000032032BD002032BD38B5040001D10120D4
:1028000032BD0020A06204F15005687820B9002193
:102810002970204600F07BFF0220687000F027F846
:102820006268A168E06823680A432169024360691D
:102830000A43A169024301F40071E0690A43216A75
:102840000243A06A0A4302431A60A169606A2268CF
:10285000090C01F00401014351602068C16921F4B1
:102860000061C161002068600121697032BD20688B
:10287000016821F0400101607047000038B5040094
:1028800001D1012032BD00F014F818B900F00DF8A4
:1028900000F063FFFFE702206870211D206800F050
:1028A0008AF801206870002032BD0021297020467E
:1028B000704704F13C056878704738B500F05EF861
:1028C00001D1022032BD0120207002226270DFF8A7
:1028D000D4012A689368034093600868020018BF17
:1028E00010282DD0202818BF302829D0402823D0E8
:1028F000502816D0602818D0702803D0B0F5005F9B
:1029000007D021E000F026F82868816841F07701BF
:1029100005E000F01FF82868816841F4804181607B
:1029200012E000F013F850210BE0CA6849682868EB
:1029300000F0D9F8602104E000F008F8402100E040
:102940000146286800F0E1F82FE00000CA684968F5
:102950002868B9E0CB684A6889682868DDE038B53E
:1029600000F00CF801D1022032BD00F00DF800B1EA
:1029700010E02868C16821F0400110E0054605F12B
:102980003C042078012870470120207002226270E8
:1029900028464DE0012060700021217032BDC160E9
:1029A0002868C16821F48041C16001206070002165
:1029B0002170002032BDF0B504683B4B3B4D3C4ECE
:1029C0003C4F984218BFB0F1804F04D0B8421CBFB2
:1029D000B042A8420CD14A6824F0700414439842D3
:1029E00018BFB0F1804F0ED0B84218BFB0420AD025
:1029F000A8421CBF304A904205D0304DA8421CBFAF
:102A00002F4A904203D1CA6824F4407414434A699F
:102A100024F080041443046098428C68C4620A68FD
:102A2000826202D10969274A116001234361F0BD26
:102A300010B5006884684B680A6824F070041C4371
:102A4000E40842EAC40484604C68402C0BD0502C4B
:102A50001CD0602C1FD0702C21D10B698A68C968EA
:102A600000F05BF81BE00A68052A01D1012010BDC7
:102A7000026A036A5B085B0003628369096923F0E9
:102A8000F00343EA01138361026208E00A6989687E
:102A900000F01AF803E00A69896800F024F80020C1
:102AA00010BD00008800FFFF00000140000C004046
:102AB0000008004000040040004001400044014084
:102AC000004801403000014010B5036A046A640800
:102AD0006400046223F00A03846924F0F00444EAE9
:102AE0000214846123E010B5036A23F0100303622B
:102AF0008369046A23F4704343EA023324F0A00498
:102B0000836144EA0114046210BD826822F07002FD
:102B1000114341F007018160704710B5846824F4C7
:102B20007F442143114341EA0321816010BD1943D1
:102B3000016210BD70B500F13C031A78012A01D181
:102B4000022070BD01221A7002245C7005686E6854
:102B5000AC680A6826F0700616436E6002680E487C
:102B6000824218BFB2F1804F0BD00C4882421CBF8A
:102B70000B4DAA4205D00B4882421CBF0A4DAA4207
:102B800004D1486824F08004044394600121597002
:102B90000020187070BD00000000014000040040DB
:102BA00000080040000C00400040014038B504001F
:102BB00001D1012032BD00F023F808B900F024F85B
:102BC00000F014F800F025F8FFE7416100F001F88B
:102BD00032BD2068C16841F40051C16000206860C6
:102BE000202169702020A870002070472420687080
:102BF0002068C16821F40051C160204600F013B87C
:102C000004F138056878704700212970204600F0EB
:102C1000B7BD2068016921F49041016120684169D4
:102C200021F02A017047D0B506461924326811698F
:102C3000F06821F44051014311616FF06307D368DC
:102C40002C48B168034030690B4371690343F06954
:102C50000B430343D3605169B06921F440710143D0
:102C60005161F36924482549B3F5004F1FD18A42C9
:102C700018BF824202D100F01DFC01E000F012FCFE
:102C80000246A4FB02017268D30F5200FFF744F81A
:102C900000F036F8FF0032376420B7FBF0F0420056
:102CA00002F4F87202EB011200F007001DE08A4204
:102CB00018BF824202D100F0FDFB01E000F0F2FB00
:102CC0000246A4FB02017268930F9200FFF724F8FA
:102CD00000F016F83F0132376420B7FBF0F000F047
:102CE000F00202EB011200F00F00316880188860DA
:102CF000D0BD0000F369FFFF001401400010014047
:102D00006421B0FBF1F107FB0107704780B500F0CB
:102D1000C4FDDFF8F40200F0D1FD55A000F0CEFDB7
:102D200054A000F0CBFDDFF8E412002048604FF41F
:102D30008071BDE80440DFF8D80200F0C9BD000092
:102D40002DE9F84FDFF8C452DFF8C4626868C0F5B7
:102D500080716A46304400F0A2FD0099002904BF4A
:102D60002878002800F081800021297000246968FB
:102D700000984118696000E0641C305D0D2818BFA0
:102D80000A2801D08C42F7D38C426ED2002C6CD42E
:102D900000F0FEFD07464FF000084FF0FF320FF243
:102DA000D0090FF2702A1BE05B1C0A2B26D3391DB9
:102DB000304651F80B20904788B1504600F07EFD18
:102DC000304600F07BFD00BF94A000F077FD07EBDC
:102DD0000B00083000F072FD484600F06FFD4246DF
:102DE000482000FB08FB57F80B10B1B112F1010F9E
:102DF00013D130780B7898420CD10123F05C202855
:102E000018BF0A281CBF0D280028D0D011F803C015
:102E10006045C9D008F10108E2E75CB112F1010F89
:102E200008D16868032805D37EA000F047FD484616
:102E300000F044FD6868641C071B002203E0315D5C
:102E4000B154521C641C8442F9D3B2F5807F04D281
:102E5000C2F58071B01800F0C5FD380018BF012020
:102E600028706F6003A000F029FDBDE8F18F00001D
:102E70000D0A00003E20000070B504460025002623
:102E8000002001E0761C1D46B14208D004E06B1C16
:102E9000655D202DF6D01D46B5F5807FF7D3B5F5DD
:102EA000807F01D1102070BD156070BD7FB500F02E
:102EB00050F80099615C0646002001AA04E0115414
:102EC000401C00994118615C0A2918BF0D2918BFE0
:102ED000202901D00828F2D3082808BF102607D0DF
:102EE000310005D10021115401A800F020FE2880F6
:102EF000304604B070BDF8B500F02BF8002638BBA2
:102F0000002100980818225C0020A2F130030A2B4F
:102F100038BFA2F130070DD3A2F14103062B38BF11
:102F2000A2F1370706D3A2F16103062B34BFA2F149
:102F30005707112010B9360156FA87F6491C0429A3
:102F400002D20028F6D1DCE7112808BF00202E802D
:102F5000F2BD00231546009304466A468CE73EB551
:102F60000446002500E050B9AA00C2F10C0224FA80
:102F700002F00DEB050100F00F0000F036F86D1CBB
:102F8000042DF0D300200DF8050000F02BF80020F0
:102F90003EBD30B500240125002802D50124404261
:102FA0000225034600E06D1C93FBF2F3002BFAD1DF
:102FB0004B556D1E90FBF2F302FB13003030485569
:102FC00018462B465D1E002BF4D10CB12D20087045
:102FD00030BDE0B50A226946FFF7DBFF00F002F8DA
:102FE00000200EBD684600F069BC024600200A2A97
:102FF00038BF303204D3A2F10A03062B02D2373293
:103000000A70704710207047283E00087C0300209B
:103010002C0200204572726F723A200048656C7075
:103020003A200000436F6D6D616E64206E6F7420F6
:10303000666F756E642E000070B501210E480F4C4E
:10304000FFF70FFA78B900F017FC0D4E054630680F
:10305000281AB0F5FA7F0ED34FF480512046FFF7BF
:103060000AFA356070BD2046BDE8704000224FF47A
:103070008051FFF7FCB970BD00000240000C024017
:10308000840300202DE9F843040016D02078DFF8EF
:10309000F862C10713D5B06800F00C00042807D00F
:1030A000B06800F00C0008283DD1706841023AD5A4
:1030B0003068810303D56068002800F05F812078C4
:1030C000B24F810719D5B06810F00C0F07D0B06867
:1030D00000F00C0008285BD17068410258D43068B9
:1030E000810703D5E068012840F0488131682069F4
:1030F00021F0F80141EAC00131602178080779D553
:103100006069A349002868D001220A6000F0B4FB7E
:103110000546706F81076DD400F0AEFB401B02289E
:10312000F7D903202DE16068B0F5803F04D1306805
:1031300040F48030306011E0B0F5A02F306806D147
:1031400040F480203060316841F4803105E020F4A3
:1031500080303060316821F480213160606858B17E
:1031600000F08AFB054630688103A8D400F084FB98
:10317000401B6528F7D3D4E700F07EFB0546306896
:1031800081039CD500F078FB401B6528F7D3C8E786
:10319000E068A8B10121396000F06EFB0546306897
:1031A000810705D400F068FB401B0228F7D9B8E777
:1031B0003068216920F0F80040EAC10030609CE7E7
:1031C000386000F059FB05463168880795D500F056
:1031D00053FB401B0228F7D9A3E7086000F04CFB23
:1031E0000546706F810705D500F046FB401B02289D
:1031F000F7D996E72078410760D5306C0025C100EB
:103200000BD4002000900125316C41F080513164D5
:10321000306C00F0805000900098DFF87881D8F88A
:103220000000C10513D4D8F8000040F48070C8F83D
:10323000000000F021FB8146D8F80000C10506D44B
:1032400000F01AFBA0EB09000228F5D969E7A06895
:10325000012805D00528306F06D140F00400306702
:10326000306F40F0010005E0400840003067306FEB
:1032700020F00400306741F28938A06860B100F0A6
:10328000FBFA8146306F810713D400F0F5FAA0EB0A
:1032900009004045F6D344E700F0EEFA8146306F6E
:1032A000810706D500F0E8FAA0EB09004045F6D307
:1032B00037E71DB1306C20F080503064A0690028E1
:1032C0005ED0B16801F00C0108293AD002282AD159
:1032D0000020386600F0D0FA05463068810105D537
:1032E00000F0CAFA401B0228F7D91AE7E069216A00
:1032F000626A0843A16A490840EA8210491E40EA0E
:103300000140E16A40EA016070600120386600F027
:10331000B3FA04463068810132D400F0ADFA001BE4
:103320000228F7D9FDE60020386600F0A5FA044629
:103330003068810124D500F09FFA001B0228F7D9DC
:10334000EFE601281AD07068E26900F4800191422A
:1033500002BF00F03F01226A91420FD147F6C071CF
:10336000626A0140914202BF00F44031A26A914278
:1033700002BF00F07060E16A884201D0012000E0E5
:103380000020BDE8F28300BF003802400000474241
:10339000800E4742007000402DE9F04104000F46C6
:1033A00054D0494E306800F00F00B84202D200F00D
:1033B00073F84BD12068454D810712D5400703D5DE
:1033C000A96841F4E051A9602078010703D5A868F5
:1033D00040F46040A860A968A06821F0F0010143B2
:1033E000A9602178C80729D56068012802D1296819
:1033F0008A0305E0022818BF032803D129688A013F
:1034000003D423E029688A0720D5A968890840EAFF
:103410008100A86000F030FA8046A868616800F07A
:103420000C00B0EB810F09D000F026FAA0EB0800E9
:1034300041F289318842F0D303202BE0306800F05C
:103440000F00874204D200F027F801D0012021E0CC
:103450002078410705D5AA68E06822F4E0520243CB
:10346000AA602178080706D5A968206921F460417F
:1034700041EAC001A96000F061FBAA681449154B3C
:10348000C2F30312895CC84018601348006800F05A
:10349000CDF80020BDE8F0813770316801F00F01F0
:1034A000B94270470B480D4A006813680C49C3F3D2
:1034B000822206E00748094A006813680849C3F3F6
:1034C0004232895CC8407047003C024000380240EC
:1034D000783F00080C000020080000200838024057
:1034E000A8400008F8B50546DFF82441287810F018
:1034F000050F22D0DFF81C610020306000F0BCF91D
:1035000007462168080106D500F0B6F9C01B02285D
:10351000F7D90320F2BD6868A968EA6800F06FF87F
:10352000306000F0A9F906462168080105D400F0D2
:10353000A3F9801B0228F7D9EBE72878810756D535
:1035400000200090216C344F41F080512164206CA8
:1035500000F0805000900098396841F48071396023
:1035600000F08AF906463868C10505D400F084F9F0
:10357000801B0228F7D9CCE7206F10F440701EBFE3
:10358000296901F44071884219D0206F2349012232
:103590000A6000230B6020F440702067206FC10791
:1035A0000DD500F069F90646206F810707D400F0B9
:1035B00063F9801B41F289318842F5D3A9E7296973
:1035C00001F44070B0F5407F07D1A268144822F49E
:1035D000F81201401143A16003E0A06820F4F81044
:1035E000A060206F2969C1F30B0108432067287888
:1035F000010702D5287D0B4908600020F2BD40EA92
:103600008110094940EA02700860012070470000FB
:10361000003802406800474200700040400E4742B8
:10362000FFFCFF0FE01147428438024038B50D4DD2
:103630000D4B2A7804464FF47A711868B1FBF2F208
:10364000B0FBF2F0FEF77CFF50B9102C08D200223C
:1036500021464FF0FF30FEF74BFFAC60002032BD3B
:10366000012032BD000000200C00002082B00020AC
:10367000009000225B48416841F48041416041680C
:1036800001F48041009100990092036843F0805357
:103690000360006800F0805000900098072002B09E
:1036A000FEF719BF10B586B000F051F821684E48FA
:1036B000814222D100224D4C00921222206840F01B
:1036C00002002060216801F0020100914FF41071A6
:1036D000009847480191029201210391032204219D
:1036E00000F030F800200090216941F400112161C0
:1036F000206900F400100090009806B010BD00682A
:103700003C49884202D13C4801220260704710B512
:1037100086B000F01CF821683848814210D100F0D2
:103720004BF841F480514161416901F480510091AD
:1037300000990092E02100F044F8052100F002F821
:1037400006B010BD0591049201A9FEF7B9BD04466B
:103750001422002101A8FEF7A9BD81B00068294903
:1037600088420BD1002226480092016841F00101F5
:103770000160006800F001000090009801B07047FF
:1037800010B586B0FFF7E3FF21681F48814211D1D1
:1037900000F012F841F010014161416901F010019F
:1037A0000091009900924FF4F05100F00AF80721BF
:1037B000FFF7C8FF06B010BD00220C480092416917
:1037C0007047036843F0010303600222006800F0C1
:1037D0000100009000980D48019102920021039190
:1037E0000322704740380240005400403038024005
:1037F00000040240002800403C0E474200300140D7
:103800004438024000000140001001400000024026
:1038100062F30F2262F31F42401810F0030308D036
:10382000C91A1FD3DB0748BF00F8012D28BF20F8B5
:10383000022D130030B414461546103928BF20E974
:103840003C00FAD8490728BF20E90C0048BF40F8DF
:10385000042D890028BF20F8022D48BF00F8012D53
:1038600030BC7047C91818BF00F8012DCB0728BF1E
:1038700000F8012D7047704701484068704700BF4D
:103880000000002080B500F089F918B1BDE80140C2
:1038900000F086B94FF0FF3002BD00207047F8B548
:1038A00004460D461646002701E0E0557F1CFFF751
:1038B000E9FFAF42F9D337600020F2BD80B5014681
:1038C00002A000F06FF9002002BD00002573000087
:1038D000002200F07BB90000002070472DE9F04184
:1038E00000242CA50FF2B0082D4F48266643641C17
:1038F000B859FFF7E3FF4046FFF7E0FFB81908307B
:10390000FFF7DCFF2846FFF7D9FF052CEDD3002099
:10391000BDE8F0811CB56A460121FFF7C7FA040033
:1039200015D100BF1FA0FFF7C9FFBDF90000FFF7C9
:1039300050FB00BF1FA0FFF7C1FFBDF80000FFF75D
:103940000EFB16A0FFF7BAFF12A0FFF7B7FF204645
:1039500016BD00001CB56A460121FFF7CCFA040031
:103960000AD100BF15A0FFF7A9FFBDF80000FFF7BF
:10397000F6FA08A0FFF7A2FF204616BD80B500BFEB
:1039800012A0FFF79BFF03A0FFF798FF002002BDE6
:10399000034870470D0A0000203A2000290000006B
:1039A000283C0008506172616D657465722069730E
:1039B0002000000020283078000000005061726173
:1039C0006D65746572206973203078005265757377
:1039D00061626C65436F646520302E302E302E316D
:1039E000000000000022FFF717BF00002DE9F84F8C
:1039F00084B00E4617460BB100221A600446A0465A
:103A000001E008F1010898F8000000F0F8F800283B
:103A1000F7D198F800002D2816BF2B2818F8015B65
:103A20002B25002F019603D4012F01D0252F03DB76
:103A3000002E55D0346053E0002F0CDD102F04BF52
:103A400098F80000302802BF98F8010040F02000EC
:103A5000782811D10CE098F80000302818BF0A2708
:103A60000AD198F8010040F02000782803D11027EF
:103A700008F1020800E00827CDF80C8001E008F109
:103A8000010898F800003028F9D0064E7E4414361C
:103A90004FF0000906F12800CDF80880CA468DF8DD
:103AA00000000BE0340300009DF80010401ACA46E5
:103AB0005FFA80FB07FB09B908F1010898F80000DC
:103AC00000F0A7F801463A4606F12800FDF726FC6B
:103AD0000028E9D10399414504D1019800B104605F
:103AE000002020E00299F05DA8EB0101081A0028EF
:103AF00010D406DCB9EB0B0103D3B1FBF7F0504552
:103B000008D0AFF30080049808B1012101604FF0A4
:103B1000FF3903E02D2D08BFC9F10009019808B154
:103B2000C0F80080484605B0BDE8F08F03E0FFE72D
:103B30000A220021FAE7002358E7000030B5144CB0
:103B4000606800F00C00042802D0082802D01DE0B4
:103B5000104830BD226820680023410202F03F0275
:103B600004D525680B49C5F3881003E020680A498D
:103B7000C0F38810A1FB0001FEF7CEF82168C1F365
:103B80000141491C4900B0FBF1F030BD024830BD95
:103B90000438024000127A000024F400002070472C
:103BA000002070470EB4C0B5024603A80021019062
:103BB000009101AB0121044878440C30FCF7EFFA86
:103BC00006BC5DF810FB00BFA904000000B500BFF3
:103BD000130096469446103928BFA0E80C50FAD836
:103BE0005FEA417C28BF0CC048BF40F8042BC907DE
:103BF00028BF20F8022B48BF00F8012B00BD10B5EC
:103C00000446FDF7F7FA01462046096ABDE8104070
:103C1000084710B50446FDF7EDFA01462046896ACB
:103C2000BDE81040084700001A130008D938000802
:103C3000436F6D6D656E742120596F7520646F2020
:103C40006E656564206120737061636520616674D0
:103C50006572207468652073656D69636F6C6F6E43
:103C60002E20000000000000000000000000000006
:103C700098400008DD3800084C697374732074683C
:103C80006520636F6D6D616E647320617661696C30
:103C900061626C6500000000000000000000000090
:103CA0000000000000000000000000000000000014
:103CB0000000000000000000B04000087D3900084E
:103CC000476574207468652076657273696F6E202D
:103CD000737472696E67000000000000000000004D
:103CE00000000000000000000000000000000000D4
:103CF00000000000000000000000000000000000C4
:103D0000B440000815390008486F7720746F2067A9
:103D100065742061207369676E656420696E743113
:103D2000362066726F6D20706172616D73206C69F0
:103D300073743A20696E74202D3332310000000014
:103D40000000000000000000A040000855390008F5
:103D5000486F7720746F20676574206120686578EC
:103D6000207531362066726F6D2074686520706131
:103D700072616D73206C6973743A207531366820F6
:103D8000614231320000000000000000000000002D
:103D90000000000000000000000000000000000023
:103DA0000000000000000000000000000000000013
:103DB0000000000000000000000000000000000003
:103DC00000000000000000000000000000000000F3
:103DD000000000000000000000002115110E0D0C75
:103DE0000B0B0A0A09090909090808080808080844
:103DF0000707070707070707070707070700000068
:103E00003031323334353637383961626364656650
:103E10006768696A6B6C6D6E6F70717273747576BA
:103E20007778797A0000000057656C636F6D6520C4
:103E3000746F2074686520436F6E736F6C696E6178
:103E4000746F722C20796F75722067617465776169
:103E50007920746F2074657374696E6720636F6472
:103E60006520616E642068617264776172652E00FE
:103E700080B50D49794430310C4A7A442E32914252
:103E800003D00B49AFF3008002BD8DF80000012282
:103E90006946012000F00EF8012802D19DF80000CB
:103EA00002BD4FF0FF3002BD58C1FFF754C1FFF70C
:103EB0009000002080B5002802D400F003F802BD75
:103EC000002002BD80B5002901D1002002BD0128DB
:103ED00001D0022802D100F004F802BD00F011F870
:103EE00002BD30B583B00C0015000120FDF7BCFF0A
:103EF00000900194029569460520ABBE281A03B0D4
:103F000030BD18B583B003001400009301910294F2
:103F100069460520ABBE01221900201AAFF30080CC
:103F200004B010BD30B4002512E050F8042BD307C4
:103F300044BF4A44521E091F042942F8045BFAD2C6
:103F400013468C0744BF15809B1CC90748BF1D70D2
:103F500050F8041B0029E8D130BC70470448054ADA
:103F6000016841F4700101604FF00060106070471B
:103F700088ED00E008ED00E0000000000000000017
:103F8000010203040607080910B5074979441831EE
:103F9000064C7C44163404E00A68081D1144884726
:103FA0000146A142F8D110BD2C00000048000000DD
:103FB0004EF68851CEF20001086840F470000860A7
:103FC000BFF34F8FBFF36F8F4FF00170E1EE100A18
:103FD0007047000051FFFFFFAC020000E00000202E
:103FE0000000000067D1FFFFB0010000BA00000030
:103FF0000000002000F00DF8002801D0FFF7C4FFFA
:10400000AFF300800020AFF30080FDF759FF00F010
:1040100002F80120704700F001B80000074638465A
:10402000FDF702FFFBE700000548014603B46846C0
:1040300080F30988AFF30080FFF7BAFFFFF7DAFFDC
:10404000A5EDF5FE7047FEE7FEE7FEE7FEE77047E9
:104050007047704700F004B80120FEF713BA000063
:104060000248416802788A184260704700000020C8
:1040700038B504460D462846FFF7FAFEA84218BF99
:104080000024204632BD0000014880470148004717
:104090005D3F00082940000868656C700000000062
:1040A00075313668000000000000000001020304C2
:1040B00076657200696E7400FFF7FEBFFFF7FEBF02
:1040C000FFF7FEBFFFF7FEBFFFF7FEBFFFF7FEBF24
:1040D000FFF7FEBFFFF7FEBFFFF7FEBFFFF7FEBF14
:1040E000FFF7FEBFFFF7FEBFFFF7FEBFFFF7FEBF04
:1040F000FFF7FEBFFFF7FEBFFFF7FEBFFFF7FEBFF4
:10410000FFF7FEBFFFF7FEBFFFF7FEBFFFF7FEBFE3
:10411000FFF7FEBFFFF7FEBFFFF7FEBFFFF7FEBFD3
:10412000FFF7FEBFFFF7FEBFFFF7FEBFFFF7FEBFC3
:10413000FFF7FEBFFFF7FEBFFFF7FEBFFFF7FEBFB3
:10414000FFF7FEBFFFF7FEBFFFF7FEBFFFF7FEBFA3
:10415000FFF7FEBFFFF7FEBFFFF7FEBFFFF7FEBF93
:10416000FFF7FEBFFFF7FEBFFFF7FEBFFFF7FEBF83
:10417000FFF7FEBFFFF7FEBFFFF7FEBFFFF7FEBF73
:10418000FFF7FEBFFFF7FEBFFFF7FEBFFFF7FEBF63
:10419000FFF7FEBFFFF7FEBF43010001221008F04A
:1041A000050724F400661600080452FF01E31A1400
:1041B00014100100002E0C214C1148F302200001C4
:1041C0001003D5110008C90412E9046120439912B3
:1041D0000C4387123C21011007020401012C03004B
:1041E000207C04522C04211B610812D460F206C00A
:0541F00064A10161ACB7
:040000050800402986
:00000001FF
