:020000040800F2
:1000000038080020D52300084123000843230008B6
:10001000452300084723000849230008000000008A
:100020000000000000000000000000004B2300085A
:100030004D230008000000004F2300085123000852
:10004000FD230008012400080524000809240008F5
:100050000D240008112400081524000819240008A4
:100060001D24000821240008252400082924000854
:100070002D24000831240008352400083924000804
:100080003D24000841240008452400080000000029
:1000900000000000000000000000000049240008EB
:1000A0004D24000851240008552400085924000854
:1000B0005D24000861240008652400086924000804
:1000C0006D240008712400087524000879240008B4
:1000D0007D24000881240008852400080000000019
:1000E000892400088D2400089124000800000000E5
:1000F000000000000000000000000000952400083F
:1001000000000000992400089D240008A124000894
:1001100000000000000000000000000000000000DF
:10012000A5240008A9240008AD240008B124000873
:10013000B5240008000000000000000000000000DE
:10014000000000000000000000000000552300082F
:10015000B9240008BD240008C1240008C5240008F3
:10016000C9240008CD2400080000000000000000A1
:10017000000000000000000000000000000000007F
:1001800000000000D1240008000000000000000072
:10019000D5240008D92400082DE9FE4F05462C6817
:1001A000204600F037FB012840F0A28200F0BFFAA1
:1001B000002800F09D8200F0BAFA800203D52A6878
:1001C0004FF40011516100F0B2FAC00203D52A6861
:1001D0004FF48011516100F0AAFA400103D52A685A
:1001E0004FF08061516100F0A2FA800702D52A68C1
:1001F0000221516100F09BFA80000FD52A684FF070
:100200000051516104F588600168CA0706D4284688
:1002100000F0A4FB2868012100F000FB00F087FA41
:10022000C00149D52F6807F58866316801913268A9
:100230000092009820F02E0000900198810709D5C7
:100240000198C10744BF284600F084FB009840F0A5
:10025000020000900198010725D5009840F00800A1
:100260000090019841071BD5A86902280BD1286886
:10027000019901F4C021B1F5802F0CBF02210121A9
:1002800000F0CCFA08E0E868012805D107F5806B9A
:100290004EF66021CBF80410284600F064FB02E023
:1002A000284600F064FB0198810603D5009840F0D1
:1002B000200000900098306000F039FA000705D562
:1002C000284600F043FB29680820486100F02FFA17
:1002D000800140F1CD81286800F0B8FA0023029433
:1002E000019000934FF4806B4FF0020811E080F80A
:1002F000008005E080F800803A6868F39F723A60F9
:100300000223BB600278284600F02CFB0098401CBA
:1003100000900098A968884280F0A6810099019811
:1003200001F00F01C840C007F0D50298009A9DF86F
:1003300000102F6800EB421000F5A0604FF400762B
:100340000068020440F1EE80894607EB491707F583
:10035000A067282010FB09F005EB000AB8684107E8
:100360000AF15C0402D500F0CFF92BE0B868C105B2
:1003700006D54FF48070B860072100F0CCF910E08A
:10038000B868810602D52020B8601BE0B868010774
:100390000BD500F0C1F9052161701020B86008216B
:1003A000B960494600F0CAF90CE0B868410509D5C2
:1003B00000F0B7F900F0C2F91020B86008216170B0
:1003C000C7F808B0B868810505D500F0AAF900F0B3
:1003D000B5F9BE609AE7B868C1073BD5286938B15E
:1003E000DAF848003969C1F31201401ACAF84C0022
:1003F000012060700021CAF85810B8609AF83F00D8
:10040000002818BF022818D0032807D1386840F008
:100410000050386001212170012209E0012812D129
:1004200020709AF8501081F001018AF8501022785B
:100430004946284600F096FA05E000F072F900F00F
:100440007DF91020B8609AF8500080F001008AF819
:1004500050005BE7B868810735D5F86820F00200E6
:10046000F8606078012814BF0528207026D006287F
:1004700018BF08280FD0032806D184F800803968F7
:1004800068F39F71396019E0072817D100F036F939
:100490000421217012E0DAF85800401C0428CAF840
:1004A000580005D30020CAF858000421217001E04B
:1004B00084F80080386868F39F7038600221B96062
:1004C000494622781FE7B86801060BD500F024F9E9
:1004D000062100F013F96170494600F02FF98020E1
:1004E000B86013E7B868C106FBD59AF83F00032847
:1004F00007D10020CAF85800F96841F00201F960FC
:100500000BE0002818BF02280AD10021CAF85810B1
:10051000286928B9032100F0FEF8494600F00EF9D9
:100520001020DDE707EB411707F5A067B868420721
:1005300002D500F0E9F8E9E62820BA6810FB01F0DE
:100540002C18920604F13C0304F15C000BD5202228
:10055000BA605A78012A05D100225A7080F80080CA
:1005600000F0E8F8D2E6BA68520608D5042084F80C
:100570005D0001225A7000F0E4F84020B0E7BA684C
:10058000920502D500F0C8F821E7BA68D60706D56B
:1005900000F0D7F80120B86084F85D00B6E6BA68CC
:1005A000160709D50820B860FA6842F00202FA601E
:1005B00000F0C4F80520EFE7BA68D6060ED5002093
:1005C000D861032684F85D605A78002A01BF187844
:1005D000002801225A7000F0ADF8A1E7BA681606AB
:1005E00007D500F0A7F8062084F85D008021B960E7
:1005F0008CE6BA68560509D500F09CF81020B86062
:10060000C7F808B0082184F85D107FE6BA6896073D
:10061000FBD5FA6822F00202FA6094F85D20012A04
:100620000AD10270DA78022A18BF032A03D15A7D50
:1006300082F001025A7563E6032A18BF042A3FF4C8
:1006400056AE052A08BF0270F5D0062A18BF082A40
:10065000F1D1DA69521C042ADA61FFF44BAE0022B0
:10066000DA610423037047E629684FF0007048619F
:1006700000F05DF8C0063BD52868816921F01001C3
:1006800081612868016A01F00F04C1F30A19C1F3FE
:1006900043410229064626D1B9F1000F23D0282173
:1006A00011FB04F16F18796CE9B14A4600F09EF82D
:1006B000786C4844786406EB4416F96C894406F576
:1006C000A066C7F84C9030690B4908420BD03068DF
:1006D00020F0804040F00040306097F8500080F0FB
:1006E000010087F850002868816941F0100181619C
:1006F000BDE8F78F000000000000F81FDAF858008E
:10070000401CCAF8580070470420B860F96841F0EE
:100710000201F96070476170F86840F00200F8600B
:100720007047F86840F00200F86049467047286852
:1007300000F06BB8F86840F00200F860286800F03C
:100740008AB80020D861FA6842F00202FA6028688C
:1007500000F081B8002084F8B80210BD044694F877
:10076000B80201287047012084F8B8022068704759
:1007700010B5FFF7F3FF01D1022010BDFFF7F3FF23
:1007800000F0A4F8E6E70EE002684368024408308F
:100790005FEAC37C44BF4B445B1E52F804CB43F872
:1007A00004CB091FF9D150F8041B0029ECD1704784
:1007B000890141F020010161DFF80C11491E03D0CD
:1007C00002699306FAD401E00320704700207047C5
:1007D00010210161DFF8F010491E03D00269D30631
:1007E000FAD401E0032070470020704710B5D21CF6
:1007F000002305E000F580545B1C246841F8044B9D
:10080000B3EB920FF6D3084610BD014648698969DB
:1008100008407047406900F00100704710B500F5CE
:10082000806001F00304026892089200026003688D
:1008300023430360012908BF4BF6803103D002290E
:1008400002D141F270714160002010BD00F580605E
:10085000406980B27047024610B502EB411303F5C0
:10086000A0631868C0F3814140F2E930002918BF45
:10087000022907D1196841F080411960D26A12F447
:100880007F0F08E0196841F08041196002F580642B
:10089000216911F47F0F11D1196821F0004119600D
:1008A0001A6842F000421A60196821F40041196088
:1008B000401E07D019680029FAD403E0186840F0F8
:1008C00000401860002010BD410D030070B50446C3
:1008D0001021A26852085200A2600025FFF768FFAD
:1008E0002046FFF775FF002000F02AF80A6822F082
:1008F000802242F0804210280A60F5D3002004EBE9
:10090000401101F5A0610A6822F4004242F0404221
:100910000A6040F2E9326D1C954202D20B68002B4E
:10092000F9D4401C1028EAD304F580664FF0FF305C
:1009300070616061A06840F00100A060002070BD9F
:1009400004EB401101F5A061401C7047D0F8C002D3
:1009500000F024B8D0F8C00200F034B8D0F8C002DB
:1009600000F03AB87047D0F8C00200F025B8D0F8CF
:10097000C00200F023B8BDE8024005E080B5D0F821
:10098000D003FFF7F5FEF6E70146002021B102296A
:1009900001D10120704702207047000000F55F710F
:1009A0008A6C521C8A6403780B2B04D109680029D5
:1009B0001CBF896908477047012100E0002180F8C9
:1009C0002313704700F54870012101700022427026
:1009D000002383700020704710B5044604F548706A
:1009E0000121417000220270C2702046FFF7C6FF4D
:1009F000217900F005F800F002F8002010BD6179BF
:100A0000204600F000B80B2907D200EB8100D0F897
:100A10008413C1F30E01C0F8841300207047000056
:100A20002DE9F843040016D02078DFF8F862C107FA
:100A300013D5B06800F00C00042807D0B06800F0AF
:100A40000C0008283DD1706841023AD53068810316
:100A500003D56068002800F05F812078B24F8107DD
:100A600019D5B06810F00C0F07D0B06800F00C007A
:100A700008285BD17068410258D43068810703D5DB
:100A8000E068012840F048813168206921F0F801D0
:100A900041EAC00131602178080779D56069A3492E
:100AA000002868D001220A6000F044F90546706F02
:100AB00081076DD400F03EF9401B0228F7D90320CE
:100AC0002DE16068B0F5803F04D1306840F480309B
:100AD000306011E0B0F5A02F306806D140F48020DE
:100AE0003060316841F4803105E020F480303060BE
:100AF000316821F480213160606858B100F01AF942
:100B0000054630688103A8D400F014F9401B65281D
:100B1000F7D3D4E700F00EF90546306881039CD581
:100B200000F008F9401B6528F7D3C8E7E068A8B1D2
:100B30000121396000F0FEF805463068810705D4D0
:100B400000F0F8F8401B0228F7D9B8E730682169AF
:100B500020F0F80040EAC10030609CE7386000F007
:100B6000E9F805463168880795D500F0E3F8401BA1
:100B70000228F7D9A3E7086000F0DCF80546706F9B
:100B8000810705D500F0D6F8401B0228F7D996E773
:100B90002078410760D5306C0025C1000BD40020BF
:100BA00000900125316C41F080513164306C00F0CF
:100BB000805000900098DFF87881D8F80000C105D7
:100BC00013D4D8F8000040F48070C8F8000000F09A
:100BD000B1F88146D8F80000C10506D400F0AAF8A3
:100BE000A0EB09000228F5D969E7A068012805D023
:100BF0000528306F06D140F004003067306F40F0B8
:100C0000010005E0400840003067306F20F004002C
:100C1000306741F28938A06860B100F08BF88146F6
:100C2000306F810713D400F085F8A0EB0900404530
:100C3000F6D344E700F07EF88146306F810706D591
:100C400000F078F8A0EB09004045F6D337E71DB176
:100C5000306C20F080503064A06900285ED0B1680C
:100C600001F00C0108293AD002282AD10020386668
:100C700000F060F805463068810105D500F05AF8AB
:100C8000401B0228F7D91AE7E069216A626A084323
:100C9000A16A490840EA8210491E40EA0140E16A1F
:100CA00040EA016070600120386600F043F80446B5
:100CB0003068810132D400F03DF8001B0228F7D9DA
:100CC000FDE60020386600F035F804463068810102
:100CD00024D500F02FF8001B0228F7D9EFE60128F1
:100CE0001AD07068E26900F48001914202BF00F0FE
:100CF0003F01226A91420FD147F6C071626A0140FA
:100D0000914202BF00F44031A26A914202BF00F05A
:100D10007060E16A884201D0012000E00020BDE857
:100D2000F28300BF0038024000004742800E474275
:100D30000070004001484068704700BF000000207C
:100D40002DE9F04186B000F077F900F0F8F81422B0
:100D50000021684600F08AF9002005904FF2100546
:100D6000A548DFF898820168A54CA64EA64F41F031
:100D700010010160026802F010020592002205993C
:100D80000592036843F004030360016801F0040165
:100D900000F0D0F843F080030360016801F08001A7
:100DA00000F0C8F843F001030360016801F001019D
:100DB00000F0C0F843F002030360016801F0020193
:100DC0000591059905920821036843F00803036023
:100DD000006800F0080005900598404600F027FAEA
:100DE00001220121204600F022FA00222946304645
:100DF00000F01DFA0420002100900191029140466C
:100E0000694600F03DF9082100910122002102917C
:100E1000039101926946404600F032F932200021E8
:100E20000090029101976946404600F029F901219E
:100E3000009101912046002102910391694600F042
:100E40001FF90121009101970021029169466F4825
:100E500000F016F901200190002202920392009501
:100E60006946304600F00CF92020002100900191E5
:100E700002913046694600F003F9654C65486649C1
:100E8000664FA065E1650020206600214FF4804098
:100E9000A0666166E16621676167A16704F1580099
:100EA00000F0E0F904F1AC055D4828600021012064
:100EB00028624FF40076A960E9602961A961E961BF
:100EC0006E606F61284600F079FA5648A8640021E8
:100ED0002965696529666966A966EE64AE65EF6590
:100EE00004F1F40000F06AFA04F59E704E490160C6
:100EF00000227F23FF2142608360C1600261426162
:100F0000826100F099FB4FF48271616000224748D2
:100F100020600A21A260E26022616261E2612262D5
:100F20006262A262E162A661204600F015FC00F058
:100F300055FCFCE70591059905920368704780B55B
:100F400098B0302200210CA800F090F81422002163
:100F500001A800F08BF81822002106A800F086F8FE
:100F6000002000903248016841F08051016000216A
:100F7000006800F08050009000982E4800910921F0
:100F8000026842F4404202604FF4A022006800F47C
:100F90004040009000980C910D9201211191022285
:100FA0004FF4800113911292C0211591042208215F
:100FB0001492169217910CA8FFF732FD02210291AC
:100FC0000F204FF4A051019000220491039205924A
:100FD000032101A800F028FCC821052208910792EE
:100FE0000320069002214FF4007209910A9206A88C
:100FF00000F0BAFC19B000BD3038024000100240C9
:1010000000080240000C02400000121000000240E4
:10101000D402002000540040A086010000770100A7
:1010200000380040003C00400028004000300140F3
:10103000403802400070004080B50B48016841F420
:1010400000710160026842F480620260016841F44C
:1010500080710160032000F060FD002000F0A4FD1D
:1010600000F0C2FD002002BD003C024010B5044665
:1010700010460A460146204600F0E8FE204610BD14
:101080002DE9F84F0D4600266E496F4A0F2304469E
:1010900001202F68B04000EA0708804540F0BB807F
:1010A0004FEA460C032707FA0CF76FEA070E6F6842
:1010B000012F18BF022F03D0112F18BF122F12D1EA
:1010C000A768D5F80C900EEA070709FA0CF949EA67
:1010D0000707A760676827EA00006F68C7F3001773
:1010E000B74038436060E068AF680EEA000007FA76
:1010F0000CF73843E060B0006F68022F18BF122F62
:1011000012D1F70804EB870700F01C09D7F820A0DC
:1011100003FA09FB2AEA0B0AD5F810B00BFA09F911
:1011200049EA0A09C7F8209027680EEA070E2F79C6
:1011300007F0030707FA0CF747EA0E0CC4F800C0E3
:101140006F68FF0067D5002700974FEA960CD2F82A
:1011500000E04EF4804EC2F800E000F00C0017688A
:1011600007F480470097DDF800E0384F57F82C70FF
:1011700003FA00FE27EA0E0E354FBC4208BF0027D7
:1011800013D0344FBC4208BF01270ED0324FBC42AF
:1011900008BF022709D0314FBC4208BF032704D043
:1011A0002F4FBC420CBF0427072707FA00F040EA84
:1011B0000E00DFF898E04EF82C006FEA0800D1F836
:1011C00000C06F6800EA0C0CFF0348BF48EA0C0C33
:1011D000C1F800C0D1F804C06F6800EA0C0CBF036E
:1011E00048BF48EA0C0CC1F804C0D1F808C06F68C9
:1011F00000EA0C0CFF0248BF48EA0C0CC1F808C01A
:10120000D1F80CC000EA0C0C6868800248BF48EABC
:101210000C0CC1F80CC0761C0F2E7FF639AFBDE860
:10122000F18F0069084018BF0120C0B2704702B9B1
:1012300009048161704742690A408A4208BF090473
:1012400081617047003C0140443802400838014049
:10125000000002400004024000080240000C02406E
:1012600000100240F8B5040022D004F13C05697872
:1012700021B900202870204600F0D2FC242169709A
:1012800000F096F82068016841F400410160206890
:10129000026822F40042026000F04CFB01466068E4
:1012A000DFF8F420904205D2DFF8F030994205D201
:1012B0000120F2BDDFF8E8008142F9D32068DFF8B1
:1012C000E4304668B1FBF3F3B60943EA861646609C
:1012D0002668376A6068904206D34FF4967043439D
:1012E0004FF47A70B3FBF0F35B1CBF0943EA87133A
:1012F0003362491E2368DE696768974206D27F0021
:1013000000F044F8042913D2042111E0A06820B9A8
:1013100007EB470700F03AF805E01920474300F0D3
:1013200035F841F4804108050CBF012141F400412A
:10133000DFF8740006400E43DE6122681368E1693D
:10134000206A23F0C0030B43034313602268DFF8D5
:101350005C00936821690340E0680B43034393609A
:101360002268D368A16960691B0A41EA0323034329
:10137000D3602068016841F00101016000206860CD
:101380002021697020630021A970F2BDB1FBF7F143
:10139000491CC1F30B017047A186010080841E0027
:1013A00000093D0040420F000030FFFF007CFFFFBE
:1013B000206802685208520002607047F8B50400C5
:1013C00053D004F14005687838B9002129700FF234
:1013D00061106063204600F050FC02206870DFF866
:1013E0003C612068C1693140C161022022681062FD
:1013F0006069022830D0E06800280CBF1027202741
:10140000A068212838BF7F00012000F03AFB014688
:1014100020690A22B0F5007F0ED16369E06820B12F
:10142000BF00B1FBF7F14A4303E0FF00B1FBF7F067
:101430004243B2FBF3F005E0B1FBF7F042436069D1
:10144000B2FBF0F0401D0A21B0FBF1F101F0010008
:10145000091A4908000201E0022100208A1EFE2A22
:1014600005D3686840F0100068600120F2BD0143B8
:1014700020692268014311622268D3696168A0680B
:1014800033400B43E1680343A0690B43034343F438
:101490000063D361206A01283AD1DFF88410DFF8B5
:1014A0008470DFF88420DFF8843061632068B842FC
:1014B0000CBF1846104601680E4006602668BE4202
:1014C0000CBF181D101D022101602668BE420CBF12
:1014D00018461046D0F800C06068B0F5007F16BF0F
:1014E00000284FF4807E4FF0000EA168E06841EACA
:1014F0000E010843A169084340F4006080B240EA4D
:101500000C00BE4208BF1A461FFA80FCC2F800C099
:101510000020686001216970F2BD000040F0FFFF0B
:1015200025200008003800401C4000401C340040CA
:101530001CB5044620688168009194F84120042A73
:1015400032D10099CA0712D541684A060FD5C06842
:1015500000F069F8608E50B92068416821F06001A0
:101560004160012284F84120204600F0A2FC00984E
:10157000410619D5206841688A0615D5416821F0D1
:1015800060014160002001902168CA680192896869
:1015900001910121019884F84110606C40F0020033
:1015A0006064204600F086FC94F84100032839D19D
:1015B0000098810719D5206841680A0615D5616A27
:1015C0000A88C260606A811C6162608D411E61850B
:1015D000608D50B92068416821F0A0014160012070
:1015E00084F84100204600F066FC0098010719D5F8
:1015F000206841688A0615D5416821F0A001416044
:10160000002000902168886800900120009984F8EB
:1016100041002046616C41F004016164BDE8164060
:1016200000F048BC13BDE16A0880E06A821CE262F7
:10163000608E411E6186704738B5040031D0607FEE
:1016400020B900212177204600F0ABFB00F03BF8E9
:1016500053202168486200F047F8FF25E8B9216867
:10166000DFF888008A6802408A60226893686068B0
:101670002169034360690B43034393602068E16879
:10168000016120680169A26841EA0241016100F03C
:1016900020F808D400F026F828B12068456204211B
:1016A0006177012032BD2068016C21F48021016442
:1016B00021680A6CA06902430A64012021684D6216
:1016C0006077002032BD02206077CA212268516213
:1016D00070472068C16821F08001C160206881687E
:1016E00088067047204603E020461AE0BFFF8FFFC0
:1016F00038B504462068C16821F0A001C160FFF739
:1017000019FB05462068C168880608D4FFF712FB5C
:10171000401B40F2E9318842F4D3032032BD00205F
:1017200032BD38B504462068C1684A0612D44FF06D
:10173000FF31C160FFF7FEFA05462068C168480620
:1017400008D4FFF7F7FA401B40F2E9318842F4D39E
:10175000032032BD002032BD38B5040001D1012084
:1017600032BD0020A06204F15005687820B9002144
:101770002970204600F01DFB0220687000F027F859
:101780006268A168E06823680A43216902436069CE
:101790000A43A169024301F40071E0690A43216A26
:1017A0000243A06A0A4302431A60A169606A226880
:1017B000090C01F00401014351602068C16921F462
:1017C0000061C161002068600121697032BD20683C
:1017D000016821F0400101607047000070B50121EF
:1017E0000E480F4CFFF71DFD78B9FFF7A3FA0D4E19
:1017F00005463068281AB0F5FA7F0ED34FF48051B1
:101800002046FFF718FD356070BD2046BDE87040EA
:1018100000224FF48051FFF70ABD70BD0000024066
:10182000000C0240300400202DE9F04104000F4676
:1018300054D0464E306800F00F00B84202D200F09B
:1018400073F84BD12068424D810712D5400703D56C
:10185000A96841F4E051A9602078010703D5A86880
:1018600040F46040A860A968A06821F0F00101433D
:10187000A9602178C80729D56068012802D12968A4
:101880008A0305E0022818BF032803D129688A01CA
:1018900003D423E029688A0720D5A968890840EA8B
:1018A0008100A860FFF746FA8046A868616800F0EA
:1018B0000C00B0EB810F09D0FFF73CFAA0EB080059
:1018C00041F289318842F0D303202BE0306800F0E8
:1018D0000F00874204D200F027F801D0012021E058
:1018E0002078410705D5AA68E06822F4E052024357
:1018F000AA602178080706D5A968206921F460410B
:1019000041EAC001A96000F0D7FAAA681149124B58
:10191000C2F30312895CC84018601048006800F0E8
:1019200043F90020BDE8F0813770316801F00F0104
:10193000B942704708480A4A006813680949C3F366
:101940008222FFE7895CC84070470000003C0240EB
:1019500000380240C02200080C00002008000020CF
:1019600008380240F4230008F8B50546DFF868415E
:10197000287810F0050F22D0DFF860610020306079
:10198000FFF7D8F907462168080106D5FFF7D2F915
:10199000C01B0228F7D90320F2BD6868A968EA686D
:1019A00000F092F83060FFF7C5F90646216808019B
:1019B00005D4FFF7BFF9801B0228F7D9EBE7287899
:1019C000810756D500200090216C454F41F0805191
:1019D0002164206C00F0805000900098396841F438
:1019E00080713960FFF7A6F906463868C10505D44D
:1019F000FFF7A0F9801B0228F7D9CCE7206F10F47D
:101A000040701EBF296901F44071884219D0206FCF
:101A1000344901220A6000230B6020F440702067E3
:101A2000206FC1070DD5FFF785F90646206F8107A6
:101A300007D4FFF77FF9801B41F289318842F5D343
:101A4000A9E7296901F44070B0F5407F07D1A26889
:101A5000254822F4F81201401143A16003E0A06878
:101A600020F4F810A060206F2969C1F30B0108432E
:101A700020672878010702D5287D1C4908600020CE
:101A8000F2BD0146002001291DD119494A68120200
:101A900019D40868174A410206D51368164803F09E
:101AA0003F03B0FBF3F105E01168144801F03F017A
:101AB000B0FBF1F11068C0F3881041431068C0F327
:101AC0000270B1FBF0F0704740EA8110094940EA2A
:101AD00002700860012070470038024068004742E9
:101AE00000700040400E4742FFFCFF0FE0114742EC
:101AF000043802408438024000127A000024F400C6
:101B00000901020002D4224881547047214B02F09F
:101B10000F021A4402F8041C70471F4B19684FF655
:101B2000FF020002114000F4E06008431B49084333
:101B30001860704770B5184B1C68C4F30223012469
:101B4000C3F10705052D2EBF0F2504FA05F56D1EFF
:101B50001E1D072E34BF0023DB1E2940994004FAC6
:101B600003F3BDE870405B1E1A401143C8E7401EF6
:101B7000B0F1807F01D3012070470949094A4860CC
:101B80000023F02010708B60072008600020704751
:101B900000E400E018ED00E00CED00E00000FA05C4
:101BA00010E000E023ED00E038B50D4D0D4B2A7834
:101BB00004464FF47A711868B1FBF2F2B0FBF2F010
:101BC000FFF7D5FF50B9102C08D2002221464FF064
:101BD000FF30FFF7AFFFAC60002032BD012032BD07
:101BE000000000200C00002082B0002000900022A5
:101BF0008B48416841F480414160416801F4804173
:101C0000009100990092036843F0805303600068DC
:101C100000F0805000900098072002B0FFF77DBFD1
:101C200010B586B000F0F5F821687E48814222D1D7
:101C300000227D4C00921222206840F002002060B9
:101C4000216801F0020100914FF41071009877486B
:101C500001910292012103910022042100F0D4F8A5
:101C600000200090216941F400112161206900F4F5
:101C700000100090009806B010BD10B586B0044664
:101C8000142200216846FFF7F1F92168684A694C7F
:101C90006548914238D100210591026942F48042A1
:101CA00002610022016901F4804100F070F80368CC
:101CB00043F004030360016801F0040100F067F8D9
:101CC0000421036843F0020303600222006800F06D
:101CD00002000590059800F05EF8204600F04CF8F0
:101CE0000022029203920820022100F04AF82046C6
:101CF000FFF7C6F900224FF4A0500221029203928E
:101D000000F03FF8494833E04B4A914232D100217C
:101D10000591026942F4004202610022016901F466
:101D2000004100F034F8036843F0010303600168E8
:101D300001F0010100F02BF81021036843F00403C7
:101D400003600222006800F00400059005983B48FB
:101D500000F021F800F010F800224FF4A450022106
:101D60000292039200900191062204926946204655
:101D7000FFF786F906B010BD062104916946FFF70A
:101D80007FB9009001910522049269467047059140
:101D900005990592704700910192002102910391EB
:101DA000704700682649884202D126480122026015
:101DB000704710B586B000F02CF8216822488142A7
:101DC00020D1002218480092416941F480514161BC
:101DD000416901F48051009100990092E02103686B
:101DE00043F0010303600222006800F0010000904C
:101DF00000981248019102920021039103220521CB
:101E000000F002F806B010BD0591049201A9FFF799
:101E100037B904461422002101A8FFF727B90000B2
:101E20004038024000540040303802400004024074
:101E30000038004000080240003C00400000024022
:101E4000002800403C0E47420030014062F30F2260
:101E500062F31F42401810F0030308D0C91A1FD3C1
:101E6000DB0748BF00F8012D28BF20F8022D130022
:101E700030B414461546103928BF20E93C00FAD882
:101E8000490728BF20E90C0048BF40F8042D89000D
:101E900028BF20F8022D48BF00F8012D30BC704744
:101EA000C91818BF00F8012DCB0728BF00F8012D75
:101EB000704770477047704730B5144C606800F049
:101EC0000C00042802D0082802D01DE0104830BDC4
:101ED000226820680023410202F03F0204D52568F1
:101EE0000B49C5F3881003E020680A49C0F3881045
:101EF000A1FB000100F010F82168C1F30141491C69
:101F00004900B0FBF1F030BD024830BD043802405A
:101F100000127A000024F400D3BBD9B1B2F5803F9F
:101F20005BD2022A1ED98C46B1FBF2F102FB11C32F
:101F30001B0443EA1043B3FBF2FC02FB1C3380B2E8
:101F400040EA0343B3FBF2F002FB103240EA0C40DC
:101F500000237047022A05D98446B0FBF2F002FB49
:101F600010C270474AB105D100F0010249085FEA8A
:101F70003000704700220023704700F051B80B007A
:101F80000200002100207047F7D300220023704791
:101F9000904271EB030CF2D370B5B1FA81F4B3FA4D
:101FA00083F52C1BA340C4F1200532FA05F6334318
:101FB000A2405FF00046E64002E05B085FEA3202C2
:101FC000841A71EB030524BF204629467641F4D3D9
:101FD00002000B003000002170BD70B5B1FA81F431
:101FE000B2FA82F5C4F120046419B4F12006DAD300
:101FF000B2405FF00044F440002502E052085FEA7E
:102000003303C61A71EB020E24BF30467146644199
:102010006D41F3D302000B002000290070BD0000C9
:1020200070470000F8B5044684B02168DFF82C72D0
:102030008868DFF82C52DFF82C620390B9420CBF9D
:10204000301D281D00680290B9424A6801920CBFF9
:1020500030462846036800936068B0F5007F18BFDB
:10206000002870D10398820712D5019802060FD577
:10207000606A821C62620088C860618D4A1E628547
:10208000608D28B900F0D0F8608E08B900F0DEF855
:102090000298C1071DD5009841061AD5E06A811C37
:1020A000E1622268BA420CBF06F1080105F108019D
:1020B000096800F0BFF860B92168B9420CBF30462A
:1020C0002846026822F060020260608D08B900F0C4
:1020D000BDF8029841061FD5009881061CD52068DE
:1020E000B8420CBF30462846016821F0600101600B
:1020F00000F09AF8002000902168CA680092896870
:1021000000910121009884F84110606C40F00200B9
:1021100060642046FFF7CEFE039801077CD5019846
:10212000810679D500F080F82068B84208BF3546AE
:10213000296821F0600129600020009021688868EA
:10214000009000995EE0029882071FD50098020671
:102150001CD5B9420CBF06F1080005F10800616A00
:102160008A1C626209880160608D421E6285608DF2
:1021700060B92168B9420CBF30462846026822F097
:10218000A0020260608E08B900F060F80398C107F1
:1021900010D5019841060DD5E06A811CE1622268E4
:1021A000D16800F047F828B900F038F8608D08B918
:1021B00000F04CF80398410614D50198810611D51A
:1021C00000F02CF82068B8420CBF30462846016861
:1021D00021F0A001016000F033F841F002016164D8
:1021E000FFF768FE0298010716D50098810613D5FF
:1021F0002068B84208BF3546296821F0A00129604F
:1022000000F00CF800F01CF841F00401616405B026
:10221000BDE8F040FFF74EBE05B0F0BD2068416854
:1022200021F06001416070472068416821F0A00101
:10223000416070470180608E421E6286608E7047EA
:10224000012084F841002046616C7047012184F828
:102250004110204600F008B800000000003800409F
:102260000440004004340040704730B4002512E0C0
:1022700050F8042BD30744BF4A44521E091F0429B7
:1022800042F8045BFAD213468C0744BF15809B1CAE
:10229000C90748BF1D7050F8041B0029E8D130BCA5
:1022A000704700000448054A016841F4700101606C
:1022B0004FF000601060704788ED00E008ED00E02E
:1022C00000000000000000000102030406070809E6
:1022D00010B5074979441831064C7C44163404E0A3
:1022E0000A68081D114488470146A142F8D110BD73
:1022F0002C0000004C0000004EF68851CEF2000188
:10230000086840F470000860BFF34F8FBFF36F8F11
:102310004FF00170E1EE100A704700004FFFFFFF21
:102320002404000010000020000000005BE4FFFF18
:1023300010000000B00000000000002000000000BD
:102340007047FEE7FEE7FEE7FEE77047704770471D
:1023500000F006B80148FDF71FBF00001000002084
:102360000248416802788A184260704700000020E5
:1023700000F00DF8002801D0FFF7AAFFAFF30080AE
:102380000020AFF30080FEF7DBFC00F002F8012034
:10239000704700F001B800000746384600F002F828
:1023A000FBE7000080B5AFF30080024A110018205F
:1023B000ABBEFBE7260002000548014603B46846B1
:1023C00080F30988AFF30080FFF796FFFFF7D0FF97
:1023D000A5EDF5FE0148804701480047A522000809
:1023E000B9230008010000000000000010000000F8
:1023F0000024F4000000000001020304FFF7FEBF08
:10240000FFF7FEBFFFF7FEBFFFF7FEBFFFF7FEBF00
:10241000FFF7FEBFFFF7FEBFFFF7FEBFFFF7FEBFF0
:10242000FFF7FEBFFFF7FEBFFFF7FEBFFFF7FEBFE0
:10243000FFF7FEBFFFF7FEBFFFF7FEBFFFF7FEBFD0
:10244000FFF7FEBFFFF7FEBFFFF7FEBFFFF7FEBFC0
:10245000FFF7FEBFFFF7FEBFFFF7FEBFFFF7FEBFB0
:10246000FFF7FEBFFFF7FEBFFFF7FEBFFFF7FEBFA0
:10247000FFF7FEBFFFF7FEBFFFF7FEBFFFF7FEBF90
:10248000FFF7FEBFFFF7FEBFFFF7FEBFFFF7FEBF80
:10249000FFF7FEBFFFF7FEBFFFF7FEBFFFF7FEBF70
:1024A000FFF7FEBFFFF7FEBFFFF7FEBFFFF7FEBF60
:1024B000FFF7FEBFFFF7FEBFFFF7FEBFFFF7FEBF50
:1024C000FFF7FEBFFFF7FEBFFFF7FEBFFFF7FEBF40
:0C24D000FFF7FEBFFFF7FEBFFFF7FEBFE7
:04000005080023B913
:00000001FF
