:020000040800F2
:1000000008060020E92E0008892D00088B2D000825
:100010008D2D00088F2D0008912D00080000000094
:10002000000000000000000000000000932D000808
:10003000952D000800000000972D0008992D00085C
:10004000312F0008352F0008392F00083D2F0008F8
:10005000412F0008452F0008A12D0008492F000856
:100060004D2F0008512F0008552F0008592F000868
:100070005D2F0008612F0008652F0008692F000818
:100080006D2F0008712F0008752F00080000000078
:10009000000000000000000000000000792F0008B0
:1000A0007D2F0008812F0008852F0008892F000868
:1000B0008D2F0008912F0008952F0008992F000818
:1000C0009D2F0008A12F0008A52F0008A92F0008C8
:1000D000AD2F0008B12F0008B52F00080000000068
:1000E000B92F0008BD2F0008C12F00080000000034
:1000F000000000000000000000000000C52F000804
:1001000000000000C92F0008CD2F0008D12F0008E3
:1001100000000000000000000000000000000000DF
:10012000D52F0008D92F0008DD2F0008E12F000887
:10013000E52F0008000000000000000000000000A3
:10014000000000000000000000000000E92F00088F
:10015000ED2F0008F12F0008F52F0008F92F0008F7
:10016000FD2F000801300008000000000000000022
:10017000000000000000000000000000000000007F
:100180000000000005300008000000000000000032
:10019000093000080D30000810B50400002C01D112
:1001A000012033E0A0690028FFD194F8390000282D
:1001B00005D1002084F83800200000F0C7FB24207F
:1001C00084F839002068C06830F400502168C860A5
:1001D000200000F038F92068006930F49040216870
:1001E00008612068406930F02A0021684861206871
:1001F000C06850F400502168C8600020E0632020EF
:1002000084F83900202084F83A00002010BD2DE940
:10021000FC4705000C0016001F005FF0000A95F86F
:100220003900202860D1002C03D0300080B2002893
:1002300001D1012059E095F83800012801D10220B0
:1002400053E0012085F838000020E863212085F87C
:10025000390000F0BFFB8146AE84EE84002085F8B3
:100260003800E88C00282FD0E88C401EE884A8686D
:10027000B0F5805F18D100974B46002280212800FE
:1002800000F0AAF8002801D003202EE0A046B8F81C
:100290000000C005C00D296848602869002801D108
:1002A000A41CDEE7641CDCE700974B46002280219B
:1002B000280000F091F8002801D0032015E02078F4
:1002C00029684860641CCCE700974B460022402117
:1002D000280000F081F8002801D0032005E020204C
:1002E00085F83900002000E00220BDE8F6872DE9FE
:1002F000FC4705000C0016001F005FF0000A95F88F
:100300003A00202865D1002C03D0300080B20028AC
:1003100001D101205EE095F83800012801D10220CA
:1003200058E0012085F838000020E863222085F895
:100330003A0000F04FFB8146AE85EE85002085F83F
:100340003800E88D00283FD0E88D401EE885A86879
:10035000B0F5805F1ED100974B4600222021280077
:1003600000F03AF8002801D0032033E0A0462869C5
:10037000002807D128684068C005C00DA8F8000013
:10038000A41CDEE72868406800F0FF00A8F8000021
:10039000641CD6E700974B4600222021280000F07D
:1003A0001BF8002801D0032014E02869002804D19C
:1003B000286840682070641CC3E72868406810F013
:1003C0007F002070641CBCE7202085F83A000020E4
:1003D00000E00220BDE8F6872DE9F04105000E009F
:1003E00090461F00069C286800683040B04201D14A
:1003F000012000E000204146C9B2884220D114F11A
:10040000010FF0D0002C04D000F0E4FAC01B8442AD
:10041000E9D22868C06830F4D0702968C8602868BC
:1004200040694008400029684861202085F839006B
:10043000202085F83A00002085F83800032000E0ED
:100440000020BDE8F0812DE9F84F0500286801691A
:1004500031F44051E868014328680161D5F80890FB
:10046000286950EA0909686950EA0909E86950EA07
:1004700009092868C168DFF85804014059EA0101F8
:100480002868C1602868416931F44071A869014356
:1004900028684161E869B0F5004F40F00D81286897
:1004A000DFF83014884205D02868DFF82C14884221
:1004B00040F0818000F042FB04007FF063081926C1
:1004C000002722000023A6FB020106FB031107FB05
:1004D00002116A6800235B0043EAD273520000F005
:1004E00047FB6421B0FBF1FB22000023A6FB0201C5
:1004F00006FB031107FB02116A6800235B0043EA55
:10050000D273520000F034FB824622000023A6FB87
:10051000020106FB031107FB02116A6800235B005E
:1005200043EAD273520000F023FB6421B0FBF1F0E8
:1005300008FB00A0C00032306421B0FBF1F04000A5
:1005400010F4F87010EB0B10834622000023A6FB7A
:10055000020106FB031107FB02116A6800235B001E
:1005600043EAD273520000F003FB824620000021D0
:1005700002000B00A6FB020106FB031107FB0211A0
:100580006A6800235B0043EAD273520000F0F0FA7D
:100590006421B0FBF1F008FB00A85FEAC80818F17D
:1005A00032086420B8FBF0F010F0070010EB0B00ED
:1005B0002968886088E100F0B6FA04007FF06308DB
:1005C0001926002722000023A6FB020106FB0311C7
:1005D00007FB02116A6800235B0043EAD2735200F2
:1005E00000F0C6FA6421B0FBF1FB22000023A6FB59
:1005F000020106FB031107FB02116A6800235B007E
:1006000043EAD273520000F0B3FA8246220000237C
:10061000A6FB020106FB031107FB02116A68002317
:100620005B0043EAD273520000F0A2FA6421B0FBEF
:10063000F1F008FB00A0C00032306421B0FBF1F003
:10064000400010F4F87010EB0B10834622000023DA
:10065000A6FB020106FB031107FB02116A680023D7
:100660005B0043EAD273520000F082FA8246200017
:10067000002102000B00A6FB020106FB031107FB91
:1006800002116A6800235B0043EAD273520000F053
:100690006FFA6421B0FBF1F008FB00A85FEAC8081C
:1006A00018F132086420B8FBF0F010F0070010EBEE
:1006B0000B002968886007E128688649884204D0D1
:1006C00028688549884240F0808000F037FA0400AD
:1006D0007FF063081926002722000023A6FB0201F1
:1006E00006FB031107FB02116A6800239B0043EA23
:1006F0009273920000F03CFA6421B0FBF1FB2200FF
:100700000023A6FB020106FB031107FB02116A6826
:1007100000239B0043EA9273920000F029FA82467C
:1007200022000023A6FB020106FB031107FB0211B6
:100730006A6800239B0043EA9273920000F018FA63
:100740006421B0FBF1F008FB00A00001323064210D
:10075000B0FBF1F010F0F00010EB0B10834622001C
:100760000023A6FB020106FB031107FB02116A68C6
:1007700000239B0043EA9273920000F0F9F982464D
:100780002000002102000B00A6FB020106FB031162
:1007900007FB02116A6800239B0043EA92739200F0
:1007A00000F0E6F96421B0FBF1F008FB00A85FEA75
:1007B000081818F132086420B8FBF0F010F00F00B0
:1007C00010EB0B00296888607EE000F0ACF90400B3
:1007D0007FF063081926002722000023A6FB0201F0
:1007E00006FB031107FB02116A6800239B0043EA22
:1007F0009273920000F0BCF96421B0FBF1FB22007F
:100800000023A6FB020106FB031107FB02116A6825
:1008100000239B0043EA9273920000F0A9F98246FC
:1008200022000023A6FB020106FB031107FB0211B5
:100830006A6800239B0043EA9273920000F098F9E3
:100840006421B0FBF1F008FB00A00001323064210C
:10085000B0FBF1F010F0F00010EB0B10834622001B
:100860000023A6FB020106FB031107FB02116A68C5
:1008700000239B0043EA9273920000F079F98246CC
:100880002000002102000B00A6FB020106FB031161
:1008900007FB02116A6800239B0043EA92739200EF
:1008A00000F066F96421B0FBF1F008FB00A85FEAF4
:1008B000081818F132086420B8FBF0F010F00F00AF
:1008C00010EB0B0029688860BDE8F18F0000000084
:1008D000F369FFFF001001400014014080B50020C3
:1008E00000903448016851F480410160006810F4C0
:1008F000804000900098002000902F48016851F03F
:1009000080510160006810F080500090009807202E
:1009100000F0BAFA01BD0168284A914202D10121D2
:10092000274A1160704781B00168264A91420BD175
:10093000002100911F490A6852F001020A6009680B
:1009400011F001010091009901B0704710B586B017
:1009500004001422002101A800F0CEFA20681A49F0
:10096000884225D1002000901348016851F40031DD
:100970000160006810F400300090009800200090A2
:100980001248016851F001010160006810F0010097
:10099000009000980C20019002200290012003900A
:1009A000032004900720059001A9094800F0AEFA41
:1009B00006B010BD443802404038024000280040D4
:1009C0003C0E4742000001400044004030380240E5
:1009D0000000024001480068704700BFF801002095
:1009E0002DE9F04104000D00002C01D1012095E01B
:1009F000584F386810F00F00A84207D23D70386891
:100A000010F00F00A84201D0012087E02078800775
:100A100016D52078400704D54F48016851F4E051BD
:100A200001602078000704D54B48016851F460410B
:100A3000016049490A6832F0F002A06802430A6086
:100A40002078C00738D56068012805D14348006880
:100A5000800313D4012061E06068022802D060683E
:100A6000032805D13D480068800107D4012055E0E6
:100A70003A480068800701D401204FE0DFF8D880B1
:100A8000D8F800108908890060680143C8F8001090
:100A9000FFF7A0FF0600D8F8000010F00C00616816
:100AA000B0EB810F08D0FFF795FF801B41F2893131
:100AB0008842F0D3032031E0386810F00F008542FF
:100AC00007D23D70386810F00F00A84201D0012015
:100AD00024E02078400706D51F490A6832F4E05226
:100AE000E06802430A602078000707D51A480168C9
:100AF00031F46041226951EAC201016000F042FB19
:100B00001749154A1268C2F30312895CC840154997
:100B100008601548006800F083FB0020BDE8F08104
:100B200010480068704780B5FFF7FAFF0F490A4A7E
:100B30001268C2F38222895CC84002BD80B5FFF70B
:100B4000EFFF0A49044A1268C2F34232895CC84086
:100B500002BD0000003C024008380240003802405C
:100B6000D82E00080400002000000020202F0008DC
:100B7000BBBBE1B1B2F5803F80F07E80022A1ED976
:100B80008C46B1FBF2F102FB11C31B0443EA104394
:100B9000B3FBF2FC02FB1C3380B240EA0343B3FB1D
:100BA000F2F002FB103240EA0C4000237047022AA8
:100BB00005D98446B0FBF2F002FB10C270474AB17F
:100BC00005D100F0010249085FEA300070470022B9
:100BD0000023704700F04ABB0B00020000210020F8
:100BE0007047904271EB030CF6D3B3F5803F2FD2E0
:100BF000F0B5B3FA83F7B1FA81F4A7F10F0E3D1BFC
:100C00005340CEF1200602FA0EF2F3415340B5F103
:100C10000F0746D80F3C2C444140C4F12006A040A9
:100C2000F1414140B1FBF3F603FB1611A2FB06456F
:100C3000001BA94102D2761E8018594180EA0102A8
:100C400021FA0EF362FA0EF200215A403046F0BD4E
:100C500030B4B1FBF3FC03FB1C11A2FB0C45001BE1
:100C6000A94103D2ACF1010C8018594130BC0246B5
:100C70000B46604600217047B2F1807F65D3F0B526
:100C8000B2FA82F7B1FA81F4C7F10F063D1B22FADE
:100C900006F307F1110EF24120355A40B5F10F0766
:100CA000B8D94140C4F12006A040F1414140B1FB18
:100CB000F3FC03FB1C11A2FB0C45001BA94103D252
:100CC000BCF1010C801859410F2F12D30F3FC903FB
:100CD00041EA5041B1FBF3F603FB1611A2FB0645B6
:100CE000D4EBC030A94102D2761E8018594146EAA1
:100CF000CC3C07B34140C7F12006B840F141414028
:100D0000B1FBF3F603FB1611A2FB0645001BA9413C
:100D100002D2761E8018594180EA010221FA0EF3B0
:100D2000C7F1200462FA0EF20CFA07F05A402CFACE
:100D300004F13043F0BD80EA010221FA0EF30021F4
:100D400062FA0EF260465A40F0BD8C46B1FBF2F1F9
:100D500002FB11C31B0243EA1063B3FBF2FC02FB6C
:100D60001C331B024CEA002043EA1063B3FBF2FC85
:100D700002FB1C331B024CEA002043EA1063B3FB66
:100D8000F2FC02FB1C331B024CEA002043EA106316
:100D9000B3FBF2FC02FB1C324CEA0020002370473C
:100DA00010B410F00703DFF8304122684FF6FF015E
:100DB0000A4052EA0322DFF824110A43226010BCE1
:100DC0007047DFF814010068C0F30220704701008B
:100DD00049B2002909D4012210F01F018A4040497C
:100DE00003005BB25B0941F82320704710B4020096
:100DF00052B2002A05D40A013A4B040064B21A55D3
:100E000008E00A01384B040064B214F00F042344D4
:100E100003F8042C10BC704770B4030013F00704EF
:100E2000D4F10700052801D3042001E0D4F1070024
:100E3000251D072D01D2002500E0E51E012616FA2A
:100E400000F0401E0140A94016FA05F56D1E2A402B
:100E50001143080070BC704710B50400601EB0F16B
:100E6000807F01D301200EE0601E204908600F2121
:100E70005FF0FF30FFF7BAFF00201D490860072030
:100E80001C490860002010BD10B504002000FFF7C9
:100E900087FF10BD2DE9F04104000D00160000276A
:100EA000FFF78FFF8046320029004046FFF7B4FF6E
:100EB0000100200040B2FFF799FFBDE8F08110B5B6
:100EC0000400200040B2FFF782FF10BD10B50400FF
:100ED0002000FFF7C1FF10BD0CED00E00000FA0597
:100EE00000E100E000E400E018ED00E014E000E0C4
:100EF00018E000E010E000E010B5044610460A4695
:100F00000146204600F0C8F9204610BDF8B5002380
:100F1000002400250026102E80F0E180012717FA1A
:100F200006F213000A681A4014009C4240F0D58073
:100F30004A68012A08D04A68022A05D04A68112A5C
:100F400002D04A68122A1BD1D0F808C05FF0030E05
:100F500072001EFA02FE3CEA0E0CD1F80CE07200A0
:100F60001EFA02FE5EEA0C0CC0F808C04268B740E8
:100F7000BA434F68C7F30017B7403A4315004560BE
:100F8000C7685FF0030C72001CFA02F29743D1F8B5
:100F900008E072001EFA02FE5EEA0707C7604A68B0
:100FA000022A02D04A68122A1AD13200D20800EB73
:100FB0008202126A0F255FEA860E1EF01C0E15FAD9
:100FC0000EF5AA430D695FEA860E1EF01C0E15FA97
:100FD0000EF52A4317003200D20800EB8202176296
:100FE000056872001CFA02FC35EA0C0591F804C091
:100FF0001CF0030C72001CFA02FC5CEA050505609B
:101000004A68D20069D500220092524A176857F404
:1010100080471760126812F480420092009A4E4F87
:101020003200920857F822205FF00F0C5FEA860E1C
:101030001EF00C0E1CFA0EFC32EA0C02DFF81CC18A
:10104000604501D1002514E0454DA84201D101259C
:101050000FE0444DA84201D102250AE0424DA842CA
:1010600001D1032505E0414DA84201D1042500E04E
:101070000725EDB25FEA860C1CF00C0C15FA0CF596
:101080002A433500AD0847F82520394F3D68A54370
:10109000D1F804C05FEACC3C00D525433D60354F14
:1010A0003A68A243D1F804C05FEA8C3C00D52243E1
:1010B0003A60314D2F68A743D1F804C05FEACC2CC9
:1010C00000D527432F602D4A1568A543D1F804C0E9
:1010D0005FEA8C2C00D525431560761C1BE7F1BD1B
:1010E000020010690B009BB2184201D0012000E001
:1010F0000020C0B270471300DBB2002B03D00B00FE
:101100009BB2836103E00B009BB21B0483617047B9
:1011100043690A0092B213400A0092B2934204D18A
:101120000A0092B21204826102E00A0092B2826165
:10113000704710B5040012480168220092B21142B3
:1011400006D0210089B20160200080B200F0D7F8FB
:1011500010BD000044380240083801400000024041
:101160000004024000080240000C0240001002404F
:10117000003C0140043C0140083C01400C3C014063
:10118000143C01402DE9F0410024002500260027F1
:101190001F48006810F00C00002804D0042804D078
:1011A000082804D031E01B4830E01B482EE0DFF86F
:1011B0006C80D8F8000010F03F000400D8F8000060
:1011C00040020CD5D8F80000C0F388101249A1FBEA
:1011D000000122000023FFF7CBFC05000BE0D8F84C
:1011E0000000C0F388100B49A1FB0001220000237E
:1011F000FFF7BEFC0500D8F80000C0F30140401C1A
:1012000040000600B5FBF6F000E00248BDE8F081C2
:10121000083802400024F40000127A00043802402A
:1012200010B504004FF47A700D490978B0FBF1F065
:101230000C490968B1FBF0F0FFF748FE002801D027
:1012400001200CE0102C09D2002221005FF0FF30B9
:10125000FFF720FE04480460002000E0012010BDDC
:1012600050000020040000200000002070470EE025
:1012700002684368024408305FEAC37C44BF4B44C1
:101280005B1E52F804CB43F804CB091FF9D150F888
:10129000041B0029ECD1704762F30F2262F31F4256
:1012A000401810F0030308D0C91A1FD3DB0748BF4A
:1012B00000F8012D28BF20F8022D130030B4144689
:1012C0001546103928BF20E93C00FAD8490728BF45
:1012D00020E90C0048BF40F8042D890028BF20F801
:1012E000022D48BF00F8012D30BC7047C91818BF47
:1012F00000F8012DCB0728BF00F8012D704770477B
:1013000030B4030000240022085D1D5DA84202D114
:1013100001200200641C012A15D10A2C13D2085D99
:10132000202810D0085D0A280DD0085D0D280AD0AD
:10133000085D002807D0085D1D5DA84201D000208F
:101340000200641CE7E7100030BC704730B40300B3
:10135000881A00248A4204D29D5C1D55641C521CCC
:10136000F8E7B4F5807F03D200251D55641CF8E72B
:1013700030BC704710B4020000235FF0FF30D45C33
:101380000D2C06D0D45C0A2C03D08B4201D25B1CFE
:10139000F5E78B4200D2180010BC704780B500F012
:1013A000FBF9DFF8D80300F011FA54A000F00EFAB0
:1013B00053A000F00BFA0020DFF8C41308600020EF
:1013C000B0F5807F05D20021DFF8B8231154401C0E
:1013D000F6E701BD2DE9FE4FDFF8A883DFF8A09303
:1013E00001AAD9F80010D1F58071D9F80000404465
:1013F00000F0D4F90198002804D1DFF88C030078BC
:10140000002879D0DFF880A300208AF80000D9F8FE
:10141000001001984118C9F80010D9F80010404692
:10142000FFF7A8FF00900098002865D400F050FA5C
:101430000400002005005FF0FF3006005FF0480B5D
:101440000BFB05F0205800282ED016F1010F2BD1F0
:1014500041460BFB05F02058FFF752FF002821D032
:1014600040460BFB05F121444968884707003800D6
:10147000C0B2002814D0DFF8140300F0A7F94046EA
:1014800000F0A4F9DFF8080300F0A0F90BFB05FB5E
:1014900004EB0B00083000F099F918A000F096F961
:1014A0002E00CBE76D1CC9E7009800280DD016F17F
:1014B000010F0AD1D9F80000032806D3DFF8D402BF
:1014C00000F084F90DA000F081F9009A521CD9F8BF
:1014D00000104046FFF73AFFC9F80000D9F80000B5
:1014E000002803D001208AF8000002E000208AF8DA
:1014F000000003A000F06AF9BDE8F78F0D0A0000B4
:101500003E20000070B403000024002500200E00DF
:10151000F6B2AE4208D0B4F5807F05D21E5D202E13
:1015200000D16D1C641CF2E7B4F5807F02D1102657
:10153000300000E01460C0B270BC70472DE9FE437B
:1015400004000D001600002000906A462900C9B270
:101550002000FFF7D7FF07005FF00008009818EBA6
:10156000000014F800904846C0B20A2815D048463A
:10157000C0B20D2811D04846C0B220280DD0B8F115
:10158000080F0AD201A800F8089018F10108009885
:1015900018EB0000205C8146E5E7B8F1080F01D1A7
:1015A000102007003800C0B2002807D1002001A990
:1015B00001F8080001A800F03EFA30803800C0B2FF
:1015C000BDE8FE832DE9FE4305000E001700002054
:1015D00001905FF0000801AA3100C9B22800FFF7AE
:1015E00091FF81464846C0B2002822D10020040065
:1015F000042C16D24846C0B2002806D1694601988C
:101600002018285C00F076F881464846C0B20028D1
:1016100005D15FEA08189DF8000058FA80F8641CAC
:10162000E6E74846C0B2112801D100208146A7F85C
:1016300000804846C0B2BDE8FE83FEB50500002626
:101640000027042F16D23000C0B2002810D1280085
:1016500080B2B900D1F10C01084110F00F00040074
:10166000684600EB07012000C0B200F06DF80600EC
:101670007F1CE6E700206946C855684600F0A6F8DA
:101680000020FEBDF0B4030000240127002B03D589
:10169000012004005B427F001D0095FBF2F0002852
:1016A00003D095FBF2F57F1CF7E70020C8557F1E9D
:1016B0001E0096FBF2F002FB10603030C85596FB1E
:1016C000F2F63800471E0028F3D12000C0B20028EF
:1016D00001D02D200870F0BC70471CB504000A2210
:1016E0006946200000B2FFF7CDFF684600F06EF8B3
:1016F000002016BD020000201300DBB2302B07DBF8
:101700001300DBB23A2B03DAB2F130030B7019E0AD
:101710001300DBB2412B07DB1300DBB2472B03DAEC
:10172000B2F137030B700DE01300DBB2612B07DB66
:101730001300DBB2672B03DAB2F157030B7001E041
:1017400011231800C0B27047020000201300DBB262
:101750000A2B03D212F130030B700DE01300DBB241
:101760000A2B07D31300DBB2102B03D212F137037D
:101770000B7001E010231800C0B27047E02C000885
:10178000F40100205400002000020020F82E000880
:10179000002F0008A42E000800207047F8B50400B0
:1017A0000D001600002700208DF8000000F05FFB00
:1017B000142301226946FEF79AFD002803D19DF803
:1017C0000000E0557F1C37600020F2BD38B50400F2
:1017D000200000F06FFB050000F049FBFA232A000F
:1017E00092B22100FEF713FD002032BD010000205F
:1017F00070472DE9F8430400002506260027701ED7
:10180000874218D25FF04808DFF8D49008FB07F051
:1018100059F80000FFF7DAFF2EA0FFF7D7FF08FB0B
:1018200007F809EB08000830FFF7D0FF2AA0FFF700
:10183000CDFF7F1CE3E72800C0B2BDE8F28338B5D6
:1018400004006A4601212000FFF778FE0500280009
:10185000C0B2002814D12348FFF7B8FFBDF900003B
:10186000FFF73BFF2048FFF7B1FFBDF8000080B253
:10187000FFF7E3FE19A0FFF7A9FF17A0FFF7A6FFE8
:101880002800C0B232BD38B504006A4601212000EC
:10189000FFF798FE05002800C0B2002809D11348C0
:1018A000FFF794FFBDF80000FFF7C7FE0AA0FFF79F
:1018B0008DFF2800C0B232BD38B5040000250C48A9
:1018C000FFF784FF04A0FFF781FF2800C0B232BDFC
:1018D00003487047203A20000D0A0000290000004C
:1018E0008C2A0008B82E0008182F0008C82E0008FF
:1018F0008C2E00082DE9F84F84B00E4617460BB128
:1019000000221A600446A04601E008F1010898F898
:10191000000000F0EAFA0028F7D198F800002D281E
:1019200016BF2B2818F8015B2B25002F019603D436
:10193000012F01D0252F03DB002E55D0346053E05A
:10194000002F0CDD102F04BF98F80000302802BFD4
:1019500098F8010040F02000782811D10CE098F8A8
:101960000000302818BF0A270AD198F8010040F07B
:101970002000782803D1102708F1020800E008278A
:10198000CDF80C8001E008F1010898F8000030283B
:10199000F9D0064E7E4414364FF0000906F12800B7
:1019A000CDF80880CA468DF800000BE0E412000074
:1019B0009DF80010401ACA465FFA80FB07FB09B980
:1019C00008F1010898F8000000F099FA01463A463B
:1019D00006F1280000F09EFA0028E9D1039941455C
:1019E00004D1019800B10460002020E00299F05D6C
:1019F000A8EB0101081A002810D406DCB9EB0B0192
:101A000003D3B1FBF7F0504508D0AFF30080049842
:101A100008B1012101604FF0FF3903E02D2D08BF0F
:101A2000C9F10009019808B1C0F80080484605B026
:101A3000BDE8F08F03E0FFE70A220021FAE7002368
:101A400058E73B0080B500F091FA00F00FF800F085
:101A5000F1F800F072F800F087F800F0D1F8FFF725
:101A60009DFC00F09DFAFFF7B5FCFAE780B598B051
:101A70003022002106A8FFF73FFA1422002101A816
:101A8000FFF73AFA1822002112A8FFF735FA0020D2
:101A90000090DFF8E003016851F0805101600068B8
:101AA00010F080500090009800200090DFF8C803EC
:101AB000016851F440410160006810F4404000901A
:101AC0000098092006905FF48030079001200B9069
:101AD00002200C905FF480000D9004200E90C02036
:101AE0000F90042010900820119006A800F07CFAB6
:101AF000002801D000F0DCF90F20019002200290B4
:101B0000002003904FF4A050049000200590032182
:101B100001A8FEF765FF002801D000F0C9F90220F6
:101B200012904FF40070169012A800F04BFC0028A1
:101B300001D000F0BDF919B000BD80B5CF48D04943
:101B40000160002141607F218160FF21C16000218F
:101B50000161002141610021816100F0EFFC00285A
:101B600001D000F0A5F901BD18B58BB010220021FD
:101B700007A8FFF7C1F91422002102A8FFF7BCF95A
:101B8000082200216846FFF7B7F9BE4CBE48206026
:101B9000002060600020A0600020E0600020206144
:101BA000002060610020A061200000F067FD002897
:101BB00001D000F07DF94FF48050079007A9200074
:101BC00000F078FD002801D000F072F900200290AA
:101BD0000020039002A9200000F0E2FD002801D0BF
:101BE00000F066F900200090002001906946200076
:101BF00000F0E8FE002801D000F05AF90CB010BD4A
:101C000080B5A248A24901605FF4E1314160002142
:101C100081600021C160002101610C21416100212E
:101C200081610021C161FEF7B7FA002801D000F000
:101C30003FF901BD2DE9F04186B01422002168462C
:101C4000FFF75AF9002005909248016851F0100101
:101C50000160016811F010010591059900210591BD
:101C6000016851F004010160016811F0040105915F
:101C7000059900210591016851F08001016001681A
:101C800011F080010591059900210591016851F03D
:101C900001010160016811F0010105910599002120
:101CA0000591016851F002010160016811F0020123
:101CB0000591059900210591016851F00801016025
:101CC000006810F0080005900598734F0022082165
:101CD0003800FFF710FA714C002201212000FFF7B5
:101CE0000AFA4FF210086E4D002241462800FFF715
:101CF00002FA042000900020019000200290694622
:101D00003800FFF703F9082000900120019000201F
:101D100002900020039069463800FFF7F7F8322060
:101D20000090604E01960020029069463800FFF74F
:101D3000EDF8012000900120019000200290002089
:101D4000039069462000FFF7E1F808200090022088
:101D50000190002002900020039005200490694625
:101D60002000FFF7D3F80120009001960020029098
:101D70004D4E69463000FFF7C9F810200090022050
:101D800001900020029000200390062004906946F4
:101D90003000FFF7BBF8E020009002200190002007
:101DA0000290032003900520049069463000FFF75D
:101DB000ADF84FF4A0500090022001900020029056
:101DC0000020039005200490384F69463800FFF743
:101DD0009DF8CDF8008001200190002002900020A5
:101DE000039069462800FFF791F84FF4A450009043
:101DF0000220019000200290002003900620049011
:101E000069462000FFF782F84FF4C060009002207E
:101E1000019001200290032003900720049069465E
:101E20003000FFF773F82020009000200190002080
:101E3000029069462800FFF769F84FF4107000908F
:101E400012200190012002900320039004200490AE
:101E500069463800FFF75AF8002200210620FFF7F4
:101E600019F80620FFF72BF806B0BDE8F081074807
:101E7000704700004038024000700040D40100204C
:101E8000002800405401002000000140940100207F
:101E90000044004030380240001002400008024078
:101EA000000C02400000111000000240000402403B
:101EB0007047430000F10103810704D010F8011BB3
:101EC000820781B1FAD10268A2F10131914311F088
:101ED000803104BF50F8042FF6E709BAB1FA81F156
:101EE00000EBD100401CC01A704710B5044600F04A
:101EF000C9FD01462046096ABDE81040084710B5F3
:101F0000044600F0BFFD01462046896ABDE8104046
:101F100008470000C9B2830706D0521E22D310F82A
:101F2000013B9942F7D11FE0083A13D302F10402B2
:101F300041EA012141EA014150F8043B121F21BF4F
:101F40004B40A3F1013C2CEA030C1CF0803FF3D082
:101F5000C9B2001F083210F8013B521E28BF91EA97
:101F6000030FF8D818BF0120401E704780B50B48FA
:101F7000016851F400710160016851F480610160F1
:101F8000016851F4807101600320FEF77DFF00209D
:101F9000FFF746F9FEF7A2FC002002BD003C02401C
:101FA00038B501210D48FFF79BF800280FD1FEF747
:101FB00011FD04000A4D2868201AB0F5FA7F0CD3F1
:101FC0004FF480510748FFF7A3F82C6005E000228A
:101FD0004FF480510348FFF78EF831BD00000240F6
:101FE000FC010020000C02402DE9F8430400002C05
:101FF00001D10120CFE12078C0075FD5DFF89C0335
:10200000016811F00C01042909D0006810F00C00DF
:1020100008280ED1DFF888030068400209D5DFF8F0
:1020200084030068800349D56068002846D10120F8
:10203000B1E16068B0F5803F06D1DFF86803016860
:1020400051F48031016018E06068B0F5A02F0AD12A
:10205000DFF85003016851F480210160016851F4F8
:102060008031016009E0DFF83C03016831F4803120
:102070000160016831F480210160606800280ED0A1
:10208000FEF7A8FC0500DFF81C030068800315D4E8
:10209000FEF7A0FC401B6528F5D303207BE1FEF78B
:1020A00099FC0500DFF8FC020068800306D5FEF706
:1020B00091FC401B6528F5D303206CE12078800754
:1020C0004BD5B648016811F00C0F08D0006810F02D
:1020D0000C00082814D1B2480068400210D4B1485E
:1020E0000168890704D5E168012901D0012052E186
:1020F000016831F0F801226951EAC20101602CE067
:10210000E068002818D00120A7490860FEF762FCAB
:102110000500A4480168890706D4FEF75BFC401B54
:102120000328F6D3032036E1016831F0F801226973
:1021300051EAC201016010E000209B490860FEF7EF
:1021400049FC050097480068800706D5FEF742FC69
:10215000401B0328F6D303201DE12078000724D577
:102160006069002810D0012090490860FEF732FC19
:1021700005008F480068800717D4FEF72BFC401B32
:102180000328F6D3032006E1002088490860FEF703
:1021900021FC050086480068800706D5FEF71AFC7A
:1021A000401B0328F6D30320F5E0207840077CD5B8
:1021B0000027DFF80082D8F80000C0000FD400200C
:1021C0000090D8F8000050F08050C8F80000D8F80F
:1021D000000010F080500090009801200700DFF808
:1021E000D891D9F80000C00513D4D9F8000050F4F4
:1021F0008070C9F80000FEF7EDFB0500D9F800007B
:10220000C00506D4FEF7E6FB401B0328F6D30320E7
:10221000C1E0A068012805D16848016851F00101BA
:10222000016015E0A068052809D16448016851F0F3
:1022300004010160016851F00101016008E05F489C
:102240000168490849000160016831F0040101603A
:10225000A06800280FD0FEF7BDFB050057480068B6
:10226000800718D4FEF7B6FB401B41F28931884243
:10227000F4D303208FE0FEF7ADFB05004F48006864
:10228000800708D5FEF7A6FB401B41F28931884242
:10229000F4D303207FE03800C0B2012805D1D8F87C
:1022A000000030F08050C8F80000A069002871D00C
:1022B0003A48006810F00C00082847D0A0690228AE
:1022C00033D13F4F00203860FEF784FB8046DFF8B3
:1022D000D490D9F80000800107D5FEF77BFBB0EB66
:1022E00008000328F3D3032055E0E169206A014385
:1022F000606A51EA8011A06A4008401E51EA00411C
:10230000E06A51EA00612648016001203860FEF76A
:1023100061FB0500D9F8000080013BD4FEF75AFBB1
:10232000401B0328F6D3032035E000202449086031
:10233000FEF750FB05001B48006880012AD5FEF718
:1023400049FB401B0328F6D3032024E0A0690128A1
:1023500001D101201FE012480068060016F4800039
:10236000E169884214D116F03F00216A88420FD1FA
:1023700047F6C0703040616A884209D116F4403097
:10238000A16A884204D116F07060E16A884201D0E7
:10239000012000E00020BDE8F28300BF08380240C1
:1023A000043802400038024000004742800E474295
:1023B00074380240403802400070004070380240DB
:1023C000600047422DE9F8430500002600242878E4
:1023D00010F0050F2ED0DFF83C7100203860FEF7BA
:1023E000F9FA8046DFF83091D9F80000000107D5EE
:1023F000FEF7F0FAB0EB08000328F3D3032087E0E0
:102400006868A96850EA8110E96850EA0170DFF84D
:102410000C11086001203860FEF7DCFA0600D9F8DC
:102420000000000106D4FEF7D5FA801B0328F6D37E
:1024300003206DE02878800763D500200090DFF846
:10244000E000016851F080510160006810F0805098
:1024500000900098DFF8CC70386850F480703860D5
:10246000FEF7B8FA06003868C00506D4FEF7B2FADF
:10247000801B0328F7D303204AE0DFF8AC703868EC
:1024800010F440700400002C20D0286910F4407033
:1024900084421BD0386830F4407004002348012186
:1024A0000160002101603C603868C0070ED5FEF76E
:1024B00091FA06003868800708D4FEF78BFA801B73
:1024C00041F289318842F5D3032021E0286910F4D4
:1024D0004070B0F5407F09D115490A6832F4F8120E
:1024E0002B69144803401A430A6004E0104801684D
:1024F00031F4F8110160386829690905090D0843AC
:1025000038602878000702D5287D0B490860002034
:10251000BDE8F28368004742003802408438024038
:10252000403802400070004070380240400E474280
:1025300008380240FFFCFF0FE011474210B50400CD
:10254000002C01D101205EE0607F002804D1002032
:1025500020772000FEF7DFF902206077CA2021688B
:102560004862532021684862200000F06AF8002881
:1025700006D0FF202168486204206077012042E0F5
:1025800020688168DFF88000014020688160206851
:1025900081686068014320690143606901432068E4
:1025A0008160E0682168086120680069A16850EADC
:1025B0000140216808612068C06830F0800021680F
:1025C000C8602068806880060BD4200000F01EF8E8
:1025D000002806D0FF20216848620420607701208F
:1025E00011E02068006C30F48020216808642068C5
:1025F000016CA069014320680164FF2021684862E2
:1026000001206077002010BDBFFF8FFF70B5040070
:1026100000252068C06830F0A0002168C860FEF77F
:10262000D9F906002068C068800608D4FEF7D2F900
:10263000801B40F2E9318842F4D3032000E00020FF
:1026400070BD38B5040000252068C068400613D46A
:102650005FF0FF302168C860FEF7BCF90500206814
:10266000C068400608D4FEF7B5F9401B40F2E931D6
:102670008842F4D3032000E0002032BD10B50400EE
:10268000002C01D1012014E094F83D00002805D170
:10269000002084F83C002000FEF745F9022084F871
:1026A0003D00211D206800F0ACF8012084F83D00B9
:1026B000002010BD70B504000D0094F83C00012806
:1026C00001D102206BE0012084F83C00022084F854
:1026D0003D002068866836F0770636F47F4620682D
:1026E0008660286800284ED010284CD020284AD078
:1026F000302848D040283CD0502826D060282ED002
:10270000702807D0B0F5805F03D0B0F5005F0FD020
:102710003EE03DE0EB686A68A968206800F047F990
:102720002068806850F077000600206886602FE0FF
:10273000EB686A68A968206800F039F92068806849
:1027400050F480402168886022E0EA686968206867
:1027500000F000F95021206800F021F918E0EA6843
:102760006968206800F008F96021206800F017F916
:102770000EE0EA686968206800F0ECF84021206803
:1027800000F00DF904E02968206800F008F9FFE77F
:10279000012084F83D00002084F83C00002070BD3A
:1027A00038B504000D0094F83C00012801D1022046
:1027B00026E0012084F83C00022084F83D00290036
:1027C000200000F05FF8002807D0012084F83D00C9
:1027D000002084F83C00012012E02068C06830F03E
:1027E00040002168C8602068C06830F480402168DB
:1027F000C860012084F83D00002084F83C000020DF
:1028000032BD10B404684C4B98420BD0B0F1804FED
:1028100008D04A4A904205D0494A904202D0494ADB
:10282000904203D134F070044A681443984214D0A3
:10283000B0F1804F11D0414A90420ED0404A9042B0
:102840000BD0404A904208D03F4A904205D03F4AC0
:10285000904202D03E4A904203D134F44074CA6898
:10286000144334F080044A69144304608A68C262E5
:102870000A688262984201D10A69026301224261B8
:1028800010BC70472DE9F04104000D002068D0F81D
:10289000088038F07008686850EA08085FEAD808CD
:1028A0005FEAC808286850EA08082068C0F808806D
:1028B000686800283BD0102839D0202837D030282D
:1028C00035D040280CD0502825D0602829D0702839
:1028D0002ED12B69AA68E968206800F068F827E023
:1028E0002868052801D1012023E02068006A07003C
:1028F0002068006A400840002168086220688069FA
:1029000030F0F000296950EA011006002068866165
:10291000206807620CE02A69A968206800F01AF8AC
:1029200006E02A69A968206800F026F800E0FFE7C1
:102930000020BDE8F08100000000014000040040DC
:1029400000080040000C00400040014000440140ED
:102950000048014010B4046A036A5B085B0003622C
:10296000836933F0F00353EA021334F00A040C4392
:102970008361046210BC704710B4036A33F0100323
:1029800003628369046A33F4704353EA023334F018
:10299000A00454EA01148361046210BC7047826889
:1029A00032F070020A4352F007028260704710B49E
:1029B000846834F47F440C43144354EA0324846051
:1029C00010BC704730B4020092F83C00012801D1DD
:1029D000022034E0012082F83C00022082F83D0011
:1029E000106843681068846833F070030868034314
:1029F000106843601068134DA84213D01068B0F1FE
:102A0000804F0FD01068104DA8420BD010680F4DAA
:102A1000A84207D010680E4DA84203D010680D4D93
:102A2000A84205D134F080044868044310688460EB
:102A3000012082F83D00002082F83C00002030BCDC
:102A40007047000000000140000400400008004002
:102A5000000C004000400140FFE741381A28804147
:102A6000C00F7047A0F10901052901D3202801D129
:102A70000120704700207047A0F141011A2938BF9A
:102A8000203070470048704708000020421A0008B4
:102A9000ED170008436F6D6D656E742120596F75D9
:102AA00020646F206E6565642061207370616365CA
:102AB000206166746572207468652073656D696352
:102AC0006F6C6F6E2E200000000000000000000000
:102AD00000000000082F0008F31700084C69737409
:102AE000732074686520636F6D6D616E647320611F
:102AF0007661696C61626C65000000000000000096
:102B000000000000000000000000000000000000C5
:102B1000000000000000000000000000282F000856
:102B2000B91800084765742074686520766572736B
:102B3000696F6E20737472696E6700000000000098
:102B40000000000000000000000000000000000085
:102B50000000000000000000000000000000000075
:102B6000000000002C2F00083F180008486F772055
:102B7000746F206765742061207369676E656420D7
:102B8000696E7431362066726F6D20706172616D8E
:102B900073206C6973743A20696E74202D3332315E
:102BA000000000000000000000000000102F0008DE
:102BB00087180008486F7720746F2067657420615C
:102BC00020686578207531362066726F6D207468D4
:102BD0006520706172616D73206C6973743A207541
:102BE00031366820614231320000000000000000F0
:102BF00000000000000000000000000000000000D5
:102C000000000000000000000000000000000000C4
:102C100000000000000000000000000000000000B4
:102C200000000000000000000000000000000000A4
:102C30000000000000000000000000001000000084
:102C40000024F400B21E0008010000000000000093
:102C50000000000000000000000000000000000074
:102C600000000000652A0008592A0008792A000897
:102C70000000000000000000000000000000000054
:102C80000000000001000000000000000100000042
:102C900000002115110E0D0C0B0B0A0A0909090978
:102CA00009080808080808080707070707070707AB
:102CB0000707070707000000303132333435363755
:102CC00038396162636465666768696A6B6C6D6EEA
:102CD0006F707172737475767778797A000000007E
:102CE00057656C636F6D6520746F20746865204351
:102CF0006F6E736F6C696E61746F722C20796F7573
:102D000072206761746577617920746F20746573D0
:102D100074696E6720636F646520616E642068610A
:102D20007264776172652E0030B4002512E050F8AD
:102D3000042BD30744BF4A44521E091F042942F8FA
:102D4000045BFAD213468C0744BF15809B1CC9074D
:102D500048BF1D7050F8041B0029E8D130BC7047F3
:102D600010B5074979441831064C7C44163404E008
:102D70000A68081D114488470146A142F8D110BDD8
:102D800068000000880000007047FEE7FEE7FEE7ED
:102D9000FEE770477047704780B500F007F801BD47
:102DA00080B50120FEF7C5F901BD000003480168A8
:102DB000034A127889180160704700BFF8010020AB
:102DC000500000204EF68851CEF20001086840F411
:102DD00070000860BFF34F8FBFF36F8F4FF001702B
:102DE000E1EE100A7047000041FFFFFFB001000054
:102DF000540000200000000077E4FFFF54000000B2
:102E00003CFEFFFF000000200000000000F00DF875
:102E1000002801D0FFF7A4FFAFF300800020AFF33C
:102E20000080FEF70FFE00F002F80120704700F06E
:102E300001B800000746384600F002F8FBE7000042
:102E400080B5AFF30080024A11001820ABBEFBE74B
:102E5000260002000448016851F4700101605FF02F
:102E6000006002490860704788ED00E008ED00E06E
:102E70000548014603B4684680F30988AFF3008033
:102E8000FFF7A0FFFFF7C2FFA5EDF5FE52657573D2
:102E900061626C65436F646520302E302E302E31B8
:102EA00000000000436F6D6D616E64206E6F7420D2
:102EB000666F756E642E0000506172616D65746599
:102EC0007220697320000000506172616D65746545
:102ED00072206973203078000000000000000000BC
:102EE000010203040607080901488047014800471A
:102EF000552E0008712E00084572726F723A20003C
:102F000048656C703A20000068656C700000000035
:102F1000753136680000000020283078000000007D
:102F2000000000000102030476657200696E7400FF
:102F3000FFF7FEBFFFF7FEBFFFF7FEBFFFF7FEBFC5
:102F4000FFF7FEBFFFF7FEBFFFF7FEBFFFF7FEBFB5
:102F5000FFF7FEBFFFF7FEBFFFF7FEBFFFF7FEBFA5
:102F6000FFF7FEBFFFF7FEBFFFF7FEBFFFF7FEBF95
:102F7000FFF7FEBFFFF7FEBFFFF7FEBFFFF7FEBF85
:102F8000FFF7FEBFFFF7FEBFFFF7FEBFFFF7FEBF75
:102F9000FFF7FEBFFFF7FEBFFFF7FEBFFFF7FEBF65
:102FA000FFF7FEBFFFF7FEBFFFF7FEBFFFF7FEBF55
:102FB000FFF7FEBFFFF7FEBFFFF7FEBFFFF7FEBF45
:102FC000FFF7FEBFFFF7FEBFFFF7FEBFFFF7FEBF35
:102FD000FFF7FEBFFFF7FEBFFFF7FEBFFFF7FEBF25
:102FE000FFF7FEBFFFF7FEBFFFF7FEBFFFF7FEBF15
:102FF000FFF7FEBFFFF7FEBFFFF7FEBFFFF7FEBF05
:10300000FFF7FEBFFFF7FEBFFFF7FEBFFFF7FEBFF4
:0400000508002E7150
:00000001FF
