:020000040800F2
:10000000B8050020D1240008BD230008BF23000844
:10001000C1230008C3230008C52300080000000016
:10002000000000000000000000000000C7230008DE
:10003000C923000800000000CB230008CD230008DE
:10004000F5240008F9240008FD2400080125000813
:100050000525000809250008D52300080D250008FE
:100060001125000815250008192500081D25000880
:100070002125000825250008292500082D25000830
:10008000312500083525000839250008000000004A
:100090000000000000000000000000003D250008F6
:1000A0004125000845250008492500084D25000880
:1000B0005125000855250008592500085D25000830
:1000C0006125000865250008692500086D250008E0
:1000D000712500087525000879250008000000003A
:1000E0007D25000881250008852500080000000006
:1000F000000000000000000000000000892500084A
:10010000000000008D2500089125000895250008B5
:1001100000000000000000000000000000000000DF
:10012000992500089D250008A1250008A52500089F
:10013000A9250008000000000000000000000000E9
:10014000000000000000000000000000AD250008D5
:10015000B1250008B5250008B9250008BD2500080F
:10016000C1250008C52500080000000000000000AF
:10017000000000000000000000000000000000007F
:1001800000000000C9250008000000000000000079
:10019000CD250008D125000810B50400002C01D1A0
:1001A000012033E0A0690028FFD194F8390000282D
:1001B00005D1002084F83800200000F0C7FB24207F
:1001C00084F839002068C06830F400502168C860A5
:1001D000200000F038F92068006930F49040216870
:1001E00008612068406930F02A0021684861206871
:1001F000C06850F400502168C8600020E0632020EF
:1002000084F83900202084F83A00002010BD2DE940
:10021000FC4705000C0016001F005FF0000A95F86F
:100220003900202860D1002C03D0300080B2002893
:1002300001D1012059E095F83800012801D10220B0
:1002400053E0012085F838000020E863212085F87C
:10025000390000F0BFFB8146AE84EE84002085F8B3
:100260003800E88C00282FD0E88C401EE884A8686D
:10027000B0F5805F18D100974B46002280212800FE
:1002800000F0AAF8002801D003202EE0A046B8F81C
:100290000000C005C00D296848602869002801D108
:1002A000A41CDEE7641CDCE700974B46002280219B
:1002B000280000F091F8002801D0032015E02078F4
:1002C00029684860641CCCE700974B460022402117
:1002D000280000F081F8002801D0032005E020204C
:1002E00085F83900002000E00220BDE8F6872DE9FE
:1002F000FC4705000C0016001F005FF0000A95F88F
:100300003A00202865D1002C03D0300080B20028AC
:1003100001D101205EE095F83800012801D10220CA
:1003200058E0012085F838000020E863222085F895
:100330003A0000F04FFB8146AE85EE85002085F83F
:100340003800E88D00283FD0E88D401EE885A86879
:10035000B0F5805F1ED100974B4600222021280077
:1003600000F03AF8002801D0032033E0A0462869C5
:10037000002807D128684068C005C00DA8F8000013
:10038000A41CDEE72868406800F0FF00A8F8000021
:10039000641CD6E700974B4600222021280000F07D
:1003A0001BF8002801D0032014E02869002804D19C
:1003B000286840682070641CC3E72868406810F013
:1003C0007F002070641CBCE7202085F83A000020E4
:1003D00000E00220BDE8F6872DE9F04105000E009F
:1003E00090461F00069C286800683040B04201D14A
:1003F000012000E000204146C9B2884220D114F11A
:10040000010FF0D0002C04D000F0E4FAC01B8442AD
:10041000E9D22868C06830F4D0702968C8602868BC
:1004200040694008400029684861202085F839006B
:10043000202085F83A00002085F83800032000E0ED
:100440000020BDE8F0812DE9F84F0500286801691A
:1004500031F44051E868014328680161D5F80890FB
:10046000286950EA0909686950EA0909E86950EA07
:1004700009092868C168DFF85804014059EA0101F8
:100480002868C1602868416931F44071A869014356
:1004900028684161E869B0F5004F40F00D81286897
:1004A000DFF83014884205D02868DFF82C14884221
:1004B00040F0818000F042FB04007FF063081926C1
:1004C000002722000023A6FB020106FB031107FB05
:1004D00002116A6800235B0043EAD273520000F005
:1004E00047FB6421B0FBF1FB22000023A6FB0201C5
:1004F00006FB031107FB02116A6800235B0043EA55
:10050000D273520000F034FB824622000023A6FB87
:10051000020106FB031107FB02116A6800235B005E
:1005200043EAD273520000F023FB6421B0FBF1F0E8
:1005300008FB00A0C00032306421B0FBF1F04000A5
:1005400010F4F87010EB0B10834622000023A6FB7A
:10055000020106FB031107FB02116A6800235B001E
:1005600043EAD273520000F003FB824620000021D0
:1005700002000B00A6FB020106FB031107FB0211A0
:100580006A6800235B0043EAD273520000F0F0FA7D
:100590006421B0FBF1F008FB00A85FEAC80818F17D
:1005A00032086420B8FBF0F010F0070010EB0B00ED
:1005B0002968886088E100F0B6FA04007FF06308DB
:1005C0001926002722000023A6FB020106FB0311C7
:1005D00007FB02116A6800235B0043EAD2735200F2
:1005E00000F0C6FA6421B0FBF1FB22000023A6FB59
:1005F000020106FB031107FB02116A6800235B007E
:1006000043EAD273520000F0B3FA8246220000237C
:10061000A6FB020106FB031107FB02116A68002317
:100620005B0043EAD273520000F0A2FA6421B0FBEF
:10063000F1F008FB00A0C00032306421B0FBF1F003
:10064000400010F4F87010EB0B10834622000023DA
:10065000A6FB020106FB031107FB02116A680023D7
:100660005B0043EAD273520000F082FA8246200017
:10067000002102000B00A6FB020106FB031107FB91
:1006800002116A6800235B0043EAD273520000F053
:100690006FFA6421B0FBF1F008FB00A85FEAC8081C
:1006A00018F132086420B8FBF0F010F0070010EBEE
:1006B0000B002968886007E128688649884204D0D1
:1006C00028688549884240F0808000F037FA0400AD
:1006D0007FF063081926002722000023A6FB0201F1
:1006E00006FB031107FB02116A6800239B0043EA23
:1006F0009273920000F03CFA6421B0FBF1FB2200FF
:100700000023A6FB020106FB031107FB02116A6826
:1007100000239B0043EA9273920000F029FA82467C
:1007200022000023A6FB020106FB031107FB0211B6
:100730006A6800239B0043EA9273920000F018FA63
:100740006421B0FBF1F008FB00A00001323064210D
:10075000B0FBF1F010F0F00010EB0B10834622001C
:100760000023A6FB020106FB031107FB02116A68C6
:1007700000239B0043EA9273920000F0F9F982464D
:100780002000002102000B00A6FB020106FB031162
:1007900007FB02116A6800239B0043EA92739200F0
:1007A00000F0E6F96421B0FBF1F008FB00A85FEA75
:1007B000081818F132086420B8FBF0F010F00F00B0
:1007C00010EB0B00296888607EE000F0ACF90400B3
:1007D0007FF063081926002722000023A6FB0201F0
:1007E00006FB031107FB02116A6800239B0043EA22
:1007F0009273920000F0BCF96421B0FBF1FB22007F
:100800000023A6FB020106FB031107FB02116A6825
:1008100000239B0043EA9273920000F0A9F98246FC
:1008200022000023A6FB020106FB031107FB0211B5
:100830006A6800239B0043EA9273920000F098F9E3
:100840006421B0FBF1F008FB00A00001323064210C
:10085000B0FBF1F010F0F00010EB0B10834622001B
:100860000023A6FB020106FB031107FB02116A68C5
:1008700000239B0043EA9273920000F079F98246CC
:100880002000002102000B00A6FB020106FB031161
:1008900007FB02116A6800239B0043EA92739200EF
:1008A00000F066F96421B0FBF1F008FB00A85FEAF4
:1008B000081818F132086420B8FBF0F010F00F00AF
:1008C00010EB0B0029688860BDE8F18F0000000084
:1008D000F369FFFF001001400014014080B50020C3
:1008E00000903448016851F480410160006810F4C0
:1008F000804000900098002000902F48016851F03F
:1009000080510160006810F080500090009807202E
:1009100000F0BAFA01BD0168284A914202D10121D2
:10092000274A1160704781B00168264A91420BD175
:10093000002100911F490A6852F001020A6009680B
:1009400011F001010091009901B0704710B586B017
:1009500004001422002101A800F0CEFA20681A49F0
:10096000884225D1002000901348016851F40031DD
:100970000160006810F400300090009800200090A2
:100980001248016851F001010160006810F0010097
:10099000009000980C20019002200290012003900A
:1009A000032004900720059001A9094800F0AEFA41
:1009B00006B010BD443802404038024000280040D4
:1009C0003C0E4742000001400044004030380240E5
:1009D0000000024001480068704700BFB0010020DD
:1009E0002DE9F04104000D00002C01D1012095E01B
:1009F000584F386810F00F00A84207D23D70386891
:100A000010F00F00A84201D0012087E02078800775
:100A100016D52078400704D54F48016851F4E051BD
:100A200001602078000704D54B48016851F460410B
:100A3000016049490A6832F0F002A06802430A6086
:100A40002078C00738D56068012805D14348006880
:100A5000800313D4012061E06068022802D060683E
:100A6000032805D13D480068800107D4012055E0E6
:100A70003A480068800701D401204FE0DFF8D880B1
:100A8000D8F800108908890060680143C8F8001090
:100A9000FFF7A0FF0600D8F8000010F00C00616816
:100AA000B0EB810F08D0FFF795FF801B41F2893131
:100AB0008842F0D3032031E0386810F00F008542FF
:100AC00007D23D70386810F00F00A84201D0012015
:100AD00024E02078400706D51F490A6832F4E05226
:100AE000E06802430A602078000707D51A480168C9
:100AF00031F46041226951EAC201016000F042FB19
:100B00001749154A1268C2F30312895CC840154997
:100B100008601548006800F083FB0020BDE8F08104
:100B200010480068704780B5FFF7FAFF0F490A4A7E
:100B30001268C2F38222895CC84002BD80B5FFF70B
:100B4000EFFF0A49044A1268C2F34232895CC84086
:100B500002BD0000003C024008380240003802405C
:100B6000C02400080400002000000020EC2400083D
:100B7000BBBBE1B1B2F5803F80F07E80022A1ED976
:100B80008C46B1FBF2F102FB11C31B0443EA104394
:100B9000B3FBF2FC02FB1C3380B240EA0343B3FB1D
:100BA000F2F002FB103240EA0C4000237047022AA8
:100BB00005D98446B0FBF2F002FB10C270474AB17F
:100BC00005D100F0010249085FEA300070470022B9
:100BD0000023704700F04ABB0B00020000210020F8
:100BE0007047904271EB030CF6D3B3F5803F2FD2E0
:100BF000F0B5B3FA83F7B1FA81F4A7F10F0E3D1BFC
:100C00005340CEF1200602FA0EF2F3415340B5F103
:100C10000F0746D80F3C2C444140C4F12006A040A9
:100C2000F1414140B1FBF3F603FB1611A2FB06456F
:100C3000001BA94102D2761E8018594180EA0102A8
:100C400021FA0EF362FA0EF200215A403046F0BD4E
:100C500030B4B1FBF3FC03FB1C11A2FB0C45001BE1
:100C6000A94103D2ACF1010C8018594130BC0246B5
:100C70000B46604600217047B2F1807F65D3F0B526
:100C8000B2FA82F7B1FA81F4C7F10F063D1B22FADE
:100C900006F307F1110EF24120355A40B5F10F0766
:100CA000B8D94140C4F12006A040F1414140B1FB18
:100CB000F3FC03FB1C11A2FB0C45001BA94103D252
:100CC000BCF1010C801859410F2F12D30F3FC903FB
:100CD00041EA5041B1FBF3F603FB1611A2FB0645B6
:100CE000D4EBC030A94102D2761E8018594146EAA1
:100CF000CC3C07B34140C7F12006B840F141414028
:100D0000B1FBF3F603FB1611A2FB0645001BA9413C
:100D100002D2761E8018594180EA010221FA0EF3B0
:100D2000C7F1200462FA0EF20CFA07F05A402CFACE
:100D300004F13043F0BD80EA010221FA0EF30021F4
:100D400062FA0EF260465A40F0BD8C46B1FBF2F1F9
:100D500002FB11C31B0243EA1063B3FBF2FC02FB6C
:100D60001C331B024CEA002043EA1063B3FBF2FC85
:100D700002FB1C331B024CEA002043EA1063B3FB66
:100D8000F2FC02FB1C331B024CEA002043EA106316
:100D9000B3FBF2FC02FB1C324CEA0020002370473C
:100DA00010B410F00703DFF8304122684FF6FF015E
:100DB0000A4052EA0322DFF824110A43226010BCE1
:100DC0007047DFF814010068C0F30220704701008B
:100DD00049B2002909D4012210F01F018A4040497C
:100DE00003005BB25B0941F82320704710B4020096
:100DF00052B2002A05D40A013A4B040064B21A55D3
:100E000008E00A01384B040064B214F00F042344D4
:100E100003F8042C10BC704770B4030013F00704EF
:100E2000D4F10700052801D3042001E0D4F1070024
:100E3000251D072D01D2002500E0E51E012616FA2A
:100E400000F0401E0140A94016FA05F56D1E2A402B
:100E50001143080070BC704710B50400601EB0F16B
:100E6000807F01D301200EE0601E204908600F2121
:100E70005FF0FF30FFF7BAFF00201D490860072030
:100E80001C490860002010BD10B504002000FFF7C9
:100E900087FF10BD2DE9F04104000D00160000276A
:100EA000FFF78FFF8046320029004046FFF7B4FF6E
:100EB0000100200040B2FFF799FFBDE8F08110B5B6
:100EC0000400200040B2FFF782FF10BD10B50400FF
:100ED0002000FFF7C1FF10BD0CED00E00000FA0597
:100EE00000E100E000E400E018ED00E014E000E0C4
:100EF00018E000E010E000E010B5044610460A4695
:100F00000146204600F0C8F9204610BDF8B5002380
:100F1000002400250026102E80F0E180012717FA1A
:100F200006F213000A681A4014009C4240F0D58073
:100F30004A68012A08D04A68022A05D04A68112A5C
:100F400002D04A68122A1BD1D0F808C05FF0030E05
:100F500072001EFA02FE3CEA0E0CD1F80CE07200A0
:100F60001EFA02FE5EEA0C0CC0F808C04268B740E8
:100F7000BA434F68C7F30017B7403A4315004560BE
:100F8000C7685FF0030C72001CFA02F29743D1F8B5
:100F900008E072001EFA02FE5EEA0707C7604A68B0
:100FA000022A02D04A68122A1AD13200D20800EB73
:100FB0008202126A0F255FEA860E1EF01C0E15FAD9
:100FC0000EF5AA430D695FEA860E1EF01C0E15FA97
:100FD0000EF52A4317003200D20800EB8202176296
:100FE000056872001CFA02FC35EA0C0591F804C091
:100FF0001CF0030C72001CFA02FC5CEA050505609B
:101000004A68D20069D500220092524A176857F404
:1010100080471760126812F480420092009A4E4F87
:101020003200920857F822205FF00F0C5FEA860E1C
:101030001EF00C0E1CFA0EFC32EA0C02DFF81CC18A
:10104000604501D1002514E0454DA84201D101259C
:101050000FE0444DA84201D102250AE0424DA842CA
:1010600001D1032505E0414DA84201D1042500E04E
:101070000725EDB25FEA860C1CF00C0C15FA0CF596
:101080002A433500AD0847F82520394F3D68A54370
:10109000D1F804C05FEACC3C00D525433D60354F14
:1010A0003A68A243D1F804C05FEA8C3C00D52243E1
:1010B0003A60314D2F68A743D1F804C05FEACC2CC9
:1010C00000D527432F602D4A1568A543D1F804C0E9
:1010D0005FEA8C2C00D525431560761C1BE7F1BD1B
:1010E000020010690B009BB2184201D0012000E001
:1010F0000020C0B270471300DBB2002B03D00B00FE
:101100009BB2836103E00B009BB21B0483617047B9
:1011100043690A0092B213400A0092B2934204D18A
:101120000A0092B21204826102E00A0092B2826165
:10113000704710B5040012480168220092B21142B3
:1011400006D0210089B20160200080B200F0D7F8FB
:1011500010BD000044380240083801400000024041
:101160000004024000080240000C0240001002404F
:10117000003C0140043C0140083C01400C3C014063
:10118000143C01402DE9F0410024002500260027F1
:101190001F48006810F00C00002804D0042804D078
:1011A000082804D031E01B4830E01B482EE0DFF86F
:1011B0006C80D8F8000010F03F000400D8F8000060
:1011C00040020CD5D8F80000C0F388101249A1FBEA
:1011D000000122000023FFF7CBFC05000BE0D8F84C
:1011E0000000C0F388100B49A1FB0001220000237E
:1011F000FFF7BEFC0500D8F80000C0F30140401C1A
:1012000040000600B5FBF6F000E00248BDE8F081C2
:10121000083802400024F40000127A00043802402A
:1012200010B504004FF47A700D490978B0FBF1F065
:101230000C490968B1FBF0F0FFF748FE002801D027
:1012400001200CE0102C09D2002221005FF0FF30B9
:10125000FFF720FE04480460002000E0012010BDDC
:1012600008000020040000200000002070470EE06D
:1012700002684368024408305FEAC37C44BF4B44C1
:101280005B1E52F804CB43F804CB091FF9D150F888
:10129000041B0029ECD1704762F30F2262F31F4256
:1012A000401810F0030308D0C91A1FD3DB0748BF4A
:1012B00000F8012D28BF20F8022D130030B4144689
:1012C0001546103928BF20E93C00FAD8490728BF45
:1012D00020E90C0048BF40F8042D890028BF20F801
:1012E000022D48BF00F8012D30BC7047C91818BF47
:1012F00000F8012DCB0728BF00F8012D704770477B
:1013000030B599B000F05CFA00F037F800F019F948
:1013100000F09AF800F0AFF800F0F9F800F06AFA7F
:10132000642200216846FFF7E7FD0025012400F054
:1013300087FAFA23220092B268462900C9B2014412
:10134000DFF83C04FEF7D3FF0028F0D16D1C280025
:10135000C0B2632801DB0020050068462900C9B23D
:10136000084410F8010C0D28E1D10A2069462A0032
:10137000D2B2114401F8010CD9E780B598B03022FF
:10138000002106A8FFF7B8FD1422002101A8FFF7ED
:10139000B3FD1822002112A8FFF7AEFD0020009037
:1013A000DFF8E003016851F080510160006810F03F
:1013B00080500090009800200090DFF8CC03016876
:1013C00051F440410160006810F4404000900098E2
:1013D000092006905FF48030079001200B900220D6
:1013E0000C905FF480000D9004200E90C0200F90B0
:1013F000042010900820119006A800F045FA00285B
:1014000001D000F0DBF90F200190022002900020B3
:1014100003904FF4A050049000200590032101A8F0
:10142000FFF7DEFA002801D000F0C8F90220129080
:101430004FF40070169012A800F014FC002801D0A0
:1014400000F0BCF919B000BD80B5D048D0490160AA
:10145000002141607F218160FF21C1600021016185
:10146000002141610021816100F0B8FC002801D019
:1014700000F0A4F901BD18B58BB01022002107A817
:10148000FFF73AFD1422002102A8FFF735FD0822DC
:1014900000216846FFF730FDBE4CBF4820600020A9
:1014A00060600020A0600020E0600020206100203B
:1014B00060610020A061200000F030FD002801D014
:1014C00000F07CF94FF48050079007A9200000F04D
:1014D00041FD002801D000F071F9002002900020A9
:1014E000039002A9200000F0ABFD002801D000F01D
:1014F00065F900200090002001906946200000F06E
:10150000B1FE002801D000F059F90CB010BD80B533
:101510009B48A24901605FF4E13141600021816094
:101520000021C160002101610C2141610021816124
:101530000021C161FEF730FE002801D000F03EF925
:1015400001BD2DE9F04186B0142200216846FFF765
:10155000D3FC002005909248016851F01001016011
:10156000016811F0100105910599002105910168AC
:1015700051F004010160016811F004010591059921
:1015800000210591016851F080010160016811F0AE
:1015900080010591059900210591016851F0010133
:1015A0000160016811F00101059105990021059183
:1015B000016851F002010160016811F0020105911A
:1015C000059900210591016851F00801016000684A
:1015D00010F0080005900598724F0022082138008D
:1015E000FFF789FD704C002201212000FFF783FDE9
:1015F0004FF210086D4D002241462800FFF77BFD99
:1016000004200090002001900020029069463800DC
:10161000FFF77CFC08200090012001900020029040
:101620000020039069463800FFF770FC32200090DC
:101630005F4E01960020029069463800FFF766FC75
:1016400001200090012001900020029000200390D2
:1016500069462000FFF75AFC082000900220019004
:10166000002002900020039005200490694620008D
:10167000FFF74CFC012000900196002002904D4E97
:1016800069463000FFF742FC1020009002200190D4
:10169000002002900020039006200490694630004C
:1016A000FFF734FCE020009002200190002002901F
:1016B000032003900520049069463000FFF726FCC4
:1016C0004FF4A050009002200190002002900020D2
:1016D000039005200490384F69463800FFF716FC48
:1016E000CDF800800120019000200290002003909E
:1016F00069462800FFF70AFC4FF4A450009002202E
:10170000019000200290002003900620049069467A
:101710002000FFF7FBFB4FF4C06000900220019017
:1017200001200290032003900720049069463000B6
:10173000FFF7ECFB20200090002001900020029099
:1017400069462800FFF7E2FB4FF41070009012206A
:101750000190012002900320039004200490694628
:101760003800FFF7D3FB002200210620FFF792FB91
:101770000620FFF7A4FB06B0BDE8F08100487047E3
:101780004C01002040380240007000408C010020D5
:10179000002800400C0100200000014000440040EF
:1017A000303802400010024000080240000C0240A5
:1017B00000001110000002400004024070470000C9
:1017C00080B50B48016851F400710160016851F463
:1017D00080610160016851F4807101600320FFF7AE
:1017E00053FB0020FFF71CFDFFF778F8002002BD37
:1017F000003C024080B500F07FFDDFF8380000F0CB
:101800007DFD0AA000F07AFD09A000F077FD002020
:10181000DFF8241008600020B0F5807F05D2002199
:10182000DFF818201154401CF6E701BD0D0A000036
:101830003E20000014230008AC0100200C00002012
:1018400038B501210D48FFF74BFC00280FD1FFF7F9
:10185000C1F804000A4D2868201AB0F5FA7F0CD3AD
:101860004FF480510748FFF753FC2C6005E000223D
:101870004FF480510348FFF73EFC31BD00000240A9
:10188000B4010020000C02402DE9F8430400002CB4
:1018900001D10120CFE12078C0075FD5DFF89C039C
:1018A000016811F00C01042909D0006810F00C0047
:1018B00008280ED1DFF888030068400209D5DFF858
:1018C00084030068800349D56068002846D1012060
:1018D000B1E16068B0F5803F06D1DFF868030168C8
:1018E00051F48031016018E06068B0F5A02F0AD192
:1018F000DFF85003016851F480210160016851F460
:101900008031016009E0DFF83C03016831F4803187
:101910000160016831F480210160606800280ED008
:10192000FFF758F80500DFF81C030068800315D4A2
:10193000FFF750F8401B6528F5D303207BE1FFF744
:1019400049F80500DFF8FC020068800306D5FFF7C0
:1019500041F8401B6528F5D303206CE1207880070F
:101960004BD5B648016811F00C0F08D0006810F094
:101970000C00082814D1B2480068400210D4B148C5
:101980000168890704D5E168012901D0012052E1ED
:10199000016831F0F801226951EAC20101602CE0CE
:1019A000E068002818D00120A7490860FFF712F866
:1019B0000500A4480168890706D4FFF70BF8401B0F
:1019C0000328F6D3032036E1016831F0F8012269DB
:1019D00051EAC201016010E000209B490860FEF757
:1019E000F9FF050097480068800706D5FEF7F2FF6B
:1019F000401B0328F6D303201DE12078000724D5DF
:101A00006069002810D0012090490860FEF7E2FFCD
:101A100005008F480068800717D4FEF7DBFF401BE6
:101A20000328F6D3032006E1002088490860FEF76A
:101A3000D1FF050086480068800706D5FEF7CAFF7B
:101A4000401B0328F6D30320F5E0207840077CD51F
:101A50000027DFF80082D8F80000C0000FD4002073
:101A60000090D8F8000050F08050C8F80000D8F876
:101A7000000010F080500090009801200700DFF86F
:101A8000D891D9F80000C00513D4D9F8000050F45B
:101A90008070C9F80000FEF79DFF0500D9F800002E
:101AA000C00506D4FEF796FF401B0328F6D303209B
:101AB000C1E0A068012805D16848016851F0010122
:101AC000016015E0A068052809D16448016851F05B
:101AD00004010160016851F00101016008E05F4804
:101AE0000168490849000160016831F004010160A2
:101AF000A06800280FD0FEF76DFF0500574800686A
:101B0000800718D4FEF766FF401B41F289318842F6
:101B1000F4D303208FE0FEF75DFF05004F48006817
:101B2000800708D5FEF756FF401B41F289318842F5
:101B3000F4D303207FE03800C0B2012805D1D8F8E3
:101B4000000030F08050C8F80000A069002871D073
:101B50003A48006810F00C00082847D0A069022815
:101B600033D13F4F00203860FEF734FF8046DFF866
:101B7000D490D9F80000800107D5FEF72BFFB0EB19
:101B800008000328F3D3032055E0E169206A0143EC
:101B9000606A51EA8011A06A4008401E51EA004183
:101BA000E06A51EA00612648016001203860FEF7D2
:101BB00011FF0500D9F8000080013BD4FEF70AFFB1
:101BC000401B0328F6D3032035E000202449086099
:101BD000FEF700FF05001B48006880012AD5FEF7CC
:101BE000F9FE401B0328F6D3032024E0A069012856
:101BF00001D101201FE012480068060016F48000A1
:101C0000E169884214D116F03F00216A88420FD161
:101C100047F6C0703040616A884209D116F44030FE
:101C2000A16A884204D116F07060E16A884201D04E
:101C3000012000E00020BDE8F28300BF0838024028
:101C4000043802400038024000004742800E4742FC
:101C50007438024040380240007000407038024042
:101C6000600047422DE9F84305000026002428784B
:101C700010F0050F2ED0DFF83C7100203860FEF721
:101C8000A9FE8046DFF83091D9F80000000107D5A1
:101C9000FEF7A0FEB0EB08000328F3D3032087E093
:101CA0006868A96850EA8110E96850EA0170DFF8B5
:101CB0000C11086001203860FEF78CFE0600D9F890
:101CC0000000000106D4FEF785FE801B0328F6D332
:101CD00003206DE02878800763D500200090DFF8AE
:101CE000E000016851F080510160006810F0805000
:101CF00000900098DFF8CC70386850F4807038603D
:101D0000FEF768FE06003868C00506D4FEF762FEDE
:101D1000801B0328F7D303204AE0DFF8AC70386853
:101D200010F440700400002C20D0286910F440709A
:101D300084421BD0386830F44070040023480121ED
:101D40000160002101603C603868C0070ED5FEF7D5
:101D500041FE06003868800708D4FEF73BFE801B72
:101D600041F289318842F5D3032021E0286910F43B
:101D70004070B0F5407F09D115490A6832F4F81275
:101D80002B69144803401A430A6004E010480168B4
:101D900031F4F8110160386829690905090D084313
:101DA00038602878000702D5287D0B49086000209C
:101DB000BDE8F283680047420038024084380240A0
:101DC000403802400070004070380240400E4742E8
:101DD00008380240FFFCFF0FE011474210B5040035
:101DE000002C01D101205EE0607F002804D100209A
:101DF00020772000FEF78FFD02206077CA2021683F
:101E00004862532021684862200000F06AF80028E8
:101E100006D0FF202168486204206077012042E05C
:101E200020688168DFF880000140206881602068B8
:101E3000816860680143206901436069014320684B
:101E40008160E0682168086120680069A16850EA43
:101E50000140216808612068C06830F08000216876
:101E6000C8602068806880060BD4200000F01EF84F
:101E7000002806D0FF2021684862042060770120F6
:101E800011E02068006C30F480202168086420682C
:101E9000016CA069014320680164FF202168486249
:101EA00001206077002010BDBFFF8FFF70B50400D8
:101EB00000252068C06830F0A0002168C860FEF7E7
:101EC00089FD06002068C068800608D4FEF782FD00
:101ED000801B40F2E9318842F4D3032000E0002067
:101EE00070BD38B5040000252068C068400613D4D2
:101EF0005FF0FF302168C860FEF76CFD05002068C8
:101F0000C068400608D4FEF765FD401B40F2E93189
:101F10008842F4D3032000E0002032BD10B5040055
:101F2000002C01D1012014E094F83D00002805D1D7
:101F3000002084F83C002000FEF7F5FC022084F825
:101F40003D00211D206800F0ACF8012084F83D0020
:101F5000002010BD70B504000D0094F83C0001286D
:101F600001D102206BE0012084F83C00022084F8BB
:101F70003D002068866836F0770636F47F46206894
:101F80008660286800284ED010284CD020284AD0DF
:101F9000302848D040283CD0502826D060282ED069
:101FA000702807D0B0F5805F03D0B0F5005F0FD088
:101FB0003EE03DE0EB686A68A968206800F047F9F8
:101FC0002068806850F077000600206886602FE067
:101FD000EB686A68A968206800F039F920688068B1
:101FE00050F480402168886022E0EA6869682068CF
:101FF00000F000F95021206800F021F918E0EA68AB
:102000006968206800F008F96021206800F017F97D
:102010000EE0EA686968206800F0ECF8402120686A
:1020200000F00DF904E02968206800F008F9FFE7E6
:10203000012084F83D00002084F83C00002070BDA1
:1020400038B504000D0094F83C00012801D10220AD
:1020500026E0012084F83C00022084F83D0029009D
:10206000200000F05FF8002807D0012084F83D0030
:10207000002084F83C00012012E02068C06830F0A5
:1020800040002168C8602068C06830F48040216842
:10209000C860012084F83D00002084F83C00002046
:1020A00032BD10B404684C4B98420BD0B0F1804F55
:1020B00008D04A4A904205D0494A904202D0494A43
:1020C000904203D134F070044A681443984214D00B
:1020D000B0F1804F11D0414A90420ED0404A904218
:1020E0000BD0404A904208D03F4A904205D03F4A28
:1020F000904202D03E4A904203D134F44074CA6800
:10210000144334F080044A69144304608A68C2624C
:102110000A688262984201D10A690263012242611F
:1021200010BC70472DE9F04104000D002068D0F884
:10213000088038F07008686850EA08085FEAD80834
:102140005FEAC808286850EA08082068C0F80880D4
:10215000686800283BD0102839D0202837D0302894
:1021600035D040280CD0502825D0602829D07028A0
:102170002ED12B69AA68E968206800F068F827E08A
:102180002868052801D1012023E02068006A0700A3
:102190002068006A40084000216808622068806961
:1021A00030F0F000296950EA0110060020688661CD
:1021B000206807620CE02A69A968206800F01AF814
:1021C00006E02A69A968206800F026F800E0FFE729
:1021D0000020BDE8F0810000000001400004004044
:1021E00000080040000C0040004001400044014055
:1021F0000048014010B4046A036A5B085B00036294
:10220000836933F0F00353EA021334F00A040C43F9
:102210008361046210BC704710B4036A33F010038A
:1022200003628369046A33F4704353EA023334F07F
:10223000A00454EA01148361046210BC70478268F0
:1022400032F070020A4352F007028260704710B405
:10225000846834F47F440C43144354EA03248460B8
:1022600010BC704730B4020092F83C00012801D144
:10227000022034E0012082F83C00022082F83D0078
:10228000106843681068846833F07003086803437B
:10229000106843601068134DA84213D01068B0F165
:1022A000804F0FD01068104DA8420BD010680F4D12
:1022B000A84207D010680E4DA84203D010680D4DFB
:1022C000A84205D134F08004486804431068846053
:1022D000012082F83D00002082F83C00002030BC44
:1022E000704700000000014000040040000800406A
:1022F000000C0040004001400020704710B5040071
:10230000FFF73CFA142364222100FDF780FF002030
:1023100010BD000057656C636F6D6520746F20748D
:10232000686520436F6E736F6C696E61746F722C99
:1023300020796F7572206761746577617920746F99
:102340002074657374696E6720636F646520616EC5
:10235000642068617264776172652E0030B4002574
:1023600012E050F8042BD30744BF4A44521E091F01
:10237000042942F8045BFAD213468C0744BF158047
:102380009B1CC90748BF1D7050F8041B0029E8D1E9
:1023900030BC704710B5074979441831064C7C446D
:1023A000163404E00A68081D114488470146A1421A
:1023B000F8D110BD68000000880000007047FEE7FB
:1023C000FEE7FEE7FEE770477047704780B500F014
:1023D00007F801BD80B50120FEF7ABFE01BD00008E
:1023E00003480168034A127889180160704700BFEA
:1023F000B0010020080000204EF68851CEF2000106
:10240000086840F470000860BFF34F8FBFF36F8F10
:102410004FF00170E1EE100A7047000041FFFFFF2E
:10242000AC0100000C0000200000000043EEFFFFA4
:102430000C000000AC0000000000002000000000C4
:1024400000F00DF8002801D0FFF7A4FFAFF30080E3
:102450000020AFF30080FEF753FF00F002F80120E8
:10246000704700F001B800000746384600F002F857
:10247000FBE7000080B5AFF30080024A110018208E
:10248000ABBEFBE7260002000448016851F470016E
:1024900001605FF0006002490860704788ED00E06D
:1024A00008ED00E00548014603B4684680F309885A
:1024B000AFF30080FFF7A0FFFFF7C2FFA5EDF5FE29
:1024C00000000000000000000102030406070809E4
:1024D000014880470148004789240008A5240008D6
:1024E000100000000024F4000100000000000000C3
:1024F00001020304FFF7FEBFFFF7FEBFFFF7FEBFB9
:10250000FFF7FEBFFFF7FEBFFFF7FEBFFFF7FEBFFF
:10251000FFF7FEBFFFF7FEBFFFF7FEBFFFF7FEBFEF
:10252000FFF7FEBFFFF7FEBFFFF7FEBFFFF7FEBFDF
:10253000FFF7FEBFFFF7FEBFFFF7FEBFFFF7FEBFCF
:10254000FFF7FEBFFFF7FEBFFFF7FEBFFFF7FEBFBF
:10255000FFF7FEBFFFF7FEBFFFF7FEBFFFF7FEBFAF
:10256000FFF7FEBFFFF7FEBFFFF7FEBFFFF7FEBF9F
:10257000FFF7FEBFFFF7FEBFFFF7FEBFFFF7FEBF8F
:10258000FFF7FEBFFFF7FEBFFFF7FEBFFFF7FEBF7F
:10259000FFF7FEBFFFF7FEBFFFF7FEBFFFF7FEBF6F
:1025A000FFF7FEBFFFF7FEBFFFF7FEBFFFF7FEBF5F
:1025B000FFF7FEBFFFF7FEBFFFF7FEBFFFF7FEBF4F
:1025C000FFF7FEBFFFF7FEBFFFF7FEBFFFF7FEBF3F
:0425D000FFF7FEBF54
:04000005080024A526
:00000001FF
