:020000040800F2
:10000000400C0020753B0008E13A0008E33A000884
:10001000E53A0008E73A0008E93A00080000000065
:10002000000000000000000000000000EB3A0008A3
:10003000ED3A000800000000EF3A0008F13A00082D
:10004000913B0008953B0008993B00089D3B000848
:10005000A13B0008A53B0008A93B0008AD3B0008F8
:10006000B13B0008B53B0008B93B0008BD3B0008A8
:10007000C13B0008C53B0008C93B0008CD3B000858
:10008000D13B0008D53B0008D93B00080000000028
:10009000000000000000000000000000DD3B000840
:1000A000E13B0008E53B0008E93B0008ED3B0008A8
:1000B000F13B0008F53B0008F93B0008FD3B000858
:1000C000013C0008053C0008093C00080D3C000804
:1000D000113C0008153C0008193C00080000000015
:1000E0001D3C0008213C0008253C000800000000E1
:1000F000000000000000000000000000293C000893
:10010000000000002D3C0008313C0008353C000890
:1001100000000000000000000000000000000000DF
:10012000393C00083D3C0008413C0008453C0008C3
:10013000493C000800000000000000000000000032
:10014000000000000000000000000000F53A000878
:100150004D3C0008513C0008553C0008593C000843
:100160005D3C0008613C0008000000000000000049
:10017000000000000000000000000000000000007F
:1001800000000000653C00080000000000000000C6
:10019000693C00086D3C000870B58AB0040008BFD7
:1001A000012028D0266804F52E75687820B9002132
:1001B0002970204600F0DCFB03206870F16BC80555
:1001C0005CBF00212161206800F01AFD83B000F0BF
:1001D00014F80EBC206800F0D3FC2068012100F068
:1001E00015FD83B000F009F80EBC206800F086FD14
:1001F0000120687000200AB070BD211D68463422BD
:1002000000F0FABFFEB5064696F8B802012801D103
:100210000220FEBD0A98099C089D012786F8B87245
:100220008E46282717FB0EFE06EB0E0738374FF0D9
:10023000000C87F805C012F0800E02F07F0C87F8E2
:1002400002C03B7038817970FC71F44618BF4FF0E2
:10025000010C87F803C03D7102900194009530684D
:1002600000F026FE002186F8B812FEBD10B500F0A1
:1002700041FB01D1022010BD00F041FB00F025FF41
:1002800034E30000F8B50E46282466430644069D74
:1002900006F13907BA70BB7135B9099C3C714FF052
:1002A000030C87F809C001E002247C72032B089C30
:1002B00006F1440E13D8DFE803F002100C0C012DF8
:1002C00008BF002A0BD1220004D101228EF80D2094
:1002D00000E0D2B99EF80D20DAB900237B72079AAC
:1002E000CEF80020CEF8044000228EF81820CEF878
:1002F000082039708EF8192006F13801026900686B
:10030000BDE8F840D2B200F043BE9EF80C20002AAF
:10031000E3D00223E2E72DE9FE4F05462C68204694
:1003200000F0D2FC012840F0A28200F0BEFA0028C2
:1003300000F09D8200F0B9FA800203D52A684FF4DC
:100340000011516100F0B1FAC00203D52A684FF4E0
:100350008011516100F0A9FA400103D52A684FF0DD
:100360008061516100F0A1FA800702D52A6802215C
:10037000516100F09AFA80000FD52A684FF00051C1
:10038000516104F588600168CA0706D4284600F068
:1003900040FB2868012100F026FD00F086FAC0012C
:1003A00049D52F6807F58866316801913268009257
:1003B000009820F02E0000900198810709D501983F
:1003C000C10744BF284600F020FB009840F002001F
:1003D00000900198010725D5009840F00800009092
:1003E000019841071BD5A86902280BD128680199FB
:1003F00001F4C021B1F5802F0CBF0221012100F0D2
:10040000F2FC08E0E868012805D107F5806B4EF69C
:100410006021CBF80410284600F000FB02E02846DB
:1004200000F000FB0198810603D5009840F0200001
:1004300000900098306000F038FA000705D5284693
:1004400000F0DFFA29680820486100F02EFA8001E8
:1004500040F1CD81286800F033FE00230294019022
:1004600000934FF4806B4FF0020811E080F8008099
:1004700005E080F800803A6868F39F723A600223D2
:10048000BB600278284600F0C8FA0098401C009033
:100490000098A968884280F0A6810099019801F02F
:1004A0000F01C840C007F0D50298009A9DF80010CF
:1004B0002F6800EB421000F5A0604FF40076006852
:1004C000020440F1EE80894607EB491707F5A06763
:1004D000282010FB09F005EB000AB86841070AF173
:1004E0005C0402D500F0CEF92BE0B868C10506D552
:1004F0004FF48070B860072100F0CBF910E0B868C5
:10050000810602D52020B8601BE0B86801070BD532
:1005100000F0C0F9052161701020B8600821B960B1
:10052000494600F0C9F90CE0B868410509D500F06A
:10053000B6F900F0C1F91020B86008216170C7F861
:1005400008B0B868810505D500F0A9F900F0B4F944
:10055000BE609AE7B868C1073BD5286938B1DAF8B8
:1005600048003969C1F31201401ACAF84C00012051
:1005700060700021CAF85810B8609AF83F0000284F
:1005800018BF022818D0032807D1386840F000505F
:10059000386001212170012209E0012812D1207068
:1005A0009AF8501081F001018AF8501022784946DB
:1005B000284600F032FA05E000F071F900F07CF90D
:1005C0001020B8609AF8500080F001008AF85000BE
:1005D0005BE7B868810735D5F86820F00200F8605D
:1005E0006078012814BF0528207026D0062818BF7F
:1005F00008280FD0032806D184F80080396868F3F2
:100600009F71396019E0072817D100F035F90421EE
:10061000217012E0DAF85800401C0428CAF858008B
:1006200005D30020CAF858000421217001E084F8A5
:100630000080386868F39F7038600221B9604946CD
:1006400022781FE7B86801060BD500F023F90621D0
:1006500000F012F96170494600F02EF98020B86070
:1006600013E7B868C106FBD59AF83F00032807D105
:100670000020CAF85800F96841F00201F9600BE067
:10068000002818BF02280AD10021CAF8581028698A
:1006900028B9032100F0FDF8494600F00DF91020BB
:1006A000DDE707EB411707F5A067B868420702D5F9
:1006B00000F0E8F8E9E62820BA6810FB01F02C18F1
:1006C000920604F13C0304F15C000BD52022BA60D1
:1006D0005A78012A05D100225A7080F8008000F073
:1006E000E7F8D2E6BA68520608D5042084F85D001F
:1006F00001225A7000F0E3F84020B0E7BA68920592
:1007000002D500F0C7F821E7BA68D60706D500F091
:10071000D6F80120B86084F85D00B6E6BA6816071E
:1007200009D50820B860FA6842F00202FA6000F0C9
:10073000C3F80520EFE7BA68D6060ED50020D861C9
:10074000032684F85D605A78002A01BF18780028D3
:1007500001225A7000F0ACF8A1E7BA68160607D576
:1007600000F0A6F8062084F85D008021B9608CE6D0
:10077000BA68560509D500F09BF81020B860C7F894
:1007800008B0082184F85D107FE6BA689607FBD5AB
:10079000FA6822F00202FA6094F85D20012A0AD178
:1007A0000270DA78022A18BF032A03D15A7D82F038
:1007B00001025A7563E6032A18BF042A3FF456AEB5
:1007C000052A08BF0270F5D0062A18BF082AF1D101
:1007D000DA69521C042ADA61FFF44BAE0022DA61B6
:1007E0000423037047E629684FF00070486100F069
:1007F0005CF8C0063BD52868816921F01001816151
:100800002868016A01F00F04C1F30A19C1F34341DA
:100810000229064626D1B9F1000F23D0282111FB69
:1008200004F16F18796CE9B14A4600F036FA786C39
:100830004844786406EB4416F96C894406F5A066D2
:10084000C7F84C9030690B4908420BD0306820F053
:10085000804040F00040306097F8500080F0010088
:1008600087F850002868816941F010018161BDE876
:10087000F78F00000000F81FDAF85800401CCAF893
:10088000580070470420B860F96841F00201F9602F
:1008900070476170F86840F00200F8607047F868CF
:1008A00040F00200F86049467047286800F007BA37
:1008B000F86840F00200F860286800F006BC0020EC
:1008C000D861FA6842F00202FA60286800F0FDBBC5
:1008D00010B500F00FF801D1022010BD00F00FF8A4
:1008E00000F08AF92068012100F0B0FA002084F8B5
:1008F000B80210BD044694F8B802012870470120E0
:1009000084F8B8022068704710B5FFF7F3FF01D1F3
:10091000022010BDFFF7F3FF00F02EFCE6E70068B1
:1009200000F079BA28225143084490F85C007047DF
:10093000282251430844C06C7047006800F0B2BAE6
:10094000006800F0A3BA0EE0026843680244083071
:100950005FEAC37C44BF4B445B1E52F804CB43F8B0
:1009600004CB091FF9D150F8041B0029ECD17047C2
:1009700038B586B00446142101A800F049FC22686D
:10098000B2F1A04F3BD100203C4C3D4D00900022E5
:10099000216841F0010121604FF40071206800F0EE
:1009A00001000090009801910292039201A928464B
:1009B00000F032FC02210291002203924FF4E05039
:1009C0000321019004910A22059201A9284600F012
:1009D00023FC606840F080006060002100910022EC
:1009E000606940F480406061606900F4804000907C
:1009F0000098432000F01CFD432000F036FD07B0B6
:100A000030BDD0F8C00200F087BFD0F8C00200F0BF
:100A100097BFD0F8C00200F09DBF7047D0F8C00269
:100A200000F088BFD0F8C00200F086BF38B5044699
:100A300004F57370017801291CD1124DC5F8C0422C
:100A400045604FF0A04028600821A96000200122E5
:100A500028610221E861EA60A9612846FFF79CFB52
:100A600008B101F00FF92846FFF767FF014620465D
:100A700000F04FFF002032BD00000000303802407F
:100A8000000002400804002080B5D0F8D003FFF732
:100A90001FFFBDE8024069E080B5D0F8D003FFF742
:100AA00033FFF6E710B5D0F8D003FFF749FF012474
:100AB00018B1022808BF022400E00024204610BD1F
:100AC00080B5D0F8D003FFF72AFFE2E7D0F8D003D3
:100AD000FFF72EBF3EB5BDF820409DF81C50029494
:100AE00001959DF818400094D0F8D003FFF78AFBD9
:100AF000BDE83E403AE080B5D0F8D003FFF7B6FB42
:100B0000C7E738B584B09DF82C40BDF82850039451
:100B10000295099C9DF8205001940095D0F8D003CF
:100B2000FFF7B0FB05B0BDE830401FE0D0F8D003C0
:100B3000FFF7F8BE80B590F8CC03012804BF084643
:100B400001F0A2F8C82001F0A9F8002002BDD0F8F9
:100B5000D00328235943014411F83B0F002814BF48
:100B60004A758A750020704701F098B80146002048
:100B700021B1022901D101207047022070470000F5
:100B80000EB418B504460898012817D1A06B20F4BC
:100B90008030A063E168DFF82C020140E160E16889
:100BA00021F44011E1600F98012803D1E06840F47E
:100BB0008010E060204600F08BF80FE0E06840F025
:100BC0004000E060204600F083F80C990029A16BFA
:100BD0000CBF41F4803121F48031A16306990129D1
:100BE00007D1A16841F00601A160A16841F0200190
:100BF000A16012BC5DF810FB816841F0010102E0C8
:100C000081684908490081600020704780B5C2684A
:100C100022F0C0420129C26008D1C16841F00051F0
:100C2000C160322001F03AF8002002BD19B9C16854
:100C300041F08041F4E7012002BD890141F020012B
:100C40000161DFF81015491E03D002699306FAD43A
:100C500001E0032070470020704710210161DFF898
:100C6000F414491E03D00269D306FAD401E003202C
:100C7000704700207047B8B5059C64B9DB1C07E0DD
:100C800000EB023751F8045B07F58057641C3D60A8
:100C9000B4EB930FF4D30020B2BD10B5D21C0023E7
:100CA00005E000F580545B1C246841F8044BB3EB6D
:100CB000920FF6D3084610BD016000207047014630
:100CC0004869896908407047406900F00100704731
:100CD000DFF880241146491E0CD00369002BFAD599
:100CE000016941F001010161521E03D00169CB0786
:100CF000FAD401E003207047002070470EB45CB5C1
:100D0000044604F5606100200860A26B42F4001202
:100D1000A26300F060F8A06304F58060E16BCA058F
:100D20000BD50799012903D1026842F0040207E0BC
:100D3000016821F00401016003E0026822F004026E
:100D4000026010212046FFF778FF2046FFF785FF5D
:100D500000204FF0FF36002203E000F047FA8E60DB
:100D6000CA6006998842F8D30121204600F06EF847
:100D7000C82000F093FF0020A0616661E06BC10510
:100D80000AD54FF400706062DFF8D013DFF8D003AB
:100D9000A162C4F8000108E080216162DFF8C403A9
:100DA000DFF8C413A062C4F80011089800F00CF832
:100DB000DFF8B8030143A161002056BC5DF810FBC9
:100DC00000000000BFFFBDFF18B9A06940F010008F
:100DD000A061A1697047A06B20F40020A063A06B04
:100DE00020F48020704710B500F5806001F0030406
:100DF000026892089200026003682343036001299D
:100E000008BF4BF6803103D0022902D141F2707144
:100E10004160002010BD1CB5002100F588640091E0
:100E200022680092009820F02E0000906420009923
:100E300041F48071216000F031FF009820F480704F
:100E400020600A2000F02AFF002016BD18B50023FC
:100E500000F58860009304680094009A22F02E0246
:100E60000092009AD30407D4012905D1009941F4D6
:100E700080510160009807E0009AD30404D519B9A5
:100E8000009921F480510160002012BD81B0002141
:100E900000F588600091026800920098C0F341401C
:100EA00001B0704700F58060806880B27047000034
:100EB0002DE9F04300EB4117089D002407F5A067DA
:100EC0004FF0FF3E032DC7F808E02AD8DFE805F011
:100ED000021F021640F29D491606C7F80C9006D56F
:100EE000D7F80CC04CF4807CC7F80CC01AE0C66B75
:100EF000F60517D5FE6846F0600610E040F29D66E4
:100F0000FE6016060ED5FE6846F4807607E040F2D5
:100F10002526FE60160605D5FE6846F4C076FE60FE
:100F200000E00124079E00F580684FF00109D8F821
:100F300018C001F00F0109FA01F141EA0C01C8F8EB
:100F40001810816941F000718161D109022E0CBF36
:100F50004FF4003600269B05D20203F0FE5302F444
:100F6000F04213430998AA0402F440221343C0F349
:100F70000A00034343EAC1333343032D3B6003D1EB
:100F8000386840F0005038602046BDE8F08300002B
:100F9000F8B54C78C36B00EB4416DF0506F5A06688
:100FA00012D50B7983B9130006D14B79012B0BD1E4
:100FB000214600F0C3F881E0012A05D1F36823F04F
:100FC0006003F36000244C710B696BB10C89E3186A
:100FD0005B1EB3FBF4F7BFB2B7F5807F05DD2402DB
:100FE0004FF480770C6100E00127CB7813B10B89B7
:100FF0007B430B610B69584CC3F3120304EAC744EB
:101000008F7A7F07234307F0C0473B4333611300C8
:101010001CBFCB68736100F58065AB68346824F051
:101020000054346003F001033768514C83F001032E
:1010300047EA4377376033682360276827F08047A3
:101040002760CB7823B1276847F40047276003E087
:10105000236823F400432360002A276847F00047F1
:1010600027602368336004BFCA78002A26D10A6942
:1010700022B3CB79032B19D8DFE803F0020D020D60
:10108000C46AD21CA4B29203B4EB124F0ED282698E
:1010900042F0200209E02B69D21C9BB29203B3EB11
:1010A000124F03D2826942F0806282610022009274
:1010B0004A780B69C9689BB2FFF7DDFD0020F2BDDD
:1010C00000F58060406980B27047024610B502EBBF
:1010D000411303F5A0631868C0F3814140F2E93081
:1010E000002918BF022907D1196841F08041196011
:1010F000D26A12F47F0F08E0196841F0804119604C
:1011000002F58064216911F47F0F11D1196821F073
:10111000004119601A6842F000421A60196821F40F
:1011200000411960401E07D019680029FAD403E075
:10113000186840F000401860002010BD00EB41101E
:1011400000F5A0600B490161016821F0804141F088
:101150000041B1E5410D03000000F81F000200014D
:101160000003E00080006000E0004000080020A3D1
:10117000300800200000088070B504461021A268E5
:1011800052085200A2600025FFF757FD2046FFF7E6
:1011900064FD002000F02AF80A6822F0802242F064
:1011A000804210280A60F5D3002004EB401101F5BD
:1011B000A0610A6822F4004242F040420A6040F214
:1011C000E9326D1C954202D20B68002BF9D4401C09
:1011D0001028EAD304F580664FF0FF30706160613B
:1011E000A06840F00100A060002070BD04EB401139
:1011F00001F5A061401C70474AB1000011F8013BA5
:10120000521E00F8013B1CBF11F8013BF8E7704784
:10121000002200F057BD00002DE9F84F0D460026D2
:101220006E496F4A0F23044601202F68B04000EA40
:101230000708804540F0BB804FEA460C032707FAB9
:101240000CF76FEA070E6F68012F18BF022F03D04B
:10125000112F18BF122F12D1A768D5F80C900EEAE3
:10126000070709FA0CF949EA0707A760676827EA40
:1012700000006F68C7F30017B74038436060E0684C
:10128000AF680EEA000007FA0CF73843E060B000E0
:101290006F68022F18BF122F12D1F70804EB8707CF
:1012A00000F01C09D7F820A003FA09FB2AEA0B0A70
:1012B000D5F810B00BFA09F949EA0A09C7F82090E5
:1012C00027680EEA070E2F7907F0030707FA0CF7D5
:1012D00047EA0E0CC4F800C06F68FF0067D500270E
:1012E00000974FEA960CD2F800E04EF4804EC2F818
:1012F00000E000F00C00176807F480470097DDF865
:1013000000E0384F57F82C7003FA00FE27EA0E0E63
:10131000354FBC4208BF002713D0344FBC4208BF32
:1013200001270ED0324FBC4208BF022709D0314FEF
:10133000BC4208BF032704D02F4FBC420CBF042778
:10134000072707FA00F040EA0E00DFF898E04EF8B1
:101350002C006FEA0800D1F800C06F6800EA0C0C9E
:10136000FF0348BF48EA0C0CC1F800C0D1F804C024
:101370006F6800EA0C0CBF0348BF48EA0C0CC1F8C8
:1013800004C0D1F808C06F6800EA0C0CFF0248BF27
:1013900048EA0C0CC1F808C0D1F80CC000EA0C0CEB
:1013A0006868800248BF48EA0C0CC1F80CC0761C83
:1013B0000F2E7FF639AFBDE8F18F0069084018BFE6
:1013C0000120C0B2704702B90904816170474269C7
:1013D0000A408A4208BF090481617047003C01400D
:1013E0004438024008380140000002400004024036
:1013F00000080240000C02400010024009010200F7
:1014000002D4284881547047274B02F00F021A4437
:1014100002F8041C7047254B19684FF6FF020002C2
:10142000114000F4E0600843214908431860704708
:1014300070B51E4B1C68C4F302230124C3F10705D9
:10144000052D2EBF0F2504FA05F56D1E1E1D072E56
:1014500034BF0023DB1E2940994004FA03F3BDE8A2
:1014600070405B1E1A401143C8E7010007D40122F7
:1014700000F01F010F4B8A40400943F820207047BD
:10148000401EB0F1807F01D3012070470A490B4A0A
:1014900048600023F02010708B6007200860002057
:1014A0007047000000E400E018ED00E00CED00E003
:1014B0000000FA0500E100E010E000E023ED00E0AC
:1014C000F8B504000E4601D10220F2BD04F5737593
:1014D00004F548772A700020F8653866204600F049
:1014E0000FF80020F8700021397000227A70B8706F
:1014F000310018BFAE602046FFF798FA0020F2BD19
:1015000010B504463C2104F56170FFF781FE4FF4ED
:10151000007104F58E70FFF77BFE00202070012221
:101520006070A270C4F8C40322764020A07100212C
:1015300004F5477061760022012102704170C2708B
:101540008270002010BD10B50346002051B1D3F8C1
:1015500080233AB9012403EB8202C3F88043C2F826
:10156000781310BD022010BD10B5024602F5497275
:101570000020147EA14201D2117010BD022010BDC6
:10158000F0B50024E5B21A267543054405F242354C
:101590006F798F4218BFFF2909D1AE79964218BFE3
:1015A000FF2A04D1ED799D4218BFFF2B04D0641CA3
:1015B000E5B2022DE6D301E0E0B2F0BDFF20F0BDC0
:1015C00010B50446FFF760FA01212046FFF7B2FA92
:1015D000002010BD7FB5044602208DF8000004F500
:1015E00047756879012804BF0321217021780B29F0
:1015F00004F23D3204F55E761BD8DFE811F00C00F2
:101600001B003600540171015D00380104010C011A
:10161000140121014E01287900280AD001212170EE
:10162000C820FFF7A1FA2046FFF74AFA00202870E9
:10163000306555E1E879012803D10021E9700220E5
:1016400029E1306D40F2E931884208D3E878401C46
:10165000E870C0B2042880F01D81002118E10A3032
:1016600030650A20FFF780FA3AE1F26D12B10421E9
:10167000204690476420FFF777FA2046FFF712FADA
:101680006870002105202070204600F047FB607143
:101690008021204600F042FB20710021A0790290B9
:1016A000019120466A7800922B782179802200F0FF
:1016B00022FB00F022F913E160780126072804F5E7
:1016C0008E720ED8DFE800F06C53392B24190E040B
:1016D000A97E29B100F007F9002818BF032800D11E
:1016E000002681E0697E31B100F0FDF808B10328E1
:1016F0007AD1072041E0072137E0297E31B100F09F
:10170000F2F808B103286FD1062036E006212CE05C
:10171000E98B204600F065FB40B905202DE009214A
:10172000204600F05EFB08B9042026E003285BD1C8
:1017300000F0DDF82AD30D2055E00121204600F00D
:1017400014FC68B90220FFF70FFA2E700321A0796C
:10175000617002900021019101236A7800922DE0CE
:10176000032841D10D202070002161703CE012213E
:10177000204600F0FBFA10B90220607034E0032824
:1017800032D100F0B4F828BF0D202CD200F0F5F8CB
:10179000217900F0F3F8002060700021217023E02F
:1017A0000821204600F0E2FA80B9687CA0716670DA
:1017B000029000200190697800912B782179802295
:1017C000204600F098FA00F098F80DE003280BD1BD
:1017D00000F08DF828BF0D2005D200F0CEF8217959
:1017E00000F0CCF8002020708DF800609DF800001B
:1017F000002875D1E87E00212972012808BF082140
:1018000046D0072047E0F26D002A69D0012120462A
:10181000904708203FE01178204600F0B1FB0028F7
:101820005ED1092037E09178880607D5012120464E
:1018300000F0B3FB002853D10A202CE00A2127E056
:10184000B06800284CD0002171603168927A087924
:1018500090421CD17160D1B1896820468847C8B9CF
:10186000062020700321F26D2046904738E0716811
:1018700081B10969204688478DF800009DF8000075
:1018800008B90B2104E09DF80000022828D10D21A1
:10189000217025E00D20207022E0716801B34969B4
:1018A000204688471CE0002068712046FFF728FE8C
:1018B000716821B1C9682046884700207060F26DC8
:1018C00012B1052120469047A879012805D10021B1
:1018D000A9712046FFF774FE02E02046FFF7D4F816
:1018E000002004B070BDFF23204600F0FDBAA878A8
:1018F000401CA870C0B204287047A0790290002153
:10190000019120466A7800922B786179002200F0DC
:10191000F2B9C0F8C413704700F55F718A6C521CAD
:101920008A6403780B2B04D1096800291CBF8969DC
:1019300008477047012100E0002180F82313704719
:1019400000F548700121017000224270002383706D
:101950000020704710B5044604F54870012141701D
:1019600000220270C2702046FFF796F8217900F03D
:1019700005F800F002F8002010BD6179204600F063
:10198000E9B900002DE9F04186B000F0FBFB00F062
:10199000FCF814220021684600F00EFC002005909F
:1019A0004FF21005A748DFF8A0820168A74CA84EA7
:1019B000A84F41F010010160026802F01002059288
:1019C000002205990592036843F00403036001684F
:1019D00001F0040100F0D4F843F0800303600168D3
:1019E00001F0800100F0CCF843F0010303600168CE
:1019F00001F0010100F0C4F843F002030360016844
:101A000001F002010591059905920821036843F050
:101A100008030360006800F0080005900598404640
:101A2000FFF7D1FC012201212046FFF7CCFC002268
:101A300029463046FFF7C7FC0420002100900191A1
:101A4000029140466946FFF7E7FB08210091012219
:101A5000002102910391019269464046FFF7DCFBA9
:101A60003220002100900291019769464046FFF71D
:101A7000D3FB0121009101912046002102910391A5
:101A80006946FFF7C9FB01210091019700210291EE
:101A900069467148FFF7C0FB0120019000220292C5
:101AA0000392009569463046FFF7B6FB20200021DF
:101AB00000900191029130466946FFF7ADFB674CFB
:101AC00067486849684FA065E165002020660021ED
:101AD0004FF48040A0666166E16621676167A16797
:101AE00004F1580000F072FB04F1AC055F48286077
:101AF0000021012028624FF40076A960E960296185
:101B0000A961E9616E606F61284600F00BFC5848DE
:101B1000A86400212965696529666966A966EE647D
:101B2000AE65EF6504F1F40000F0FCFB04F59E7077
:101B30005049016000227F23FF2142608360C16021
:101B400002614261826100F02BFD4FF4827161609D
:101B50000022494820600A21A260E260226162619D
:101B6000E26122626262A262E162A661204600F046
:101B7000A7FD00F0E7FD00F000FE00F017FEFAE719
:101B80000591059905920368704780B598B0302299
:101B900000210CA800F010FB1422002101A800F085
:101BA0000BFB1822002106A800F006FB0020009085
:101BB0003248016841F0805101600021006800F066
:101BC0008050009000982E4800910921026842F44C
:101BD000404202604FF4A022006800F440400090B0
:101BE00000980C910D920121119102224FF4800175
:101BF00013911292C0211591042208211492169279
:101C000017910CA800F0F8FD022102910F204FF46B
:101C1000A05101900022049103920592032101A892
:101C200000F074FFC8210522089107920320069056
:101C300002214FF4007209910A9206A801F006F8F9
:101C400019B000BD303802400010024000080240C8
:101C5000000C02400000121000000240CC060020E0
:101C600000540040A08601000077010000380040C9
:101C7000003C004000280040003001404038024055
:101C80000070004070470000421E9241D20F0121B7
:101C90000148FFF798BB00BF0008024038B5044672
:101CA00001F0A0F814F1010F054602D004480178B4
:101CB000641801F097F8401BA042FAD331BD00BF71
:101CC0000000002000B500BF13009646944610396E
:101CD00028BFA0E80C50FAD85FEA417C28BF0CC0AE
:101CE00048BF40F8042BC90728BF20F8022B48BF83
:101CF00000F8012B00BD3EB5BDF820409DF81C50FA
:101D0000029401959DF818400094FEF7E3FE002030
:101D10003EBD80B5FEF7EFFE002002BD70B500238A
:101D200000F56174D8B254F820502E0406D55B1C1F
:101D3000D8B20B28F6D34FF6FF7009E04FF6FF72CA
:101D4000904205D041F4004100F00F0344F8231005
:101D5000C0B270BD0B2907D200EB8100D0F884130C
:101D6000C1F30E01C0F88413002070477CB506460D
:101D70000C4606F58E7500942B464FF480720021B8
:101D800000F0D8F801002BD106F226312A780A702B
:101D9000092C6B784B70AA78EB7842EA03224A80D0
:101DA0002A790A716B794B71AA798A71EB79CB71B7
:101DB00016D32A7A6B7A42EA03220A81EB7AAA7A4C
:101DC00042EA03224A816B7B2A7B42EA03228A8110
:101DD000AA7B8A73EB7BCB732A7C0A746B7C4B7473
:101DE00076BD2DE9FC4780460C46009408F11C03A3
:101DF0004FF40072002100F09DF85FEA000970D1F5
:101E000008F54E7798F81C103970002698F81D20B8
:101E10007A700A2C98F81E1098F81F2041EA0221C7
:101E2000798008F11C0098F82010397108F121011F
:101E30000A787A714B78BB718A78FA71C9783972ED
:101E40004FD30921ADF80010BDF800107A889142F7
:101E500047D2694600F0B7F8417804293FD11A22E9
:101E6000724308EB020A0AF242340178217000251D
:101E7000427862708178A170C278E2700179217134
:101E8000427962718179A171C279E271017A21721C
:101E90001AE0694600F097F84178052914D1E9B2B3
:101EA0000AEBC10202F5537103780B706D1C427886
:101EB0004A7083788B70C278CA700379427943EA9A
:101EC00002238B8082798A71E9B2227991423EBFE6
:101ED000BDF800107A889142DBD3761CF6B2022E50
:101EE000B2D34846BDE8F687F8B5044615460093D8
:101EF0001E4604F58E7741F440723B46002100F007
:101F000019F8010004BF7978032912D139788B1EA2
:101F10009E4224BF8E1EB6B2002106E06218891CC4
:101F200092F81E2105F8012B89B2B142F6DB00219F
:101F30002970F2BD38B585781446049A012D10D168
:101F400041F0800101744482062104F47F4441740D
:101F5000B4F5407F07BF40F20941818200248482AA
:101F6000C2821946BDE8384034E08278012A06D1A1
:101F7000002305220374427441828382C38209E0F4
:101F80008278012A06D10023092203744274418217
:101F90008382C382002200211CE08278012A06D1BC
:101FA000002303220374427441828382C382F1E7D7
:101FB0008278012A06D102230374427400234382EB
:101FC0008182C382E6E70A880378D3180B80017800
:101FD000084470477CB505460124A878012802D042
:101FE000022806D0C7E0A960AA8102212876A9703C
:101FF000C1E0287E401E0A2805F571760FD8DFE87B
:1020000000F0A5897F72675248382D200600687E4F
:10201000401C6876C0B2032802D22C76AC709DE0DA
:10202000326906212846904700206876284669795B
:10203000FFF790FE29792846FFF78CFE00202870D4
:1020400044E000F09AF8012802D100240D2084E039
:10205000022808BF0920FAD0042874E00094002266
:102060006B790021284600F0CEFE3068E8810A2115
:1020700064E0297900F082F8012803D10D20287648
:1020800000246BE0042808BF0B2066D0052865D12A
:1020900032E02B7900220021284600F0BAFE306899
:1020A000E88108214AE000F068F8012808BF07200D
:1020B00053D0052802D10C2028761DE0022808BF45
:1020C00005204AD0042849D10B202876022445E077
:1020D00000946B79AA89A968284600F094FE3068BC
:1020E000E88106212AE0297900F048F8012808BF94
:1020F000092032D0052801D103242FE0042822E052
:1021000031682B79AA89E9812846A96800F081FE07
:10211000042022E000F031F8012811D1297CE88A5E
:1021200001F0800128B1802908BF032015D00521C6
:1021300004E0802908BF09200FD0072129760DE08F
:10214000042818BF022809D10B2006E06A7905F19E
:102150001001284600F04CFE02202876002C18BF03
:10216000032C04D101200021A870297603E0022C61
:1021700004BF0120A870204676BD69792846FEF785
:10218000D5BC000080B50B48016841F400710160C6
:10219000026842F480620260016841F4807101606B
:1021A0000320FFF738F9002000F064FE00F082FE03
:1021B000002002BD003C024010B5044610460A460D
:1021C0000146204600F0A8FF204610BDF8B50400E7
:1021D00022D004F13C05697821B9002028702046FE
:1021E00000F084FE2421697000F096F820680168F0
:1021F00041F4004101602068026822F4004202605C
:1022000000F00AFD01466068DFF8F420904205D234
:10221000DFF8F030994205D20120F2BDDFF8E80086
:102220008142F9D32068DFF8E4304668B1FBF3F36C
:10223000B60943EA861646602668376A60689042A7
:1022400006D34FF4967043434FF47A70B3FBF0F328
:102250005B1CBF0943EA87133362491E2368DE69AA
:102260006768974206D27F0000F044F8042913D231
:10227000042111E0A06820B907EB470700F03AF805
:1022800005E01920474300F035F841F48041080586
:102290000CBF012141F40041DFF8740006400E43F9
:1022A000DE6122681368E169206A23F0C0030B43F2
:1022B000034313602268DFF85C00936821690340E0
:1022C000E0680B43034393602268D368A1696069A7
:1022D0001B0A41EA03230343D3602068016841F0ED
:1022E00001010160002068602021697020630021E5
:1022F000A970F2BDB1FBF7F1491CC1F30B017047A6
:10230000A186010080841E0000093D0040420F00AC
:102310000030FFFF007CFFFF206802685208520077
:1023200002607047F8B5040053D004F140056878A6
:1023300038B9002129700FF261106063204600F067
:1023400002FE02206870DFF83C612068C1693140FC
:10235000C1610220226810626069022830D0E06802
:1023600000280CBF10272027A068212838BF7F0035
:10237000012000F0F8FC014620690A22B0F5007F38
:102380000ED16369E06820B1BF00B1FBF7F14A43A9
:1023900003E0FF00B1FBF7F04243B2FBF3F005E0CE
:1023A000B1FBF7F042436069B2FBF0F0401D0A2137
:1023B000B0FBF1F101F00100091A4908000201E047
:1023C000022100208A1EFE2A05D3686840F0100012
:1023D00068600120F2BD0143206922680143116257
:1023E0002268D3696168A06833400B43E168034306
:1023F000A0690B43034343F40063D361206A0128BF
:102400003AD1DFF88410DFF88470DFF88420DFF839
:10241000843061632068B8420CBF184610460168DA
:102420000E4006602668BE420CBF181D101D02211A
:1024300001602668BE420CBF18461046D0F800C0A6
:102440006068B0F5007F16BF00284FF4807E4FF023
:10245000000EA168E06841EA0E010843A169084343
:1024600040F4006080B240EA0C00BE4208BF1A4649
:102470001FFA80FCC2F800C000206860012169706A
:10248000F2BD000040F0FFFF953700080038004023
:102490001C4000401C3400401CB504462068816884
:1024A000009194F84120042A32D10099CA0712D52C
:1024B00041684A060FD5C06800F069F8608E50B9CF
:1024C0002068416821F060014160012284F84120C8
:1024D000204600F054FE0098410619D52068416856
:1024E0008A0615D5416821F0600141600020019005
:1024F0002168CA680192896801910121019884F8D4
:102500004110606C40F002006064204600F038FE2C
:1025100094F84100032839D10098810719D5206823
:1025200041680A0615D5616A0A88C260606A811C22
:102530006162608D411E6185608D50B9206841687F
:1025400021F0A0014160012084F84100204600F004
:1025500018FE0098010719D5206841688A0615D52C
:10256000416821F0A0014160002000902168886846
:1025700000900120009984F841002046616C41F0F0
:1025800004016164BDE8164000F0FABD13BDE16AC4
:102590000880E06A821CE262608E411E618670479C
:1025A00038B5040031D0607F20B900212177204662
:1025B00000F05DFD00F03BF853202168486200F018
:1025C00047F8FF25E8B92168DFF888008A680240EB
:1025D0008A602268936860682169034360690B43DD
:1025E000034393602068E168016120680169A26883
:1025F00041EA0241016100F020F808D400F026F819
:1026000028B12068456204216177012032BD20682D
:10261000016C21F48021016421680A6CA0690243E5
:102620000A64012021684D626077002032BD0220DB
:102630006077CA212268516270472068C16821F022
:102640008001C1602068816888067047204603E0E9
:1026500020461AE0BFFF8FFF38B504462068C168E6
:1026600021F0A001C16000F0BDFB05462068C168F3
:10267000880608D400F0B6FB401B40F2E9318842DE
:10268000F4D3032032BD002032BD38B504462068A3
:10269000C1684A0612D44FF0FF31C16000F0A2FBBE
:1026A00005462068C168480608D400F09BFB401B23
:1026B00040F2E9318842F4D3032032BD002032BD1C
:1026C00038B5040001D1012032BD0020A06204F120
:1026D0005005687820B900212970204600F0CFFC11
:1026E0000220687000F027F86268A168E06823683B
:1026F0000A432169024360690A43A169024301F464
:102700000071E0690A43216A0243A06A0A43024356
:102710001A60A169606A2268090C01F00401014392
:1027200051602068C16921F40061C16100206860C6
:102730000121697032BD2068016821F0400101600B
:102740007047000010B5164C0FF2350101222046EB
:10275000FEF7B6FE08B1FFF795FA12492046FEF7DC
:10276000F2FE08B1FFF78EFA2046FEF729FF18B1F6
:10277000BDE81040FFF786BA10BD0948FEF72ABF32
:1027800009480278022905D0042905D0052904D179
:10279000032202E0022200E00122027070470000E2
:1027A00030000020100000203C08002070B50121FE
:1027B0000E480F4CFEF701FE78B900F013FB0D4EEA
:1027C00005463068281AB0F5FA7F0ED34FF48051D1
:1027D0002046FEF7FCFD356070BD2046BDE8704028
:1027E00000224FF48051FEF7EEBD70BD00000240A4
:1027F000000C0240340800202DE9F843040016D0F4
:102800002078DFF8F862C10713D5B06800F00C003B
:10281000042807D0B06800F00C0008283DD170688B
:1028200041023AD53068810303D56068002800F082
:102830005F812078B24F810719D5B06810F00C0F76
:1028400007D0B06800F00C0008285BD17068410226
:1028500058D43068810703D5E068012840F04881EA
:102860003168206921F0F80141EAC0013160217826
:10287000080779D56069A349002868D001220A6059
:1028800000F0B0FA0546706F81076DD400F0AAFA27
:10289000401B0228F7D903202DE16068B0F5803F86
:1028A00004D1306840F48030306011E0B0F5A02FE2
:1028B000306806D140F480203060316841F48031C6
:1028C00005E020F480303060316821F480213160EF
:1028D000606858B100F086FA054630688103A8D4D4
:1028E00000F080FA401B6528F7D3D4E700F07AFAAD
:1028F0000546306881039CD500F074FA401B6528BA
:10290000F7D3C8E7E068A8B10121396000F06AFA9E
:1029100005463068810705D400F064FA401B0228A0
:10292000F7D9B8E73068216920F0F80040EAC10023
:1029300030609CE7386000F055FA0546316888073A
:1029400095D500F04FFA401B0228F7D9A3E708609D
:1029500000F048FA0546706F810705D500F042FA8D
:10296000401B0228F7D996E72078410760D5306CE4
:102970000025C1000BD4002000900125316C41F0EE
:1029800080513164306C00F0805000900098DFF886
:102990007881D8F80000C10513D4D8F8000040F4BD
:1029A0008070C8F8000000F01DFA8146D8F80000D9
:1029B000C10506D400F016FAA0EB09000228F5D9EB
:1029C00069E7A068012805D00528306F06D140F0DE
:1029D00004003067306F40F0010005E0400840001F
:1029E0003067306F20F00400306741F28938A0680A
:1029F00060B100F0F7F98146306F810713D400F021
:102A0000F1F9A0EB09004045F6D344E700F0EAF9FC
:102A10008146306F810706D500F0E4F9A0EB09008C
:102A20004045F6D337E71DB1306C20F0805030645C
:102A3000A06900285ED0B16801F00C0108293AD0E5
:102A400002282AD10020386600F0CCF9054630680B
:102A5000810105D500F0C6F9401B0228F7D91AE715
:102A6000E069216A626A0843A16A490840EA821063
:102A7000491E40EA0140E16A40EA016070600120BD
:102A8000386600F0AFF904463068810132D400F0B6
:102A9000A9F9001B0228F7D9FDE60020386600F0EE
:102AA000A1F904463068810124D500F09BF9001B90
:102AB0000228F7D9EFE601281AD07068E26900F41D
:102AC0008001914202BF00F03F01226A91420FD182
:102AD00047F6C071626A0140914202BF00F4403182
:102AE000A26A914202BF00F07060E16A884201D0A0
:102AF000012000E00020BDE8F28300BF0038024062
:102B000000004742800E4742007000402DE9F0412E
:102B100004000F4654D0464E306800F00F00B84213
:102B200002D200F073F84BD12068424D810712D5D4
:102B3000400703D5A96841F4E051A9602078010756
:102B400003D5A86840F46040A860A968A06821F097
:102B5000F0010143A9602178C80729D560680128E0
:102B600002D129688A0305E0022818BF032803D18F
:102B700029688A0103D423E029688A0720D5A96837
:102B8000890840EA8100A86000F02CF98046A86816
:102B9000616800F00C00B0EB810F09D000F022F961
:102BA000A0EB080041F289318842F0D303202BE0EA
:102BB000306800F00F00874204D200F027F801D0FF
:102BC000012021E02078410705D5AA68E06822F4B9
:102BD000E0520243AA602178080706D5A968206957
:102BE00021F4604141EAC001A96000F0CBFAAA6873
:102BF0001149124BC2F30312895CC8401860104897
:102C0000006800F037F90020BDE8F08137703168C6
:102C100001F00F01B942704708480A4A006813687A
:102C20000949C3F38222FFE7895CC840704700006E
:102C3000003C024000380240603A00080C000020CE
:102C40000800002008380240843B0008F8B505461B
:102C5000DFF86841287810F0050F22D0DFF86061B6
:102C60000020306000F0BEF807462168080106D554
:102C700000F0B8F8C01B0228F7D90320F2BD68683D
:102C8000A968EA6800F092F8306000F0ABF80646F8
:102C90002168080105D400F0A5F8801B0228F7D9A7
:102CA000EBE72878810756D500200090216C454F2E
:102CB00041F080512164206C00F080500090009819
:102CC000396841F48071396000F08CF80646386844
:102CD000C10505D400F086F8801B0228F7D9CCE79F
:102CE000206F10F440701EBF296901F440718842C2
:102CF00019D0206F344901220A6000230B6020F4B0
:102D000040702067206FC1070DD500F06BF80646B4
:102D1000206F810707D400F065F8801B41F28931EC
:102D20008842F5D3A9E7296901F44070B0F5407FE6
:102D300007D1A268254822F4F81201401143A1608E
:102D400003E0A06820F4F810A060206F2969C1F3A7
:102D50000B01084320672878010702D5287D1C490C
:102D600008600020F2BD0146002001291DD119494B
:102D70004A68120219D40868174A410206D5136836
:102D8000164803F03F03B0FBF3F105E01168144867
:102D900001F03F01B0FBF1F11068C0F3881041432E
:102DA0001068C0F30270B1FBF0F0704740EA811088
:102DB000094940EA0270086001207047003802406B
:102DC0006800474200700040400E4742FFFCFF0F82
:102DD000E0114742043802408438024000127A0071
:102DE0000024F40001484068704700BF0000002044
:102DF0007FB5144600220191039208250026029512
:102E00000096002327E038B584B000F013F80023C3
:102E100009E07FB500F025F800231BE038B584B049
:102E200000F008F8022300222146FDF76AFE002088
:102E300005B030BD1C46089D90F81D3303B1002538
:102E40000395029201910125009570477FB500F02E
:102E500008F8022301222146FDF753FE002004B0AA
:102E600070BD029201911C46002501260395009633
:102E70007047000038B50D4D0D4B2A7804464FF4CD
:102E80007A711868B1FBF2F2B0FBF2F0FEF7F8FAD3
:102E900050B9102C08D2002221464FF0FF30FEF727
:102EA000C7FAAC60002032BD012032BD0000002016
:102EB0000C00002082B00020009000228B48416866
:102EC00041F480414160416801F4804100910099E2
:102ED0000092036843F080530360006800F0805064
:102EE00000900098072002B0FEF795BA10B586B0A2
:102EF00000F0F5F821687E48814222D100227D4C05
:102F000000921222206840F002002060216801F047
:102F1000020100914FF410710098774801910292DC
:102F2000012103910022042100F0D4F80020009038
:102F3000216941F400112161206900F40010009022
:102F4000009806B010BD10B586B0044614220021CA
:102F50006846FFF731F92168684A694C6548914233
:102F600038D100210591026942F4804202610022B9
:102F7000016901F4804100F070F8036843F0040334
:102F80000360016801F0040100F067F804210368A0
:102F900043F0020303600222006800F00200059083
:102FA000059800F05EF8204600F04CF800220292EE
:102FB00003920820022100F04AF82046FEF72CF97F
:102FC00000224FF4A05002210292039200F03FF839
:102FD000494833E04B4A914232D1002105910269C0
:102FE00042F4004202610022016901F4004100F054
:102FF00034F8036843F001030360016801F0010144
:1030000000F02BF81021036843F004030360022250
:10301000006800F00400059005983B4800F021F896
:1030200000F010F800224FF4A45002210292039203
:10303000009001910622049269462046FEF7ECF8C2
:1030400006B010BD062104916946FEF7E5B8009070
:1030500001910522049269467047059105990592F0
:10306000704700910192002102910391704700681E
:103070002649884202D1264801220260704710B5D5
:1030800086B000F02CF821682248814220D100222D
:1030900018480092416941F480514161416901F44D
:1030A0008051009100990092E021036843F00103F0
:1030B00003600222006800F00100009000981248AE
:1030C00001910292002103910322052100F002F8F0
:1030D00006B010BD0591049201A9FEF79DB8044603
:1030E0001422002101A8FFF767B800004038024011
:1030F00000540040303802400004024000380040D4
:1031000000080240003C004000000240002800404F
:103110003C0E47420030014062F30F2262F31F422F
:10312000401810F0030308D0C91A1FD3DB0748BFAB
:1031300000F8012D28BF20F8022D130030B41446EA
:103140001546103928BF20E93C00FAD8490728BFA6
:1031500020E90C0048BF40F8042D890028BF20F862
:10316000022D48BF00F8012D30BC7047C91818BFA8
:1031700000F8012DCB0728BF00F8012D70477047DC
:103180007047704730B5144C606800F00C0004289C
:1031900002D0082802D01DE0104830BD2268206807
:1031A0000023410202F03F0204D525680B49C5F314
:1031B000881003E020680A49C0F38810A1FB0001D1
:1031C00000F010F82168C1F30141491C4900B0FB2F
:1031D000F1F030BD024830BD0438024000127A00E0
:1031E0000024F400D3BBD9B1B2F5803F5BD2022AF0
:1031F0001ED98C46B1FBF2F102FB11C31B0443EA5A
:103200001043B3FBF2FC02FB1C3380B240EA0343E1
:10321000B3FBF2F002FB103240EA0C40002370478F
:10322000022A05D98446B0FBF2F002FB10C27047B7
:103230004AB105D100F0010249085FEA3000704749
:1032400000220023704700F051B80B00020000215B
:1032500000207047F7D3002200237047904271EBA3
:10326000030CF2D370B5B1FA81F4B3FA83F52C1BD9
:10327000A340C4F1200532FA05F63343A2405FF0C3
:103280000046E64002E05B085FEA3202841A71EB16
:10329000030524BF204629467641F4D302000B00E3
:1032A0003000002170BD70B5B1FA81F4B2FA82F538
:1032B000C4F120046419B4F12006DAD3B2405FF0FF
:1032C0000044F440002502E052085FEA3303C61AC6
:1032D00071EB020E24BF3046714664416D41F3D359
:1032E00002000B002000290070BD000070470000A4
:1032F0002DE9FF410546012302220221FEF740F994
:103300000746FF2F3CD0022F3AD201462846FEF74F
:103310002BF9002834D1502000F082F905F54776CA
:10332000316EC861306EC46954B350212046FDF738
:103330006FFF4FF01A0818FB07F7E81900F24E303C
:1033400001780A0602D5617040886081284661785C
:10335000FEF7E4FC20700321608900F059F86278E0
:103360002178FEF7C8FC217800F04EF800230022F7
:103370000A212846FEF704F9FF2801D0022801D3CC
:1033800002203EE018FB00F0284400F24E300178A5
:103390000A0603D5E1734188618302E0A173418885
:1033A0002183017A0A0603D5E1734089608302E034
:1033B000A173408920832846A17BFEF7AFFC607390
:1033C0002846E17BFEF7AAFC20730221208B00F047
:1033D0001FF8A27B617BFEF78EFC608B02900221BE
:1033E00000F017F8E27B217BFEF785FC002084F8D3
:1033F0004C000022617B00F008F8217B00F004F80B
:10340000002004B0BDE8F08100222846FDF79FBBF4
:10341000029001912846727800923378704738B54F
:103420000446D4F87C03C569297839B100F0EAF87C
:1034300029782046FEF78EFC00202870297B39B1C0
:1034400000F0E0F8297B2046FEF784FC002028737A
:10345000697B39B100F0D6F8697B2046FEF77AFC2B
:1034600000206873D4F87C03C06928B100F076F9B5
:10347000D4F87C130020C861002032BD70B504462A
:1034800004F55F752A68D36903F1400100F0BDF8C7
:10349000060003D1AA6D022120469047304670BD38
:1034A0007CB505460124D5F87C03C16901F14006CD
:1034B000317B042905D8DFE801F0030516359B00B0
:1034C00000249BE0B16821202874202200206A7427
:1034D0006882A8820723EB8207222846FEF77AFD3E
:1034E000E0B9022089E03146284600F08EF8A8B9FC
:1034F0003073B06831790279914202BFB179827933
:1035000091427BD171794279914202BF3168006862
:10351000814273D1284600F023F96FE001286DD075
:1035200004206AE0C66996F84D0001281FD00228E1
:103530002BD1717B2846FDF7F9FA012812D1308B87
:10354000726A904204D2111AF2691044F06100E0EC
:1035500000210800716207D186F84D10284600F05E
:1035600000F912E0022810D186F84D400DE0F16913
:10357000706A328B737B0094824228BF82B22846E5
:10358000FFF74CFC022086F84D00D5F87C03C66995
:1035900096F84E00032821D004282FD1317B2846ED
:1035A000FDF7C4FA012829D1317B2846FDF78EFAB0
:1035B0000146B06A401A0AD0728B8A4207D2B062C2
:1035C000306A08440321306286F84E1016E000206D
:1035D00086F84E00284600F0C5F80FE0337B728B6A
:1035E000316A2846FFF732FC042086F84E0005E0D9
:1035F00000212846FEF7DCFC00B93073204676BD7A
:10360000002070472046FEF784BBA12202742123CC
:1036100000224282828243740722C282FEF7DABC11
:1036200010B50446AFF30080204600F005F80446CC
:10363000AFF30080204610BDF8B500F10F04E40898
:10364000E400A0422BD2082C04D2082402E0083067
:1036500000F047F8DFF800211368190005D10020B9
:1036600007E00568A5420DD2011D08680028F8D1C1
:103670001868111D00E0191D0B6883420BD01D68EE
:10368000A542F8D359B10B6818680838A04208D28F
:10369000586808600FE000F067F80028D7D10020D4
:1036A000F2BD181908601D1D586828511E680F6862
:1036B000361B3E601C60096800291DBF4868002851
:1036C000081D0020106003F10800F2BD10B50400D1
:1036D00006D0AFF30080204600F003F8AFF300807F
:1036E00010BD002800D1704770B4A0F10802136823
:1036F000072B2ED913F0070F2BD1DFF85C40616840
:1037000009B18A4203D25160626015E001464868FF
:1037100008B19042FAD308680E18B24219D3964203
:1037200003D11B180B600A4606E0486810B1134429
:1037300098420ED350604A60506850B11368D51853
:10374000854206D1002626600168CB1813604068C8
:10375000506070BC7047000028080020FFF7B6BF1B
:1037600070477047704700000749086808B100209B
:1037700070470648C008C00008600549C908C9006C
:10378000091A0160704700BF38080020470C00206C
:10379000400E0020F8B5044684B02168DFF82C7292
:1037A0008868DFF82C52DFF82C620390B9420CBF16
:1037B000301D281D00680290B9424A6801920CBF72
:1037C00030462846036800936068B0F5007F18BF54
:1037D000002870D10398820712D5019802060FD5F0
:1037E000606A821C62620088C860618D4A1E6285C0
:1037F000608D28B900F0D0F8608E08B900F0DEF8CE
:103800000298C1071DD5009841061AD5E06A811CAF
:10381000E1622268BA420CBF06F1080105F1080115
:10382000096800F0BFF860B92168B9420CBF3046A2
:103830002846026822F060020260608D08B900F03C
:10384000BDF8029841061FD5009881061CD5206856
:10385000B8420CBF30462846016821F06001016083
:1038600000F09AF8002000902168CA6800928968E8
:1038700000910121009884F84110606C40F0020032
:1038800060642046FFF77CFC039801077CD5019813
:10389000810679D500F080F82068B84208BF354627
:1038A000296821F060012960002000902168886863
:1038B000009000995EE0029882071FD500980206EA
:1038C0001CD5B9420CBF06F1080005F10800616A79
:1038D0008A1C626209880160608D421E6285608D6B
:1038E00060B92168B9420CBF30462846026822F010
:1038F000A0020260608E08B900F060F80398C1076A
:1039000010D5019841060DD5E06A811CE16222685C
:10391000D16800F047F828B900F038F8608D08B990
:1039200000F04CF80398410614D50198810611D592
:1039300000F02CF82068B8420CBF304628460168D9
:1039400021F0A001016000F033F841F00201616450
:10395000FFF716FC0298010716D50098810613D5CB
:103960002068B84208BF3546296821F0A0012960C7
:1039700000F00CF800F01CF841F00401616405B09F
:10398000BDE8F040FFF7FCBB05B0F0BD2068416822
:1039900021F06001416070472068416821F0A0017A
:1039A000416070470180608E421E6286608E704763
:1039B000012084F841002046616C7047012184F8A1
:1039C0004110204600F008B8000000000038004018
:1039D0000440004004340040704730B4002512E039
:1039E00050F8042BD30744BF4A44521E091F042930
:1039F00042F8045BFAD213468C0744BF15809B1C27
:103A0000C90748BF1D7050F8041B0029E8D130BC1D
:103A100070470000010000000000000010000000DE
:103A20000024F4008C3B000802000000F132000882
:103A30001F3400087D340008A13400080136000856
:103A4000000000000448054A016841F4700101606B
:103A50004FF000601060704788ED00E008ED00E076
:103A6000000000000000000001020304060708092E
:103A700010B5074979441831064C7C44163404E0EB
:103A80000A68081D114488470146A142F8D110BDBB
:103A90002C0000004C0000004EF68851CEF20001D0
:103AA000086840F470000860BFF34F8FBFF36F8F5A
:103AB0004FF00170E1EE100A704700001FFFFFFF9A
:103AC0001008000030000020000000007BCEFFFF47
:103AD0003000000040FFFFFF000000200000000059
:103AE0007047FEE7FEE7FEE7FEE770477047704766
:103AF00000F006B80148FCF70EBC000008040020E6
:103B00000248416802788A1842607047000000202D
:103B100000F00DF8002801D0FFF7AAFFAFF30080F6
:103B20000020AFF30080FDF72DFF00F002F8012028
:103B3000704700F001B800000746384600F002F870
:103B4000FBE7000080B5AFF30080024A11001820A7
:103B5000ABBEFBE7260002000548014603B46846F9
:103B600080F30988AFF30080FFF796FFFFF7D0FFDF
:103B7000A5EDF5FE0148804701480047453A000899
:103B8000593B0008000000000102030443444300C5
:103B9000FFF7FEBFFFF7FEBFFFF7FEBFFFF7FEBF59
:103BA000FFF7FEBFFFF7FEBFFFF7FEBFFFF7FEBF49
:103BB000FFF7FEBFFFF7FEBFFFF7FEBFFFF7FEBF39
:103BC000FFF7FEBFFFF7FEBFFFF7FEBFFFF7FEBF29
:103BD000FFF7FEBFFFF7FEBFFFF7FEBFFFF7FEBF19
:103BE000FFF7FEBFFFF7FEBFFFF7FEBFFFF7FEBF09
:103BF000FFF7FEBFFFF7FEBFFFF7FEBFFFF7FEBFF9
:103C0000FFF7FEBFFFF7FEBFFFF7FEBFFFF7FEBFE8
:103C1000FFF7FEBFFFF7FEBFFFF7FEBFFFF7FEBFD8
:103C2000FFF7FEBFFFF7FEBFFFF7FEBFFFF7FEBFC8
:103C3000FFF7FEBFFFF7FEBFFFF7FEBFFFF7FEBFB8
:103C4000FFF7FEBFFFF7FEBFFFF7FEBFFFF7FEBFA8
:103C5000FFF7FEBFFFF7FEBFFFF7FEBFFFF7FEBF98
:103C6000FFF7FEBFFFF7FEBFFFF7FEBFFFF7FEBF88
:0400000508003B595B
:00000001FF
